:100000000C9436030C946E030C946E030C946E03E4
:100010000C946E030C946E030C946E030C946E039C
:100020000C946E030C946E030C94442C0C94172DBA
:100030000C949E260C946E030C946E030C946E0329
:100040000C946E030C946E030C946E030C946E036C
:100050000C946E030C9456270C946E030C946E0350
:100060000C946E030C946E030C946E030C946E034C
:100070000C946E030C946E030C946E030C946E033C
:100080000C946E030C946E030C946E030C946E032C
:100090000C946E030C946E030C946E030C946E031C
:1000A0000C946E030C946E030C946E0329001E00D6
:1000B0001F0020002100220023002400250026002C
:1000C00027002D002E0000002A004C002B001400F9
:1000D0001A000800150017001C0018000C00120080
:1000E00013002F003000310000004B0039000400E5
:1000F0001600070009000A000B000D000E000F009B
:10010000330034000000000028004E00E100000031
:1001100000001D001B000600190005001100100062
:10012000360037003800E50052002152E00021522D
:10013000E2000000000000002C00000000000000B1
:100140000000E6002152500051004F003500217898
:10015000207821782B783E003F004000410042008B
:10016000430044004500000001004600010001007A
:100170005200010001000100010001000100010026
:10018000010001000100010000004A0001005000D0
:1001900051004F00010001000100010001000100B9
:1001A000010001000000000001004D002078000067
:1001B0000000AA00A900AC00AB00E300E1000100D0
:1001C0000100010001000100010001000100010027
:1001D000010000000000000001000000000000001D
:1001E0000000E700010001000100010029001E00DD
:1001F0001F002000210022002300240025002600EB
:1002000027002D002E0000002A004C002B001400B7
:100210001A000800150017001C0018000C0012003E
:1002200013002F003000310000004B0039000400A3
:100230001600070009000A000B000D000E000F0059
:10024000330034000000000028004E00E1000000F0
:1002500000001D001B000600190005001100100021
:10026000360037003800E50052002152E0002152EC
:10027000E2000000000000002C0000000000000070
:100280000000E6002152500051004F003500217857
:10029000207821782B783E003F004000410042004A
:1002A0004300440045000000010046000100010039
:1002B00052000100010001000100010001000100E5
:1002C000010001000100010000004A00010050008F
:1002D00051004F0001000100010001000100010078
:1002E000010001000000000001004D002078000026
:1002F0000000AA00A900AC00AB00E300E10001008F
:1003000001000100010001000100010001000100E5
:1003100001000000000000000100000000000000DB
:100320000000E700010001000100010000010101DF
:1003300001010101010102020202020202020203A2
:100340000303030303030304040404040404050572
:100350000505050606060606070707070708080835
:1003600008090909090A0A0A0B0B0B0C0C0C0D0DE4
:100370000D0E0E0E0F0F0F1010111111121213137C
:100380001414151516161717181819191A1A1B1BF5
:100390001C1D1D1E1E1F2020212222232424252651
:1003A00026272829292A2B2C2D2D2E2F3031323289
:1003B000333435363738393A3B3C3D3E3F40414295
:1003C000434445464748494A4C4D4E4F505153547B
:1003D000555658595A5B5D5E5F616264656668692F
:1003E0006B6C6D6F7072737577787A7B7D7E8082AF
:1003F000838587888A8C8E8F91939596989A9C9EF8
:10040000A0A2A3A5A7A9ABADAFB1B3B5B7BABCBE07
:10041000C0C2C4C6C9CBCDCFD1D4D6D8DBDDDFE2D4
:10042000E4E7E9EBEEF0F3F5F8FAFDFF0000000079
:10043000000000002A2B280000000000000000003F
:100440000000000000000029000000002C1E3420E5
:10045000212224342627252E362D3738271E1F200B
:100460002122232425263333362E37381F04050650
:100470000708090A0B0C0D0E0F1011121314151694
:100480001718191A1B1C1D2F3130232D3504050692
:100490000708090A0B0C0D0E0F1011121314151674
:1004A0001718191A1B1C1D2F3130354C0000000085
:1004B000000000000000000000000000000000003C
:1004C000000000000000000000000000000000002C
:1004D0007E0F00D4FFFFFFC70000007826036300F3
:1004E0007500730074006F006D005F0070006100A4
:1004F000720061006C006C0065006C005F003600EB
:100500003500000014034300650079006E006500AB
:100510007400690063007300000004030904090209
:100520005B00030100A0FA090400000103010100BF
:10053000092111010001224400070581030800017F
:100540000904010002030000000921110100012239
:100550002200070582032000010705030320000194
:100560000904020001030000000921110100012219
:100570007B00070584032000011201000200000037
:1005800008756F7A800001010200010660FF0961B1
:10059000A1010962150026FF009520750881020956
:1005A00063150026FF00952075089102C00501091A
:1005B00002A10185020901A10005091901290815F7
:1005C00000250195087501810205010930093115E1
:1005D00081257F95027508810609381581257F954B
:1005E0000175088106050C0A38021581257F9501E1
:1005F00075088106C0C005010980A10185031901A4
:100600002AB700150126B700950175108100C005B5
:100610000C0901A101850419012AA002150126A0D7
:1006200002950175108100C005010906A1010507A9
:1006300019E029E71500250195087501810295014A
:10064000750881010507190029FF150026FF00958F
:100650000675088100050819012905150025019571
:100660000575019102950175039101C011241FBE0A
:10067000CFEFDAE0DEBFCDBF04B603FE18C0809135
:100680003B0590913C05A0913D05B0913E0587301A
:10069000904BA740B04B59F410923B0510923C058B
:1006A00010923D0510923E05E0E0F8E3099513E055
:1006B000A0E0B1E0E4E4F0E602C005900D92A030C5
:1006C000B107D9F725E0A0E0B3E001C01D92AB333C
:1006D000B207E1F70E94E3120C949D2F0C940000E6
:1006E0008430C8F46530B8F44031A8F4E62FF0E067
:1006F00095E0899FE00DF11D112484E0EE0FFF1FAE
:100700008A95E1F7E40FF11DEE0FFF1FE455FF4F4F
:1007100085919491089581E090E0089581E0089595
:100720000E948E03089581E008950E948E0308952B
:100730000E949503089508950E949B030895A6E0E2
:10074000B0E0E5EAF3E00C94062F49835A839E83D8
:100750003091070389819A8131111AC03E81332378
:1007600099F0222389F00E949709182F682F898118
:100770009A810E94740969817A81812F0E948A106E
:100780002696E3E00C94222F0E948509182FF3CFC0
:100790000E94970969817A81F1CFFC01262F40815F
:1007A000518162817381848195810E949F030895A4
:1007B000CF93DF93D82FC92F61E00E94CD036D2F17
:1007C0007C2F0E949003DF91CF910895CF93DF9308
:1007D000D82FC92F60E00E94CD036D2F7C2F0E947F
:1007E0009C03DF91CF91089581E008950E94F40366
:1007F0000895CF93C82F0E9468088C2F0E94F6039B
:100800002FEF84E39CE0215080409040E1F700C04E
:100810000000CF91089581E00E94F9030E947A2799
:10082000089580E00E94F9030E949E2708950F9387
:100830001F93CF93DF938C0161E00E94CD03EC0105
:10084000B8010E946F23882309F449C0B801CE0182
:100850000E949803882309F442C0B801CE010E9487
:100860007B228823E1F1B801CE010E94A01D8823DC
:10087000B1F1B801CE010E94751D882381F1B80144
:10088000CE010E943A1B882351F1B801CE010E948B
:10089000BC22882321F1F8018581882381F0CA35A3
:1008A000FCE7DF0739F178F4C130ECE7DE07F9F057
:1008B000C330FCE7DF07C9F0C115DC4771F0C801A0
:1008C0000E9493030DC0CB35ECE7DE07B1F0CC35C9
:1008D000DC47A9F70E94B70DF2CF0E940B0480E01D
:1008E000DF91CF911F910F9108950E94C90D0E9431
:1008F0001104F5CF0E94C10DE2CF0E94C50DDFCFDC
:100900000E947A260E94A3180E94A80481E00E94F7
:10091000A31908950E94AC0480E00E94A3190E94CC
:100920007F26089581E008950895CF93DF93D82F0F
:100930000E949204C82F882319F08D2F0E949404DE
:100940008C2FDF91CF91089508950E94950408950A
:1009500080E00E94A50408950E944D250E94A504F0
:100960000895CF930E944D25C82F809102038C17C4
:1009700079F0C09302030E940A27609303037093E7
:10098000040380930503909306038C2F0E94A50413
:10099000CF910895ADE0B0E0E0EDF4E00C94072FC6
:1009A000488759876A877B878C879D8791110E942A
:1009B000F40C1F8286E0FE013896DE01119601904C
:1009C0000D928A95E1F78D8181110DC029813A81BF
:1009D0004B815C816D817E818F810E943A0C2D96C6
:1009E000E2E00C94232FCE0101960E94D8038111DE
:1009F000EDCFF5CFFC018481813021F4808191819C
:100A00000E94C0090895662329F00E940E1F0E94CB
:100A1000CF1F08950E94571FFACFCF93C82F882366
:100A2000C9F08238C9F40E945A2581FD13C089E3B8
:100A30000E9414260E94650D2FEF37EE83E02150AF
:100A400030408040E1F700C0000089E30E941C268E
:100A50000E94650DCF9108958338A1F40E945A2514
:100A600080FDF8CF83E50E9414260E94650D9FEF5C
:100A700021EE34E0915020403040E1F700C000000A
:100A800083E5E4CF8438A1F40E945A2582FDE2CFA9
:100A900087E40E9414260E94650D8FEF91EE24E0FA
:100AA000815090402040E1F700C0000087E4CECFA5
:100AB0008CEF8C0F813A70F48C2F0E94D7258823FD
:100AC00029F08C2F0E941C260E94650D8C2F0E94FD
:100AD0001426BECF80E28C0F883048F4C77081E0C6
:100AE00001C0880FCA95EAF70E94D50CB1CF8BE5FB
:100AF0008C0F833038F42C2F2452330BC9010E9401
:100B00007725A8CFE8E5EC0FEB3150F4F0E0EE0FDD
:100B1000FF1FE959FD4F808191810E949D259ACF49
:100B200083E38C0F833108F095CF61E08C2F0E9416
:100B3000030590CF882309F456C0823879F40E94C7
:100B40005A2581FF50C089E30E9414260E94650D3A
:100B500089E30E941C260E94650D0895833859F48C
:100B60000E945A2580FF3FC083E50E9414260E9400
:100B7000650D83E5EECF843859F40E945A2582FF33
:100B800032C087E40E9414260E94650D87E4E1CFFD
:100B90009CEF980F913AE8F290E2980F983050F459
:100BA000877091E001C0990F8A95EAF7892F0E941A
:100BB000DB0CD1CF9BE5980F933028F480E090E0D8
:100BC0000E947725089598E5980F9B3128F480E0DE
:100BD00090E00E949D25089593E3980F933118F4B7
:100BE00060E00E94030508951F93CF93DF93182FB1
:100BF000EB010E940D05209739F4812F0E949A0580
:100C0000DF91CF911F9108958FE99FE00197F1F750
:100C100000C000002197EFCF60E070E0893311F44D
:100C200060E570E00E94F4050895882321F00E9499
:100C3000D50C0E94650D0895882321F00E94DB0CDD
:100C40000E94650D0895A0E0B0E0E9E2F6E00C94A2
:100C5000012F6C01D62FC72FFC011581068102954B
:100C60000F700E94CA0CE82E8823F9F0E12E1123A0
:100C7000E1F08C2F807F803461F080E28D0F88302E
:100C8000F0F08C2F807E803221F4D230C0F000232F
:100C9000B1F08091EA0382FF12C082E00E948A0DC7
:100CA0000E94CA0C91E0E82EE926EC2FE295EF7045
:100CB000C03CB0F5F0E0E156F04D0C94EA2EE12C8A
:100CC000F4CF0C2F0F70C03110F00295007F11236C
:100CD00099F0002359F080E28D0F883010F0D11187
:100CE00007C0802F0E94D50C0E94650D8D2F51C02A
:100CF000802F0E94E60CF8CF8D2F0E949A050023CA
:100D000079F080E28D0F883010F0D11104C0802F6F
:100D10000E94DB0C03C0802F0E94EC0C0E94650D2A
:100D2000EE2089F00E94C60C80FD0DC0F6011582F0
:100D30000E94C00C0E94E208C6010E942F080E9477
:100D4000C00C0E94EE08CDB7DEB7E8E00C941D2F72
:100D5000FC2FFF70FF2EC07FC03219F0F29480EF9D
:100D6000F822DD2341F0D130D1F1112309F444C040
:100D70000023F1F0BBCF8091EA0382FD15C011235F
:100D800059F0FF2029F08F2D0E94D50C0E94650D8F
:100D900080E00E940D05C4CF80E00E949A05FF20EC
:100DA00009F4BECF8F2DB4CF112369F0011104C017
:100DB0008F2D0E941506B4CF013009F0B1CF8F2DD1
:100DC0000E940C0DADCF0111ABCF8F2D0E941C06E0
:100DD0008F2D0E94180D8F2D0E94FB0CA1CF112387
:100DE00021F0063008F09CCFE3CF053008F098CF13
:100DF0008F2D0E941C0694CF0023D1F3D93349F4E0
:100E00002FEF87EE93E0215080409040E1F700C043
:100E100000008D2F0E949A0583CF8C2F8695869592
:100E20008370882369F0813009F07ACF8D2F9C2F51
:100E30009370111102C080E090E00E949D2570CF58
:100E40008D2F9C2F9370111102C080E090E00E94C2
:100E5000772566CF612F8D2F0E94030561CF8C2FE0
:100E60008370811134C0111124C04D2F42954695D5
:100E70004770440F440F8D2F8F70042E01C0880FD0
:100E80000A94EAF7D071DD2341F02FE030E001C091
:100E9000220F4A95EAF7D22FD095C695C695C37012
:100EA0008D2BC23071F0C33079F0C13039F00E941F
:100EB000BE080E944D250E94A50432CF0E94B808AA
:100EC000F8CF0E94C408F5CF0E94B508F2CF1123D5
:100ED00039F1C0FFEECF4D2F429546954770440F34
:100EE000440F8D2F8F70042E01C0880F0A94EAF7EB
:100EF000D071DD2341F02FE030E001C0220F4A9590
:100F0000EAF7D22FD095C695C695C3708D2BC23007
:100F100069F0C33071F0C13031F00E941009C9CFBF
:100F2000823038F2D8CF0E940A09C3CF0E94160936
:100F3000C0CF0E94D008BDCFCF70112339F08C2FC5
:100F40000E94E2088D2F0E941506B3CF8D2F0E94BC
:100F50001C068C2F0E94EE08ACCFD23F31F170F40A
:100F6000D03FB9F0D13FB1F1112309F44EC00023B5
:100F700009F448C08D2F0E940D059BCFD33FE1F0AF
:100F8000D43F21F11111F3CF01114DC08C2F8F717E
:100F9000E1CF112341F0053008F08BCF8C2F8F71FA
:100FA0000E94FE0886CF0530F7CF8C2F8F7111116C
:100FB000D1CF0E94E2087DCF112329F08C2F8F71B1
:100FC0000E94D90876CF0E94D50873CF8091EA039A
:100FD00082FD06C08C2F8F71112309F4BBCFE9CF9E
:100FE000112331F063E08C2F8F710E946C0D61CF63
:100FF00081E00E948A0D023008F45BCF82E00E94FB
:101000008A0D57CF8C2F8F71D4CF002309F4BECF18
:10101000D93349F4EFEFF7EE23E0E150F040204000
:10102000E1F700C000008D2F0E949A0542CF0F9378
:101030001F93CF93DF93EC01688179818D810E94AA
:10104000CD098C010E941C090E94B408B801CE0190
:101050000E942306DF91CF911F910F910895CF93A6
:10106000DF93EC018C81882399F0CE010E94170454
:10107000811111C00E94CA0C882351F08D818823F0
:1010800039F08091EA0382FF03C082E00E948A0D5A
:10109000DF91CF910895CE010E941708CE010E94E2
:1010A000E603F6CF80E090E00E94772580E090E0B4
:1010B0000E949D250E94F40C0E94650D0E94EC1F69
:1010C0000E94CF1F08950E9424260E94520808956E
:1010D0000E94E30C0E9463080895282F92959F7048
:1010E000963091F060F4925F9F70923030F481E01E
:1010F000203F79F030F4283E30F080E008959A5F88
:10110000F3CF243FD1F7089581E0283EE0F3213F5B
:10111000F9CF0895FC018481882339F08081918181
:101120000E94C0090E946D08089580E00895A6E01D
:10113000B0E0EDE9F8E00C94072F2696E2E00C947D
:10114000232FA7E0B0E0E7EAF8E00C94072F2796FA
:10115000E2E00C94232F08950E94AB0808950E94AA
:10116000AC0880932703089508950E94AF0808955E
:1011700090912703892B0E94AF080895909127032F
:1011800089230E94AF0808959091270389270E9420
:10119000AF0808950E94AB0808950E94CA080895F8
:1011A0000E94CD0880932603089580E00E94D00815
:1011B000089591E001C0990F8A95EAF7892F0E945E
:1011C000D008089521E030E001C0220F8A95EAF7A7
:1011D00080912603822B0E94D008089521E030E000
:1011E000A90102C0440F551F8A95E2F7CA018095F4
:1011F0009091260389230E94D008089521E030E0D1
:1012000001C0220F8A95EAF78091260382270E9467
:10121000D008089590912603892B0E94D008089544
:101220009091260389230E94D00808959091260367
:1012300089270E94D008089508959B01677091E066
:1012400001C0990F6A95EAF763E0369527956A958C
:10125000E1F7B901660F771F260F371FFA01E20F7A
:10126000F31F40E050E0682F70E08191DF0111979B
:101270009B01042E02C0369527950A94E2F721704F
:1012800021952827292328272C934F5F5F4F433030
:10129000510559F708959C01A82FA77083E0369552
:1012A00027958A95E1F7C901880F991F820F931F2F
:1012B000FB01E80FF91F40E050E080E0219130E0B1
:1012C0000A2E02C0369527950A94E2F7217033273B
:1012D000042E01C0220F0A94EAF7822B4F5F5F4F62
:1012E0004330510559F70895282F862F953060F423
:1012F000203150F430E1939FB0011124620F711D31
:1013000048E053E00E941D090895282F953068F4A5
:10131000803158F430E1939FC001112468E073E0FC
:10132000820F911D0E944B09089580E00895A0E06E
:10133000B0E0EDE9F9E00C94022F7C010091260366
:1013400080912703082BC3E0D0E010E0C8010C2EE9
:1013500002C0959587950A94E2F780FD09C0219710
:10136000A8F7D12C8D2DCDB7DEB7E7E00C941E2F5A
:10137000DC2EB7018C2F0E949610019781F3F2CFDB
:10138000CF93DF93D82FC92F0E9497096D2F7C2F01
:101390000E949610DF91CF9108951F93CF93DF9312
:1013A000162FD72F90910703992341F0862F972F5F
:1013B0000E94C009DF91CF911F910895882381F089
:1013C000862F972F0E949709C82F682F812F9D2F56
:1013D0000E947409612F7D2F8C2F0E949610EACFF6
:1013E000862F972F0E948509C82FF4CFE1E0F0E007
:1013F000DF0102C0AA0FBB1F6A95E2F7BD01DF0142
:1014000002C0AA0FBB1F4A95E2F76A2B01C0EE0F7C
:101410002A95EAF7962F9823961302C08E2B0895EB
:10142000E0958E230895242F462F682F8091260360
:101430000E94F6090E94D00808950F931F93CF933E
:10144000E0912803C7E0809129038E1304C0CF9157
:101450001F910F9108950E2F10E0CE9FF0011124DF
:10146000E65DFC4F20813181428153816481758129
:1014700086810E94A108F8013196E770E4CF20919F
:10148000620330916303409164035091650360915E
:10149000660370916703809168030E94A108089514
:1014A00080916803803178F480916703882359F034
:1014B000E091280320912903309163034091620356
:1014C00057E02E1301C008956E2F70E05E9FF0016B
:1014D0001124DF01A65DBC4F14968C9114978823CC
:1014E00061F111968C911197831327C08C9184130D
:1014F00024C015968C91159781111FC012968D915D
:101500009C91A0916403B09165038A1B9B0B883C5E
:10151000910598F4809168038F70806180936803CF
:10152000E05DFC4F80818F708061808382E693E074
:101530000E942F080E941D0A0895FB013196E77052
:10154000C0CFE09128039091290327E0E91302C05E
:1015500080E00895AE2FB0E02E9FF0011124E65DEB
:10156000FC4F3181361306C03081381303C03581FA
:10157000341304C0FD013196E770E8CF81E008958F
:101580008F929F92AF92BF92DF92EF92FF920F9352
:101590001F93CF93DF93CDB7DEB72D970FB6F89497
:1015A000DEBF0FBECDBF8C0186E0F801DE011896CC
:1015B00001900D928A95E1F7F801E080F580A28014
:1015C000B380848192E6892E93E0992E90916603F0
:1015D00091111BC0882309F4FCC0FF2009F43DC110
:1015E000C8010E948A08882309F437C187E0F801FE
:1015F000D40101900D928A95E1F7C4010E94FA048A
:101600000E94500A0E943F0AE4C0D09067032091D4
:10161000640330916503A501421B530BDD2009F4DF
:10162000DBC0483C510508F0A6C0882309F4D1C0AE
:1016300090916303918080916803803108F06BC0C2
:10164000991228C0909162039E1124C0F1105DC0D0
:101650008F708061809368030E943F0A82E693E066
:101660000E942F0880916803F8018683F12C8F2D4A
:101670002D960FB6F894DEBF0FBECDBFDF91CF9190
:101680001F910F91FF90EF90DF90BF90AF909F90D0
:101690008F900895F11039C040E0692D8E2D0E9481
:1016A000A10A40E0692D8E2D0E94A10AF82E811119
:1016B000DDCF888599850E94C009292F22952F703A
:1016C000903450F49F70223080F0992399F0F80103
:1016D0009681903178F4CBCF2A5F2F70223078F04A
:1016E000C8010E942F08FD2CC2CF992319F088232E
:1016F00009F4BDCF805E883008F4B9CFF1CF803FC8
:1017000008F4B5CF815F8230F7CF809168038160A4
:1017100080936803ABCF991207C0909162039E112A
:1017200003C0FF2009F479C0C8010E948A088823F9
:1017300009F493C0FF2009F490C0809168038032BF
:1017400088F020916203309163033A832983BC823D
:10175000AB82909166039D831E828F83CE0101969A
:101760000E942F0887E0F801A2E6B3E001900D92F5
:101770008A95E1F745CF909168039031A0F44885B0
:1017800059856A857B858C859D850E94970882E6B0
:1017900093E00E942F0887E0F40111928A95E9F7FF
:1017A0000E943F0A63CF8823A1F0209163038181C7
:1017B0002813BACF809162038E11B6CFF110B4CF47
:1017C0009683C8010E942F0887E0F40111928A9540
:1017D000E9F7FF24F3944BCF483C510508F041C092
:1017E0008823B9F3FF20C9F1909163038181981395
:1017F0002AC0809162038E1126C08091680380FD0B
:1018000019C08031B8F08683807F803F39F08681AF
:10181000982F907F905F8F70892B8683C8010E94DC
:101820002F0887E0F801A2E6B3E001900D928A95B7
:10183000E1F7E8CE87E0F801A2E6B3E001900D926F
:101840008A95E1F7C6CFC8010E948A0881118ACF24
:1018500080916803816080936803C8010E942F080B
:10186000B8CF488559856A857B858C859D850E9482
:10187000970891CFAEE0B0E0E0E4FCE00C94062FD6
:10188000288739874A875B876C877D878E87CE015B
:1018900008960E94C00A8823B1F06C85662341F047
:1018A000288539854A855B857D858E850E94A108BE
:1018B00017E0809128039091290389133EC02E964A
:1018C000E3E00C94222F87E0FE013896DE011196AA
:1018D00001900D928A95E1F7209129034091280308
:1018E0008C85882329F330E0C901019687709927F8
:1018F00050E08417950799F097E0929FD001939F4D
:10190000B00D1124A65DBC4FFE01319601900D92E1
:101910009A95E1F7809329030E941D0AC9CF0E947E
:101920006808109229031092280387E0E2E6F3E0AA
:10193000DF011D928A95E9F7BBCF189FC0011124E2
:10194000865D9C4F0E94C00A882309F4B8CFE091BD
:1019500028031E9FF0011124E65DFC4F2081318198
:10196000428153816481758186810E94A1088091A2
:10197000280390E00196877099278093280399CFD8
:10198000809171038695869586950895809171035F
:101990008770089590917103977081E0911101C053
:1019A00080E0089580917D03089590917D03982BA8
:1019B00090937D030895982F909580917D038923BE
:1019C00080937D03089510927D03089590917C0388
:1019D000982B90937C030895982F909580917C0389
:1019E000892380937C03089510927C0308950895C1
:1019F0000E94F70C089590917203292F2823222327
:101A000031F080958923809372030E94F80C089529
:101A100008950E94080D089590917303292F28239B
:101A2000281729F0982B909373030E94090D0895AD
:101A300090917303292F2823222331F08095892345
:101A4000809373030E94090D089580917303882386
:101A500029F01092730380E00E94090D08950F93FE
:101A60001F93CF93DF930091460210914702C091DC
:101A70007D0380917C03C82BD0917303DD2331F06B
:101A80000E94C32581110E94250DCD2BF801C08332
:101A9000C0914602D091470248E050E069E673E009
:101AA000CE010E942E2F892B59F088E0FE01A9E675
:101AB000B3E001900D928A95E1F7CE010E945D2579
:101AC000DF91CF911F910F9108950E942F0D0895DE
:101AD00008950E94680D08959091EA0392FF11C045
:101AE00098E0899F90011124622B609371030E94FA
:101AF000E208809171038695869586950E94690D0E
:101B000008950E94E20808951092710380E00E94F7
:101B1000690D0895909171038095892380937103D5
:101B2000282F277021110DC0891759F09091EA03D1
:101B300092FF07C08695869586950E94EE080E94C2
:101B4000840D08959091EA0392FB222720F928172B
:101B500069F080FB92F99093EA038091E9039091F8
:101B6000EA030E94EB0D82E00E948A0D08958091A5
:101B7000EA0382FB882780F991E089270E94A20D61
:101B8000089581E00E94A20D089580E00E94A20DB8
:101B900008956FEF7FEF80E090E00E94972F089507
:101BA00080E090E00E94632F853E9E4F19F40E94D2
:101BB000F722089580E0089582E090E00E945B2F74
:101BC000089583E090E00E945B2F089584E090E008
:101BD0000E94632F0895BC0184E090E00E94972F3B
:101BE0000895AB01BC018FE090E00E948B2F089517
:101BF000AB01BC0183E190E00E948B2F089560E06F
:101C000070E0CB010E94F80D089560E070E0CB0118
:101C10000E94F10D0E94FF0D0895A8E0B0E0E3E1FD
:101C2000FEE00C94072F65EE7EEF80E090E00E94CE
:101C3000972F60E082E090E00E94792F81E080930E
:101C4000270361E083E090E00E94792F60E074E177
:101C500084E090E00E94972F60E086E090E00E9490
:101C6000792F60E087E090E00E94792F40E050E01B
:101C7000BA0188E090E00E948B2F60E083E290E060
:101C80000E94792F60E08CE090E00E94792F60E064
:101C90008DE090E00E94792F19821A821B821C82AB
:101CA0001D821E821F82188648E050E067E170E0C6
:101CB000CE0101960E94692F40E050E0BA018FE109
:101CC00090E00E948B2F80E00E9410230E944F23FF
:101CD0000E94050E2896E2E00C94232F0E940D0E20
:101CE0000895682F8EE090E00E94792F0895A6E075
:101CF000B0E0EDE7FEE00C94052F0E94FE268C017B
:101D000080917E0390917F038017910779F019826B
:101D10001A820E94FE26BC0149815A8180E090E02F
:101D20000E94CA0410937F0300937E032696E4E08A
:101D30000C94212F0E940A2760938E0370938F03C7
:101D4000809390039093910360938A0370938B0325
:101D500080938C0390938D030895089508950E94B5
:101D6000AD0E089508950E94B20E08958EE891E197
:101D70000E94FA120E94AE0E0E94AF0E089581E0FA
:101D800008950E94BF0E08950E94BF0E0895089501
:101D900008950E94C70E0E94C80E08950E94D00D9B
:101DA000811102C00E946E0E0E94DC0D809392038E
:101DB0000E94E60D9093EA038093E9030E94DE1BE4
:101DC0000E94E10D0E94B508809126030E94CD0873
:101DD00008950E94F5260E945F230E944B120E94E4
:101DE000CE0E0E94A4040E9476190E94B30E08959C
:101DF000A6E0B0E0EEEFFEE00C94FB2E0E94C10ED8
:101E000081110CC00E94770E0E94A3180E940D2021
:101E10000E94B1042696EEE00C94172F0E946112E6
:101E200020E8822E23E0922E640110E0F601E1907A
:101E3000F1906F01812F0E9498111F5F153009F4F6
:101E40004BC0E816F90691F38091920381FD0E9440
:101E5000A1110E94C40E782E10E0812F0E949811CB
:101E60007C01F401A190B1904F018A159B0571F19D
:101E7000A826B92600E0CC24C394D12CC5018C211E
:101E80009D21892BD1F066246394C7018C219D216B
:101E9000892B09F4612C772059F009831A830E9459
:101EA000FE26BC0149815A8181E0962D0E94CA0418
:101EB000462D602F812F0E9411150F5FCC0CDD1C69
:101EC0000031E1F6F4013297F182E0821F5F1530B4
:101ED00021F60E949A0E98CFE816F90609F0B4CFC1
:101EE00091CF1F93CF93DF930E949B10EC0181153C
:101EF00022E5920708F053C0811540E5940708F0E9
:101F0000DDC0803E9105F8F48D3C910508F0AEC02F
:101F1000883A910580F4853A910508F099C081309E
:101F2000910521F00497813A910550F4CE01DF919B
:101F3000CF911F910895885A91094B9708F48BC04F
:101F4000C0E0D0E0F3CF811550E49507F8F4C11557
:101F500080E2D80708F0CBC0C83ED10538F3CE01E7
:101F60009A9581159F4160F78D2F0E943F11182F80
:101F7000CE0199270E949B10212F30E0322F22277B
:101F8000E901CC27DF71C82BD92BD0CF99270E942C
:101F90009B10CC27DF70C82BD92BD06AC7CF8038D5
:101FA00042E59407C8F5803652E5950708F067C00A
:101FB000C03482E5D807B0F08C2F8695869587705F
:101FC00020E2829FC0011124C37021E030E0A9010A
:101FD00002C0440F551FCA95E2F7EA01C82BD92B5E
:101FE000DC68A4CFC03252E5D50708F041C08C2F81
:101FF0008695869520E2829FC0011124C37021E05E
:1020000030E0A90102C0440F551FCA95E2F7EA016A
:10201000C82BD92BDD688ACF803C52E5950760F448
:102020008F71C03AD24508F03FC090E0982F8827C2
:10203000EC01C46FD06A7ACF805C9245809708F03B
:102040007FCFDC2FCC27CC27DF71C06FD06A6ECF5B
:10205000A497D0646BCFC85AD0E0CC0FDD1FC35615
:10206000DD4F0990D881C02DD46460CFD0655ECF9C
:10207000CF71D0E0DC2FCC27C16FD06A57CF8695C7
:102080008695877020E2829FC0011124C37021E0F1
:1020900030E0A90102C0440F551FCA95E2F7EA01DA
:1020A000C82BD92BDA6842CF0E943F11C82FD0E04D
:1020B000DC2FCC27CC27DF71D06238CF8F710E9404
:1020C0003F1165E0D695C7956A95E1F7CF70D0E0EE
:1020D000DC2FCC27282F30E084FF05C054E0220FEE
:1020E000331F5A95E1F7C22BD32BD0691FCF8D2F09
:1020F0008F710E943F11182FCE0199270E949B10CB
:10210000212F30E0322F222722273F71282B392B15
:10211000E901D2CF462F672F753028F4403118F4EB
:102120000E94931C089580E090E008950E948A1018
:102130000E94710F0895803E9105D1F1C8F481335A
:10214000910509F47FC048F48932910509F46FC004
:102150008A32910509F47DC0089589339105E1F033
:1021600082389105C9F08533910509F45BC0089563
:10217000843E9105D1F148F4823E910531F1833ED0
:10218000910541F181EE90E00895863E9105C1F1FF
:10219000873E9105E1F108952091E9032370211113
:1021A00065C02091EA0323FF14C089E290E00895FE
:1021B0002091E90320FD43C03091EA0330FF09C0BC
:1021C00024FF4EC080E090E008952091E90322FDB5
:1021D000F7CF08952091E90322FD45C03091EA032D
:1021E00030FD44C024FFF5CFEDCF2091EA0321FF5D
:1021F000F0CF8091E90384FDE5CF87EE90E008956C
:102200002091E90323FFE5CF24FDDCCFF6CF209119
:10221000E90323FD2EC03091EA0331FFE3CF84EEC2
:1022200090E008952091E90325FFD3CFBECF209100
:10223000E90325FD21C02091EA0323FFCACF89E3EA
:1022400090E008952091E90326FFC3CF8AE290E051
:1022500008952091E90326FFBCCF81E390E0089523
:1022600083EE90E0089582EE90E0089580EE90E095
:10227000089586EE90E0089585E390E0AACF9091CE
:10228000E90392FF10C041E0282F2471243009F0A7
:1022900040E031E0282F2871283009F030E0431762
:1022A00011F02CE0822793FF10C041E0282F247109
:1022B000243109F040E031E0282F2871283109F05D
:1022C00030E0431711F02CE082273091EA0330FF11
:1022D00010C051E0282F2171213009F050E041E079
:1022E000282F2871283009F040E0541711F029E018
:1022F000822731FF10C041E0282F2171213109F0E0
:1023000040E031E0282F2871283109F030E04317F0
:1023100011F029E0822794FD877E089580E00895DA
:1023200008950E949011089508950E9494110895AF
:10233000E82FF0E0EE0FFF1FEB50FC4F8081918102
:102340000895089580EA8A95F1F7089500C00895E8
:102350000E94A2110895F894E82FE295EF70F0E042
:1023600041A18F7021E030E0B90102C0660F771FF4
:102370008A95E2F7CB01962F9095942391A392A191
:10238000892B82A3789408950F931F93CF93DF93A3
:10239000C3EED2E089918F3F11F00E94AB1182E031
:1023A000C83ED807B9F7C3EDD2E003EE12E0899139
:1023B0008F3F11F00E94AB110C171D07C1F7DF9181
:1023C000CF911F910F910895A0E0B0E0EAEEF1E106
:1023D0000C94002FEC01B62E062F10E0C8018D5191
:1023E0009D4F7C01FC0180818F3F09F44FC0F89420
:1023F000E82FE295EF70F0E091A18F7021E030E0DE
:1024000001C0220F8A95EAF7892F822B81A382A12E
:102410002095282322A378940E94A611E3EDF2E0F0
:1024200041E050E0C12CD12C21912F3F89F0A22F07
:10243000A295AF70A05EB0E08C9190E02F7002C0CA
:10244000959587952A95E2F781709A01882311F076
:1024500020E030E0C22AD32A440F551F82E0E33E39
:10246000F80711F7F70180818F3F11F00E94AB113F
:1024700061E0C114D10409F460E08B2D0E94A81121
:10248000000F111FC00FD11FD982C882CDB7DEB790
:10249000E9E00C941C2F0E94C4118AE0E5EFF3E000
:1024A000DF01982F1D929A95E9F7EBEEF3E0DF013B
:1024B0001D928A95E9F785E00E949E120E94911173
:1024C0000895AAE0B0E0E7E6F2E10C94042FFE01E3
:1024D00031968AE0DF011D928A95E9F710E0FE2E21
:1024E0000F2F612F8F2D902F0E94E4111F5F153049
:1024F000C1F74AE050E06F2D702F8BEE93E00E9401
:102500002E2F21E0892B81F420E045E065EF73E078
:102510008BEE93E00E949F12182F0E949511812F3D
:102520002A96E5E00C94202F8AE0EF2DF02FABEEF9
:10253000B3E001900D928A95E1F7E7CF0895A0E00E
:10254000B0E0E5EAF2E10C94012FD82EE92EF62E48
:10255000D72F042FC22F222379F081E08093950397
:102560000E94FE26909394038093930380E0CDB75E
:10257000DEB7E8E00C941D2FC0909503CC20B1F39A
:1025800080919303909194030E942727059770F3FD
:1025900010E0000F111FA8016D2D7E2D8F2D9D2F96
:1025A0000E942E2F892B41F0A8016D2D7E2D8F2D9D
:1025B0009D2F0E943B2FCC2D109295038C2FD7CFAF
:1025C0000E94F80E08950E9497260E9432290E94C8
:1025D000B60E0E944C290E94E90E0E9459290E94C1
:1025E0005E290E94E0120E9478290E9400280E9421
:1025F000C90EF5CF90930103809300030895A0E0E6
:10260000B0E0E5E0F3E10C94FF2EE82F71110DC06E
:10261000442321F0F0E0E45DFC4F8491682F782F93
:10262000CDB7DEB7EAE00C941B2F262F30E0C72F82
:10263000D0E0F0E0442321F0E45DFC4FE491F0E0D1
:1026400086E0829F7001839FF00C11240FEF10E051
:10265000C701B8010E94C22EAB01220F331F65E5EE
:10266000649FC001659F900D1124281B390BC22E59
:10267000CC0CC20EC8018C1B9D0B8E9F90018F9FAE
:10268000300D9E9F300D1124832FCC9EB001CD9E26
:10269000700D1124672F77275801A61AB70AAE9E2E
:1026A000D001AF9EB00DBE9EB00D11247B2F5801FE
:1026B000AC18B1086501CC9E5001CD9EB00CDC9EDB
:1026C000B00C1124AB2CBB240A191B090E9FE0018E
:1026D0000F9FD00D1E9FD00D11246E2F433051053A
:1026E000C9F09CEFE91693E0F90650F4413051052A
:1026F00009F496CF4230510589F07E2F6D2F90CF8F
:102700004430510571F046305105B9F3632F8B2FDA
:102710007E2F86CF6B2F732F8E2F82CF732F8D2F0F
:102720007FCF7D2F632FF8CF41E00E94FF120895E5
:102730009C0180E090E0269F812D369F800D911DA9
:10274000112408959C018230910508F408959FEFAB
:10275000213E8EE1380740F4C90145E09695879502
:102760004A95E1F798E0980F61E0E62FE90FFF271F
:10277000FF1FAF0155954795842F449FF001459F5A
:10278000F00DF00D11242E173F0738F49FEF940F32
:10279000961758F78FEF860F08954F3FE9F361E0E2
:1027A000640FF6CF1F93172F922FE42FF0E0EE0F58
:1027B000FF1FE05BFE4F408124EE429F412D11241C
:1027C000E72FF0E050E09A01245E3F4F291B3109CA
:1027D00037FF03C031952195310993E0220F331F54
:1027E0009A95E1F7E21BF30BF7FF02C0E0E0F0E09F
:1027F0007E2F719F712D11241F910895EF92FF92EA
:102800000F939701201B31092F3F310519F010F06C
:102810002FEF30E0322F3095482F430F08F44FEF61
:10282000842F620F0F91FF90EF900895EF92FF9227
:102830000F939701201B31092F3F310519F010F03C
:102840002FEF30E02095382F320F08F43FEF832F21
:102850000F91FF90EF90089590919603982B90938D
:1028600096030895FC019B01009719F4832F80784B
:102870000895AC0197FF04C044275527481B590B06
:10288000B901640F751F37FD0FC0C901841B950B7B
:10289000A5E0880F991FAA95E1F70E94D62E80E245
:1028A000861BF7FD81950895CB0165E0880F991F80
:1028B0006A95E1F7BA01621B730B0E94D62E80E67F
:1028C000EFCF0F931F93CF93DF93D62F172FC82FE0
:1028D000BA01C901212F201B022F0E943214982F08
:1028E000990F990F782F791B700F719F712D1124FB
:1028F0006D2F8C2FDF91CF911F910F910895FF9233
:102900000F931F93CF93DF93D62FC72F182FBA01A2
:10291000C901F12EF01A0E943214982F990F990FC5
:10292000082F091B0F0D019F012D11246D2F7C2FE6
:10293000802FCDB7DEB7E5E00C94202FEF920F93F8
:102940001F93CF93DF93D62F172FC82FBA01C9013A
:102950000E19010F0E943214702F781B719F712D78
:1029600011246D2F8C2FDF91CF911F910F91EF903C
:10297000089548E050E067E170E08FEF93E00E9437
:10298000692F1092960308950E94941308950E944F
:10299000B9140895EFEFF3E085E08083809164023D
:1029A00090916502A091660281839283A3838FE751
:1029B00084838FEF85830E94B914089580E0089581
:1029C0000F931F93CF93DF93C82FD62F8A010E94B6
:1029D000DE1490E1C99F9001112420503F4FF9016E
:1029E000ED0FF11D90819F3F29F0F801E80FF11DD7
:1029F00090838F5FDF91CF911F910F910895E091A8
:102A0000EE02F091EF0209950895E091EA02F0914B
:102A1000EB0209950895E091EC02F091ED02099521
:102A20000895CF92DF92FF920F931F93CF93DF937E
:102A3000CDB7DEB728970FB6F894DEBF0FBECDBF77
:102A4000182F062FF42E0E94BF0E882309F44CC0C5
:102A5000FF2009F457C0AE014F5F5F4F602F812FF9
:102A60000E94E014F82E0F2D10E080919703800F44
:102A7000912F911D09976CF188E090E06C01C01ACC
:102A8000D10AB80168567C4FA60188E993E00E94FC
:102A90003B2FB80160567C4FA60180EA93E00E946C
:102AA0003B2FA601440F551FB801660F771F6055D5
:102AB0007C4F80EB93E00E943B2FB80168557C4F20
:102AC000A60188EA93E00E943B2F88E08F1980934B
:102AD000970310919703DE01119640E0242F210FF8
:102AE000F41212C02093970328960FB6F894DEBF15
:102AF0000FBECDBFDF91CF911F910F91FF90DF905F
:102B0000CF900895F12CAFCF5D91852F90E030E00C
:102B1000B90169567C4FFC01EE0FFF1FE05BFE4FD1
:102B20000081FB010183880F991FFC01EF5AFE4FC2
:102B30008081FB018187518BF901EE0FFF1FE95660
:102B4000FC4F128E118E4F5FC9CF81E008950E9415
:102B5000A515089591E1899F802D1124980F933533
:102B600008F092E50895A0E0B0E0E9EBF5E10C94FF
:102B7000F92E3C012B01FC0180810E94AA15C82F6F
:102B8000192F6091030466958091070490910804C1
:102B90000E949813F82ED0E0CE01880F991F9C0157
:102BA000205B3E4F6901C11748F081E0123508F003
:102BB00080E0CDB7DEB7E0E10C94152FFE01EC50BC
:102BC000FE4F8081F30191818923882379F1F601F9
:102BD0008081282F2057330B59018181E82FE05243
:102BE000FF0B4F01AA9C9001AB9C300D300D1124BE
:102BF000EE9FC001EF9F900D900D1124820F931F47
:102C00000E94A213082F609100047091010480912A
:102C10000204EF2C9401A501F20109950E94C4144D
:102C2000462F672F282FCE010E940515F2E0CF0E08
:102C3000D11C2196B8CF6EE974E10E94B3150895B6
:102C40008F929F92BF92CF92DF92EF92FF920F935B
:102C50001F93CF93DF936C014B01FC0180810E9495
:102C6000AA15C82F192F6091030466958091070457
:102C7000909108040E949813B82ED0E0CE01880FDE
:102C8000991F9C01205B3E4F7901C11780F081E0C4
:102C9000123508F080E0DF91CF911F910F91FF90E6
:102CA000EF90DF90CF90BF909F908F900895FE019E
:102CB000EC50FE4F8081F601918189238823C1F079
:102CC000F70121812052330B40814057550B609111
:102CD000000470910104809102040B2DF401099508
:102CE0000E94C414462F672F282FCE010E9405157D
:102CF000F2E0EF0EF11C2196C8CF61E674E10E946C
:102D0000201608956FE774E10E9420160895A0E050
:102D1000B0E0EDE8F6E10C94012F7C016B01FC01C1
:102D200080810E94AA15C82F192F6091030466950F
:102D3000669521E0620F08F46FEF8091070490918F
:102D400008040E949813082FD0E0C11748F081E0D2
:102D5000123508F080E0CDB7DEB7E8E00C941D2F07
:102D6000FE01EC50FE4F8081F70191818923882379
:102D700091F0609100047091010480910204202F71
:102D80004C2FF60109950E94C414462F672F282F57
:102D9000CE010E9405152196D8CF62ED73E10E9405
:102DA00087160895AAE0B0E0E8EDF6E10C94F72E5E
:102DB000382E2B0149835A83FB0180810E94AA157A
:102DC0009D83F0910B04FE83282F30E03A872987FA
:102DD000C901880F991FFC01E05BFE4F6F01832D35
:102DE00090E09C012F5F3F4F38872F838D8199851D
:102DF000981748F081E0ED81E23508F080E02A96EE
:102E0000E2E10C94132FE985FA85EC50FE4F8081A6
:102E1000F20191818923882309F1F0910004FB8359
:102E2000209101042C838F819885855F9B4F3C0105
:102E3000232C10E0FE812F16D8F020910204129F5F
:102E4000112D11246B817C81812F0E94C414462F87
:102E5000672F282F89859A850E94051529853A852F
:102E60002F5F3F4F3A87298732E0C30ED11CBECF78
:102E7000F30181913F01F601A080A81ABB0881806F
:102E8000F3018781881A9908AA9C9001AB9C300DA8
:102E9000300D1124889CC001899C900D900D112447
:102EA000820F931F0E94A213082F6091030421E058
:102EB000620F08F46FEFF301EE0FFF1FEB50F440C9
:102EC000858996890E9498137C019401A5016B81E4
:102ED0007C81812FE981FA8109956B837C83182F8E
:102EE0002394A8CFBC0120910B0431E0231B08F4EC
:102EF00020E04EEF53E1822F0E94D2160895BC01CC
:102F000020910B0431E0231B08F420E046E154E15A
:102F1000822F0E94D2160895A0E0B0E0E2E9F7E126
:102F20000C94012F7C01FC0180810E94AA15C82FFE
:102F3000192F6091000470910104809102040E9495
:102F4000C414062FD72EC82ED0E0C11748F081E058
:102F5000123508F080E0CDB7DEB7E8E00C941D2F05
:102F6000FE01EC50FE4F8081F70191818923882377
:102F700031F02C2D402F6D2DCE010E94051521968C
:102F8000E4CFA0E0B0E0E7ECF7E10C94FE2E7C018A
:102F9000FC0180810E94AA15C82F192FD09100042E
:102FA000A0900104B09002046D2F7A2D8B2D0E9409
:102FB000C414062FD72EC82E809103046D2F680FDE
:102FC0007A2D8B2D0E94C414B62EA72E982ED0E0F9
:102FD000C11748F081E0123508F080E0CDB7DEB7C8
:102FE000EBE00C941A2FFE01EC50FE4F9081F7019C
:102FF00081818923882359F0292D4B2D6A2D90FD3D
:1030000003C02C2D402F6D2DCE010E940515219659
:10301000DFCFCF93C82F80914C0291E08C130CC06E
:103020002091FF03237030E040914D0250E091E089
:103030002417350709F490E0917090934B0280912A
:10304000040490914A02981739F080934A0240E0B4
:1030500060E080E00E940B15C93008F056C0EC2FEC
:10306000F0E0E555F04D0C94EA2E80914B02882358
:1030700009F454C040E060E080E00E940B158091AC
:1030800049028F5F8093490282E0809348028091D9
:103090004B02882309F447C0CF91089589E492E058
:1030A0000E948C17909149029F5F90934902811171
:1030B000F3CF82E08093480280914B028111ECCFE4
:1030C000CC23E8CF89E492E00E94C117EBCF89E4DA
:1030D00092E00E94CD16E6CF89E492E00E947D1630
:1030E000E1CF89E492E00E948216DCCF89E492E08D
:1030F0000E941B16D7CF89E492E00E947217D2CFAC
:1031000089E492E00E947F17CDCF809149028F5FC2
:103110008093490282E080934802BECF80914902A9
:103120008F5F8093490283E0F6CF81E008950E948B
:1031300095180895FC01808181500E94AA15692F7D
:103140000E94971808954F925F926F927F928F928C
:103150009F92AF92BF92CF92DF92EF92FF92CF9366
:10316000DF9300D000D0CDB7DEB78091C00390913F
:10317000C103A091C203B091C30389839A83AB8337
:10318000BC83BC01CD010E9436276B017C010E94EB
:103190000A276093C0037093C1038093C203909386
:1031A000C303A0919703E7E9F3E02A2F30E08824D6
:1031B0008A94982CA12CB12C8C189D08AE08BF08BD
:1031C000A3132FC0209397032091C40321113CC067
:1031D0002091FF03A22FA370A983AA2319F026959B
:1031E0002695298320914802223009F455C070F5B4
:1031F000211141C0109249026093070470930804A2
:103200008093090490930A0489E2E7E9F3E0ABE0D4
:10321000B4E001900D928A95E1F781E08093480235
:1032200017C0418D528D2A01612C712C8414950494
:10323000A604B70420F421503F5F3296C1CF4C0D55
:103240005D1D528F418FF8CF1982CCCF233081F191
:103250000F900F900F900F90DF91CF91FF90EF9014
:10326000DF90CF90BF90AF909F908F907F906F90A6
:103270005F904F90089589810E940918B981BB23FE
:1032800039F380914802823011F40E94A71589E435
:1032900092E00E949A18DCCF398130934C028091E1
:1032A000FF03837080934D020E94FF1483E0B6CF2A
:1032B0008091960381110E94B91480910704909126
:1032C0000804A0910904B0910A04BC01CD010E9438
:1032D000362769837A838B839C83603171058105EE
:1032E000910508F4B5CF10924802B2CFE091E80200
:1032F000F091E902099510920B0440E150E06FEF64
:1033000070E084E294E00E94442F1092970340E121
:1033100050E06FEF70E080EB93E00E94442F81E07B
:103320008093960348E050E067E170E08FEF93E010
:103330000E944B2F109296038091FF03843010F46B
:103340000E94CA140895CF93C82F882391F08091CA
:10335000C40381110EC00E94091810924C02809182
:10336000FF03837080934D020E94FF1483E08093DB
:103370004802C093C403CF910895EFEFF3E090812A
:1033800021E092279083109248020E942C14089505
:1033900080E00E94BD19089581E00E94BD19089542
:1033A0008091FF038370811102C0109248028091C6
:1033B000FF038C7F81608093FF0308958091FF035A
:1033C00083708111109248028091FF038C7F80935B
:1033D000FF0308958091FF0383700895982F862F2F
:1033E0002091FF032370222389F0992381F09930E3
:1033F00080F49F73990F990F2091FF032370922BF4
:103400009093FF03109248020E942C14089591E0BB
:10341000F1CF98E0EFCF60E00E94EE19089561E0EF
:103420000E94EE1908958091FF0386958695089570
:10343000682F8091FF03869586958F5F893008F00D
:1034400081E00E94EE19089581E00E94181A089503
:10345000682F9091FF03969596958FEF890F913085
:1034600009F488E00E94EE19089581E00E94281A6C
:103470000895982F822F2091FF032370222359F063
:1034800090930004609301044E3708F04DE7409399
:1034900002040E942C14089520E00E94391A089515
:1034A00080910004089580910104089580910204A0
:1034B0000895282FEFEFF3E09181892F90E0438169
:1034C000628108960E94391A089581E00E94591A73
:1034D0000895282FEFEFF3E08181438162818850C6
:1034E000990B0E94391A089581E00E94691A089583
:1034F000282FEFEFF3E0628130E1630F08F46FEF04
:103500008181438190E00E94391A089581E00E94F0
:10351000781A0895282FEFEFF3E0628130E1631B02
:1035200008F460E08181438190E00E94391A089597
:1035300081E00E948A1A0895282FEFEFF3E043817B
:1035400030E1430F08F44FEF8181628190E00E94E7
:10355000391A089581E00E949C1A0895282FEFEFF0
:10356000F3E0438130E1431B08F440E08181628154
:1035700090E00E94391A089581E00E94AE1A0895E1
:103580008093030480E00E942C140895809103042A
:103590000895EFEFF3E0248130E1230F08F42FEFDB
:1035A00024830E942C14089581E00E94C91A089572
:1035B000EFEFF3E0248130E1231B08F420E02483C3
:1035C0000E942C14089581E00E94D81A0895CF9388
:1035D000DF93DC01FC01EE0FFF1FEF01CA0FDB1FC1
:1035E000CC5CDB4F8981861306C08881841303C0BD
:1035F0008A81821751F081E08093C503EA0FFB1F97
:10360000EC5CFB4F618340832283DF91CF9108956F
:10361000FF920F931F93CF93DF93182F062FF42E53
:10362000C0E0D0E02F2D402F612FCE010E94E71A7D
:103630002196C235D105B1F7CDB7DEB7E5E00C94E0
:10364000202F8091C503882341F062E570E084E378
:1036500094E00E94931B1092C50308950E94911B51
:103660001092C5030895FA01882311F00995089571
:10367000FB01FCCF1F93CF93DF93EC01FB0115817E
:1036800011114DC00E94D20C8272FE01E052F84727
:10369000E531F10508F043C0EC54F04D0C94EA2EEE
:1036A0000E94CC19812FDF91CF911F91089545E39E
:1036B0005AE164E27AE10E94331BF4CF44E25AE11A
:1036C00065E37AE1F8CF44E75AE165E67AE1F3CFC2
:1036D00045E65AE164E77AE1EECF48E95AE166E867
:1036E0007AE1E9CF46E85AE168E97AE1E4CF4CEBC8
:1036F0005AE16AEA7AE1DFCF4AEA5AE16CEB7AE111
:10370000DACF43EE5AE164ED7AE1D5CF44ED5AE1E8
:1037100063EE7AE1D0CF81E00E940F1AC3CF11E0AF
:10372000C1CF279A08959C01AB0165B16F7775B140
:103730007068EFB7F894CA01880F991F840F951F1E
:10374000820F931F8217930741F4EFBF8FE594E038
:103750000197F1F700C000000895D9014D919D0136
:1037600058E075B9000000C047FF65B9440F00007C
:1037700000C000C000C065B900C05A9591F7E2CF03
:103780000E94C90D089580E00E94981181700895EB
:103790000E9461122FEF86E791E021508040904017
:1037A000E1F700C000000E9461120E94C31B882341
:1037B00021F00E94C01B0E947A2708950E94C81B16
:1037C000089584E0089590E2699FB001112450E0CB
:1037D000440F551F640F751F90EA899F600D711D7E
:1037E0001124CB01889608950F931F93CF93DF93F5
:1037F0008430C8F46530B8F44031A8F40E94E31B6B
:103800008C010E945B2FC82FD0E0DC2FCC27C80191
:1038100001960E945B2F9E01282BC901DF91CF9159
:103820001F910F91089580E090E0F8CF0F931F93C0
:10383000CF93DF93122F032F843078F4653068F430
:10384000403158F40E94E31BEC01602F0E94792F55
:10385000612FCE0101960E94792FDF91CF911F91A8
:103860000F9108951F93CF93DF93D0E0C0E011C074
:10387000412F6C2F8D2F0E9470039C01412F6C2FC4
:103880008D2F0E94161C1F5F103191F7CF5FC5303E
:1038900011F010E0EDCFDF5FD43041F7DF91CF9131
:1038A0001F910895EF92FF920F931F93CF93DF9391
:1038B0008C01EA017A01E60EF71ECE15DF0529F428
:1038C000CDB7DEB7E6E00C941F2F003882E0180772
:1038D00040F4C80188960E945B2F89930F5F1F4FA9
:1038E000ECCF80E0FACFEF92FF920F931F93CF932C
:1038F000DF938C01EA017A01E60EF71ECE15DF0593
:1039000029F4CDB7DEB7E6E00C941F2F003882E033
:10391000180728F46881C80188960E94792F21969B
:103920000F5F1F4FEBCF843038F4653028F44031FF
:1039300018F40E94F41B089580E090E0089580E15F
:10394000089588E591E00895EF92FF920F931F93F9
:10395000CF93DF938C01EA017A01E60EF71ECE15B4
:10396000DF0529F4CDB7DEB7E6E00C941F2F08354C
:1039700081E0180748F4C80188559D4F0E945B2FCD
:1039800089930F5F1F4FEBCF80E0FACFEF92FF924A
:103990000F931F93CF93DF938C01EA017A01E60E18
:1039A000F71ECE15DF0529F4CDB7DEB7E6E00C949F
:1039B0001F2F083581E0180730F46881C801885549
:1039C0009D4F0E94792F21960F5F1F4FEACFCF9313
:1039D000DF93C8EAD2E060E0CE010E94792F219601
:1039E000C11584E0D807B9F7DF91CF910895A8E019
:1039F000B0E0EDEFFCE10C94012FF82E2FE028173A
:103A000008F46FC08FEF93E00E945B2F811169C0B3
:103A100008EA12E0F11038C01A821982FE013396CA
:103A200086E0DF011D928A95E9F76801BFEFCB1AA6
:103A3000DB0AC8010E945B2F89831A82882309F45C
:103A400050C08130D1F4780122E0E20EF11CC601B1
:103A50000E945B2F8A83882309F443C09FEF980F4D
:103A60009330F8F4680183E0C80ED11CC7010E94AE
:103A70005B2F8B838823A9F11C8260E0CE01019625
:103A80000E94A1218601D1CF011584E0180749F1D8
:103A9000C8010E945B2F0F5F1F4F8111F5CFFA9471
:103AA000B9CF8430B9F402E010E0C701AFEFEA1AF1
:103AB000FA0A0E945B2FE1E0F0E0EC0FFD1FE00F3F
:103AC000F11F8083882369F08C3731F4FE01E00F09
:103AD000F11F12826701D1CF0F5F1F4F0730110511
:103AE00021F72896E8E00C941D2FCF93DF93EB018C
:103AF00086319C4719F50E94D20C9D819923A1F033
:103B00008A7A91E0811101C090E09093C6038823E6
:103B100049F085E30E9414260E94650D80E0DF9144
:103B2000CF91089589E2F6CF8091C603882321F0D2
:103B300085E30E941C26F0CF89E2FBCF81E0EFCF26
:103B4000CF93DF93EC01FB018581882309F4D2C078
:103B50009E0130572332310508F0B2C00E94E60DB5
:103B60009093EA038093E903FE01E150F047E232CB
:103B7000F10520F4E753F04D0C94EA2E8091E9030F
:103B800081608093E90393C08091EA038860809309
:103B9000EA038DC08091E9038260F3CF8091E9034D
:103BA0008460EFCF8091E9038860EBCF8091EA03D6
:103BB0008160EDCF8091EA038260E9CF8091E903D3
:103BC0008061DFCF8091E9038062DBCF8091E903E0
:103BD0008064D7CF0E9468088091E9038068D1CFC4
:103BE0008091E9038C60CDCF8091EA038360CFCFD1
:103BF0008091E9038E7FC5CF8091EA03877FC7CF8D
:103C00008091E9038D7FBDCF8091E9038B7FB9CF90
:103C10008091E903877FB5CF8091EA038E7FB7CF8C
:103C20008091EA038D7FB3CF8091E9038F7EA9CF86
:103C30008091E9038F7DA5CF8091E9038F7BA1CF90
:103C40000E9468088091E9038F779BCF8091E903F8
:103C5000837F97CF8091EA038C7F99CF8091E9038E
:103C600082FB992790F921E0922790FB82F990FB43
:103C700083F987CF8091EA03982F909591708E7F7A
:103C8000892B90FB81F983CF9091E903892F8F7B5A
:103C900096FF806476CF0E9468089091E903892F8F
:103CA00097FB87F980586DCF81E00E94710E80915B
:103CB000E9039091EA030E94EB0D0E94680880E0FE
:103CC000DF91CF91089580E0F0CF9091E903892FA3
:103CD0008F7E94FF806155CF9091E903892F8E7F6D
:103CE00090FF81604ECF9091EA03892F877F93FFE9
:103CF00088604DCF81E0E4CF282F35EB2303C0014E
:103D0000112497FF04C080589109892F0895805885
:103D10009F4FFBCF8091CD0380FF0DC06091530278
:103D200070E0660F771F60387105C0F56115710589
:103D3000B9F1862F089581FF07C06091530284E096
:103D4000689FB0011124EFCF82FF04C0609153023D
:103D500088E0F6CF8091CC038823E9F0909152025D
:103D60006091530270E0891730F093E0660F771F7F
:103D70009A95E1F7D8CF869F9001879F300D112447
:103D800083E0220F331F8A95E1F7692F70E0C901A4
:103D90000E94D62EC8CF68E070E0CBCF8FE70895A1
:103DA00081E008958091CD0380FF0CC060914F02A7
:103DB00070E075956795759567956115710561F169
:103DC000862F089581FF06C060914F0270E07595BF
:103DD0006795F3CF60914F0270E082FD15C020918E
:103DE000CB032223B1F090914E0260914F0270E01C
:103DF000291750F4269FA001279F500D1124692FE9
:103E000070E0CA010E94D62E60387105B0F28FE7CB
:103E1000089561E070E0D4CF81E00895E3E3E80F16
:103E2000E331E0F5F0E0E551F04D0C94EA2E0E940C
:103E30008A1E81958093D10308950E948A1EFACF2D
:103E40000E948A1E81958093D00308950E948A1E45
:103E5000FACF0E94D21E8093D20308950E94D21EF0
:103E60008195F9CF0E94D21E81958093D303089546
:103E70000E94D21EFACF815D990B21E030E001C093
:103E8000220F8A95EAF78091CF03822B8093CF038C
:103E900008958091CD0381608093CD030895809132
:103EA000CD038260F9CF8091CD038460F5CF40913E
:103EB000D0038D3C59F48091D10387FF0DC010923F
:103EC000D103442359F41092CC0308C08E3C81F4F2
:103ED0008091D10318169CF3442381F08091D20382
:103EE0009091D303892B811159C01092CB0308956F
:103EF0008F3C41F447FFF0CF1092D0038091D10363
:103F00008823E0CF803D19F41416B4F3E5CF9091E7
:103F1000D203893D29F41916FCF61092D203DCCFA6
:103F20008A3D19F497FFD8CFF8CF9091D3038B3DFA
:103F300029F497FFD1CF1092D303CECF8C3D19F443
:103F40001916CCF3C9CF9FE2980F983090F4815D99
:103F5000990B21E030E0B90102C0660F771F8A9506
:103F6000E2F7CB0180959091CF0389238093CF0313
:103F7000B3CF8D3D31F48091CD038E7F8093CD03FF
:103F8000ABCF8E3D21F48091CD038D7FF7CF8F3D58
:103F900009F0A2CF8091CD038B7FF0CF08950E94CE
:103FA000FE262091D0033091D103232B222321F030
:103FB0008093C9039093CA032091D2033091D30315
:103FC000232B222321F08093C7039093C8038EEC08
:103FD00093E00E946825089586E0EEECF3E0DF01AF
:103FE0001D928A95E9F71092CC031092CB031092A0
:103FF000CD030895FC01828181110DC0838181115F
:104000000AC08481811107C081E09581911101C0AE
:1040100080E08170089581E0FCCFA6E0B0E0E3E1AC
:10402000F0E20C94042F86E0EEECF3E09E012F5FAB
:104030003F4FD90101900D928A95E1F71092D0037C
:104040001092D1031092D2031092D3038B819C81E2
:10405000892B8901882391F08091C9039091CA032B
:104060000E9427279C018091CC038823C9F14091AD
:10407000540250E04217530708F43FC08D819E81DF
:10408000892B882399F08091C7039091C8030E94DF
:1040900027279C018091CB03882309F467C04091B6
:1040A000500250E04217530708F46EC0B8018EEC7E
:1040B00093E00E942F26811105C08EEC93E00E94B0
:1040C000FA1F81110E94CF1F86E0F801AEECB3E029
:1040D00001900D928A95E1F72696E5E00C94202F49
:1040E000409155029AE0499FA001112442175307BD
:1040F00028F68F5F8093CC0302C08F3FD1F7FB80FF
:10410000FF2059F00E948A1E91E01F140CF09FEFCF
:10411000899F802D11248093D003FC80FF2059F0CB
:104120000E948A1E91E01F140CF09FEF899F802D42
:1041300011248093D1038091D003882309F49ECF6A
:10414000F090D103FF2009F499CF0E947C1E8111C9
:1041500001C081E08093D0038F2D0E947C1E8823B4
:1041600019F08093D1038ACF81E0FBCF40915102B7
:104170009AE0499FA00111244217530708F096CFF7
:104180008F5F8093CB0302C08F3FD1F7FD80FF206C
:1041900059F00E94D21E91E01F140CF09FEF899FEE
:1041A000802D11248093D203FE80FF2059F00E94BD
:1041B000D21E91E01F140CF09FEF899F802D1124D7
:1041C0008093D3038091D203882309F46FCFF090BA
:1041D000D303FF2009F46ACF0E947C1E811101C025
:1041E00081E08093D2038F2D0E947C1E882319F0DA
:1041F0008093D3035BCF81E0FBCFA0E0B0E0E3E0AE
:10420000F1E20C94002FE82FF0E0E45DFB4FB49056
:10421000282F26952695269530E0F901E453FB4F8B
:104220000491877010E0082E02C0159507950A9436
:10423000E2F701701127F901E454FB4FE490F12CEF
:10424000082E02C0F594E7940A94E2F791E0E9227F
:10425000FF24F901E455FB4FC491D0E002C0D5958D
:10426000C7958A95E2F7C170DD27C62ED12C0115BE
:10427000110549F5E114F10431F086EE0E940D05B7
:10428000C601009771F5B6018B2D0E94F405C60199
:10429000009779F5E114F104A1F50115110531F04C
:1042A00081EE0E949A05C6010097C9F5CD2B31F029
:1042B0008CE20E940C06C114D104C9F5CDB7DEB75B
:1042C000E9E00C941C2F81EE0E940D05C6010097B9
:1042D00089F2EFE9FFE03197F1F700C000000197A4
:1042E000F6CFEFE9FFE03197F1F700C0000001974A
:1042F000C8CFEFE9FFE03197F1F700C00000019768
:10430000C7CF86EE0E949A05C601009731F2EFE909
:10431000FFE03197F1F700C000000197F6CFEFE919
:10432000FFE03197F1F700C000000197BDCF8FE9A2
:104330009FE00197F1F700C0000091E0C91AD10891
:10434000BACFEF92FF921F93CF93DF93EC01162F1A
:104350008881882309F45AC0813009F053C08981CB
:10436000813071F47E0182E0E80EF11C8A810E94A6
:104370000C06E701812F90E00097E1F52196E8CF48
:10438000823041F47E01E2E0EE0EF11C8A810E944F
:104390000D05EFCF833041F47E01F2E0EF0EF11C0A
:1043A0008A810E949A05E5CF843011F02196E2CFF0
:1043B0002A81229680E090E06AE0AE014F5F5F4F75
:1043C0002053330B2A30310550F0009799F2EFE972
:1043D000FFE03197F1F700C000000197F6CF689F2A
:1043E000F001699FF00D1124C9018E0F9F1F2981D3
:1043F000EA01E3CFEFE9FFE03197F1F700C00000F9
:104400000197BACF612F0E94FD20B8CFDF91CF91E5
:104410001F91FF90EF9008950F931F93CF93DF9319
:10442000C42FD22FFC0185818823C9F04093D60385
:104430000E94FE269093D5038093D40380E28C0FD4
:10444000883040F4C77081E001C0880FCA95EAF750
:104450000E941506DF91CF911F910F910895109141
:10446000D60314133CC08091D4039091D5030E94CD
:104470002727883C910598F5C0E2CD0F1D1741F123
:1044800080E2810F883040F4177081E001C0880F0E
:104490001A95EAF70E941C06C83020F0802F0E946F
:1044A0000C06D8CF91E08D2F877001C0990F8A95A7
:1044B000EAF7892F0E941506802F0E940C06D770FC
:1044C00081E001C0880FDA95EAF70E941C06C2CF8E
:1044D000802F0E940C06C83008F0BCCFF0CF80E2DD
:1044E0008C0F883008F0B6CFC77081E001C0880F0C
:1044F000CA95EAF7EACF0F93FC01CB01E851FC47DC
:10450000E730F10590F5E250F04D0C94EA2E06E20A
:1045100021EE41EE6AE17CE70E940C2280E00F91DF
:10452000089507E225EE45EE6BE17CE7F5CF06E264
:1045300021EE40EE68E17CE7EFCF07E225EE44EEA6
:1045400069E17CE7E9CF06E221EE42EE6CE17CE72F
:10455000E3CF07E225EE46EE6DE17CE7DDCF08E232
:1045600021E045EE6EE17CE7D7CFFB01858181112B
:104570001092D60381E0D3CFCF93DF939C01FB0150
:1045800027378CE7380739F028373C47F1F081E0CE
:10459000DF91CF9108958581882391F00E94EE22CA
:1045A0000E94E2080E94F422D82F0E94F122C82F14
:1045B0000E94EE224D2F6C2F0E94130A80E0E8CF5C
:1045C0000E94EE220E94EE08EDCF8581882319F02B
:1045D0000E94F122E5CF0E94F122F4CF809158028F
:1045E000089580915702089580915602089584E2BB
:1045F00090E00E945B2F843289F485E290E00E9473
:104600005B2F893059F486E290E00E945B2F91E0A5
:10461000893209F090E0892F8170089580E0FCCF05
:10462000882381F064E284E290E00E94792F69E0BF
:1046300085E290E00E94792F69E286E290E00E9494
:10464000792F08956FEF84E290E00E94792F6FEF49
:1046500085E290E00E94792F6FEFEFCF0895A4E0FC
:10466000B0E0E5E3F3E20C94072F87E290E00E94CC
:104670005B2F282F30E040E050E0CA01B9012496BA
:10468000E2E00C94232F0895CF93C62F0E9443237A
:104690006C2F87E290E00E94792FCF91089580E0FF
:1046A0000E94102360E070E0CB010E9444230E942E
:1046B000321C0E94E71C81E00E94102308950E9492
:1046C0002E230E942F230E9443230E94F722811150
:1046D00002C00E944F2308950E94C81908959C01AA
:1046E000FB018581882351F0A901575740385105B6
:1046F00030F4822F0E94F71C80E0089581E0089535
:104700002FEFFC012083089580E00895CF93DF937D
:10471000EC018881833021F138F4813071F08230EE
:10472000C1F0DF91CF9108958430D9F70E94501ADB
:1047300089830E94531A8A83F4CF0E94561A2FEF5E
:10474000829FC00111246DE770E00E94C22E698330
:10475000E8CF0E94EA1981110E94131A8983E1CFE0
:104760000E94C61AFBCF1F93CF93DF93EC01888181
:10477000833069F140F4813071F08230E1F0DF91F3
:10478000CF911F9108958430D1F70E94561A482F77
:1047900089816A810CC019812DE7129F112D112486
:1047A0000E94531AC82F0E94501A412F6C2F90E07C
:1047B0000E944C1AE4CF8981811103C00E94DE1946
:1047C000DECF0E94D01989810E940B1AD8CF89812F
:1047D0000E94C01AD4CFFC019C012E5F3F4F9081F4
:1047E000983041F0993051F0973059F4C9010E9446
:1047F000B3230895C9010E94862308950E94C71417
:1048000008958FEF80830895FC012181233019F4EE
:104810000E94EB2308950E9480230895CF92DF9297
:10482000FF920F931F93CF93DF93CDB7DEB72E97F1
:104830000FB6F894DEBF0FBECDBF8D839E83F62EDC
:104840008D819E810E948423811115C0AD81BE811E
:10485000EC91E150E33140F5F0E0EB5FFF4C0C945C
:10486000EA2EED81FE8111828CE082836F2D8D8195
:104870009E810E94F6272E960FB6F894DEBF0FBEDB
:10488000CDBFDF91CF911F910F91FF90DF90CF901F
:104890000895AD81BE8111968C91833099F148F4D1
:1048A000813081F08230E9F08FEFAD81BE818C9351
:1048B000DDCF8430C9F7ED81FE811282138214822C
:1048C0001582D4CF0E940A270E94F02E6F8378872A
:1048D00089879A87ED81FE816283738384839583C0
:1048E000C5CF0E942F230E94F02E6B877C878D8777
:1048F0009E87AD81BE8112966D937D938D939C931F
:104900001597B4CFED81FE81028110E06F01B2E016
:10491000CB0ED11C053011050CF0A8CF802F0E94C2
:104920009811D60111969C93119712968C930F5F54
:104930001F4FEDCFED81FE818181823049F08530BE
:1049400009F0B2CFED81FE8182810E946C238ECF6F
:10495000AD81BE8112968D919D910D90BC91A02D3F
:1049600089839A83AB83BC83BC01CD010E94F02E66
:104970000E9444237BCFAD81BE8113964C91139747
:1049800012966C91129711968C910E94F41B9827A5
:1049900089279827ED81FE819583848367CFAD8138
:1049A000BE8114962D913C911597322723273227EB
:1049B00013964C91139712966C91129711968C91B5
:1049C0000E94161C53CF0E94321C50CF6F2D8D8138
:1049D0009E810E9404244ACF0E949F1CED81FE818B
:1049E000818344CF0E94A11C982789279827AD81F5
:1049F000BE8112969C938E93119738CFED81FE81E4
:104A0000638170E081819281AF014C5F5F4F982795
:104A1000892798270E94A41C29CFAD81BE811396B7
:104A20006C91139770E011968D919C911297AD0146
:104A30004C5F5F4F9827892798270E94C61C16CF86
:104A40000E94E71C13CF0E94E11BC8CFAD81BE813D
:104A500013966C91139770E011968D919C9112971B
:104A6000AD014C5F5F4F9827892798270E94521C01
:104A7000FDCEED81FE81638170E081819281AF0185
:104A80004C5F5F4F9827892798270E94731CEECEB2
:104A90009093DC038093DB030895E091DB03F091B6
:104AA000DC03309729F00190F081E02D09950895FD
:104AB00080E008950E944D250895E091DB03F09178
:104AC000DC03309721F00280F381E02D09950895F1
:104AD000DC01E091DB03F091DC03309739F082E0F8
:104AE0008C930680F781E02DCD0109950895A3E010
:104AF000B0E0EDE7F5E20C94072F9C018091D9031B
:104B00009091DA0382179307A1F03093DA03209390
:104B1000D903E091DB03F091DC03309751F083E09F
:104B200089833B832A830084F185E02DCE010196A1
:104B300009952396E2E00C94232FA3E0B0E0E3EA8A
:104B4000F5E20C94072F9C018091D7039091D80334
:104B500082179307A1F03093D8032093D703E091F5
:104B6000DB03F091DC03309751F084E089833B83D1
:104B70002A830084F185E02DCE01019609952396C4
:104B8000E2E00C94232F40914602509147029A0193
:104B90002E5F3F4F485F5F4F80E0F90190812F5FAC
:104BA0003F4F91118F5F42175307B9F7089588233C
:104BB00071F02091460230914702F9013296285F48
:104BC0003F4F9191981729F0E217F307D1F780E052
:104BD000089581E008959C01FC0132968FEF90E0EA
:104BE0004191461751F08F3F19F4411101C0892FAF
:104BF0009F5F9630A9F78F3F09F40895280F311D64
:104C000087FD3A95F901628308959C01FC01329673
:104C1000285F3F4F8191861303C0DF0111971C92DB
:104C2000E217F307B9F70895682F80914602909133
:104C300047020E94EB250895682F809146029091CB
:104C400047020E9405260895E0914602F09147022E
:104C5000329686E0DF011D928A95E9F70895DC011E
:104C6000FB0111969C9111978181981322C0129695
:104C70008C911297882319F0928189131AC0139688
:104C80008C911397882319F09381891312C015967C
:104C90008C911597882319F0958189130AC0149671
:104CA0009C91992321F081E02481291303C080E0A5
:104CB00001C081E08170089508950E945C260895E6
:104CC0008F5F8093DD030E945D26089583E08093CB
:104CD000DD030E945D2608950E946026089581E00C
:104CE0008093DD030E945D2608950E946F2608953B
:104CF000089508950E9479260895089508950E94C0
:104D000078260895CF930E947D260E9461120E940A
:104D10007E26C0E08C2F0E949811892B31F4CF5F42
:104D2000C530C1F780E0CF91089581E0FCCF85B711
:104D3000806885BF85B7806885BF08951F921FB6BC
:104D40001F9211248F939F93AF93BF938091DE03A3
:104D5000811113C080912A0590912B05A0912C05FB
:104D6000B0912D054196A11DB11D80932A05909308
:104D70002B05A0932C05B0932D05BF91AF919F916A
:104D80008F911F901FBE1F9018958091320584301F
:104D900031F10E9480041092DE0388E190E020E46B
:104DA0000FB6F894A895809360000FBE2093600022
:104DB00083B7817F846083BF83B7816083BF78942A
:104DC000889583B78E7F83BF0FB6F894A89580919E
:104DD0006000886180936000109260000FBE0895AB
:104DE0000E9468080E948A04089582E084BD93E0CE
:104DF00095BD9AEF97BD80936E0008952FB7F894F4
:104E000080912A0590912B05A0912C05B0912D053C
:104E10002FBF0895A4E0B0E0E0E1F7E20C94072F83
:104E20008FB7F89420912A0530912B0540912C05DD
:104E300050912D0529833A834B835C838FBF698111
:104E40007A818B819C812496E2E00C94232F9C0133
:104E50004FB7F89480912A0590912B05A0912C05CD
:104E6000B0912D054FBF821B930B0895A4E0B0E0D5
:104E7000ECE3F7E20C94052F462F572FBC012FB718
:104E8000F89480912A0590912B05A0912C05B09162
:104E90002D052FBF8C019D01041B150B260B370B15
:104EA000C901B8012496E4E00C94212F78941F9254
:104EB0001FB61F9211248F939F93AF93BF9380913E
:104EC0002A0590912B05A0912C05B0912D050196F6
:104ED000A11DB11D80932A0590932B05A0932C054D
:104EE000B0932D05BF91AF919F918F911F901FBEE1
:104EF0001F90189581E08093E00080E28093D800B5
:104F00001092C9008FE19EE40197F1F700C0000004
:104F100087E090EBDC0180933B0590933C05A093E8
:104F20003D05B0933E0588E19CE00FB6F894A89546
:104F3000809360000FBE90936000FFCF88E19CE0FB
:104F40000FB6F894A895809360000FBE9093600010
:104F5000FFCF8091E70308950895282FCB01BA0170
:104F6000309132053430E1F42F702093E9002FEFB7
:104F70003091E80035FD07C035ED3A95F1F70000B6
:104F800021502111F5CF2091E80025FF09C040E014
:104F900050E00E94F1298091E8008E778093E8002C
:104FA0000895BC0143E050E084E00E94AD270895DD
:104FB000BC0146E050E084E00E94AD270895CF9305
:104FC000DF93D82FC92F48E050E0682F792F81E078
:104FD0000E94AD2788E0ED2FFC2FAFEDB3E00190EC
:104FE0000D928A95E1F7DF91CF910895792F603284
:104FF00031F440E250E0682F82E00E94AD2708952E
:10500000A0E2B0E0E6E0F8E20C94072F80913205D0
:10501000843081F483E08093E9008091E80082FF8E
:1050200009C08091E80085FD09C08091E8008B7778
:105030008093E800A096E2E00C94232F40E050E03B
:1050400060E270E0CE0101960E94402A8091E80063
:105050008B778093E80060E2CE0101960E940E24D7
:10506000E9CF80913105811109C00E94C82B0E94AF
:10507000252C8091E20084608093E20008951092D4
:10508000310508950E946F26089560912E0581E0F4
:10509000611101C080E00E9466260895909132055A
:1050A00081E0943009F080E060912E050E946C262A
:1050B000089542E061EC81E00E94442B42E261EC01
:1050C00084E00E94442B42E261EC82E00E94442B87
:1050D00042E260EC83E00E94442B9091320581E033
:1050E000943009F080E060912E050E9460260895BA
:1050F00080913405893089F148F4823009F4A1C0E7
:10510000833009F45BC0813041F008958A3009F49E
:1051100088C08B3009F46DC0089580913305813AC1
:1051200009F04BC08091E800877F8093E800809170
:10513000370590913805892B61F060E080E090E0C0
:1051400070E00E948F2A8091E8008B778093E800BE
:10515000089568E08FED93E0F3CF809133058132BD
:1051600061F580913705909138058D7F892B29F560
:105170008091E800877F8093E8008091E80082FFBB
:1051800018C09091F3008091F200029731F4809161
:10519000F100813011F0863021F48091F10080938C
:1051A000E7038091E8008B778093E8000E94782BDA
:1051B00004C0809132058111E0CF089580913305BC
:1051C000813AD9F78091370590913805892BA9F755
:1051D0008091E800877F8093E8008091E80080FF5D
:1051E000FCCF809163028093F1008091E8008E777C
:1051F000DBCF80913305813201F7809137059091A3
:105200003805892BD1F68091E800877F8093E800EC
:105210000E94782B80913505809363020E94680874
:10522000089580913305813241F68091E800877FAF
:105230008093E8000E94782B809136058093E803E4
:10524000089580913305813A09F0B7CF8091E80045
:10525000877F8093E8008091E80080FFFCCF8091F9
:10526000E803C1CF84B7877F84BF0FB6F894A895B1
:1052700080916000886180936000109260000FBE92
:1052800080E890E00FB6F8948093610090936100FD
:105290000FBE0E94752608950E94C82B0E94252CDF
:1052A000E2EEF0E080818460808378940E94A82EF2
:1052B000089589E592E00E9448250895809132057D
:1052C000853031F480913205853019F00E94F02646
:1052D00008950E94C5260E948226882399F3809112
:1052E0003005882379F30E94DB290E946808EACF01
:1052F00008959A014091390550913A050E948129FB
:105300000895AC01CB01D901252F33272330310576
:1053100021F168F42130310509F443C02230310510
:1053200009F444C080E090E020E030E024C0213265
:10533000310551F122323105A9F78330910590F7FB
:10534000FC01EE0FFF1FED50FD4F20813181805198
:105350009D4FFC01808190E00EC0CA019927413029
:1053600069F08230910569F0EAE1F5E0892BD1F628
:10537000849190E09F012D933C930895E4E0F5E043
:10538000F7CFECEDF4E0F4CF8330910558F6FC0153
:10539000EE0FFF1FE750FD4F2081318189E090E043
:1053A000EACF82E190E029E735E0E5CF8BE590E0B8
:1053B0002EE135E0E0CF80E189BD82E189BD09B40D
:1053C00000FEFDCF8091D8008F7D8093D800809122
:1053D000E00082608093E0008091E00081FDFCCFDE
:1053E0000895AF92BF92CF92DF92FF920F931F93D7
:1053F000CF93DF936C01EB018A010E94972BF82E6B
:10540000811123C00115110539F0F80180819181C6
:10541000C81BD90BC80ED91EA12CB12C2097A9F0FE
:105420008091E80085FD22C08091E8008E7780930E
:10543000E80001151105A1F0F801808191818A0D24
:105440009B1D9183808385E0F82E8F2DDF91CF9176
:105450001F910F91FF90DF90CF90BF90AF90089574
:105460000E94972B8823E1F2F82EEFCFF60181916D
:105470006F018093F1002197FFEFAF1ABF0ACECFE3
:10548000AF92BF92CF92DF92FF920F931F93CF9371
:10549000DF936C01EB018A010E94972BF82E81119A
:1054A00023C00115110539F0F80180819181C81BD5
:1054B000D90BC80ED91EA12CB12C2097A9F0809130
:1054C000E80085FD22C08091E8008B778093E8009A
:1054D00001151105A1F0F801808191818A0D9B1DB4
:1054E0009183808385E0F82E8F2DDF91CF911F91DE
:1054F0000F91FF90DF90CF90BF90AF9008950E94E2
:10550000972B8823E1F2F82EEFCF8091F100F6017E
:1055100081936F012197FFEFAF1ABF0ACECFFC0135
:105520009B018091390590913A058617970718F0ED
:10553000672B61F0C90140E0009771F441110CC084
:105540008091E80082FF35C080E008958091E800F6
:105550008E778093E800EECF209132052223A9F1C7
:105560002530A9F12091E80023FD2DC02091E8000D
:1055700022FDE6CF2091E80020FFDECF3091F3003E
:105580002091F200009719F02830310558F041E0E1
:105590002830310509F040E02091E8002E77209373
:1055A000E800CACF41914093F10001972F5F3F4F30
:1055B000E9CF80913205882341F0853041F0809118
:1055C000E80083FFBDCF81E0089582E0089583E085
:1055D0000895FC019B018091390590913A05861749
:1055E000970718F0672B61F0C90140E0009771F44C
:1055F00041110CC08091E80082FF36C080E0089520
:105600008091E8008E778093E800EECF20913205FC
:105610002223B1F12530B1F12091E80023FD2EC005
:105620002091E80022FDE6CF2091E80020FFDECFA8
:105630003091F3002091F200009719F028303105E5
:1056400058F041E02830310509F040E02091E800B1
:105650002E772093E800CACF44914093F100319611
:1056600001972F5F3F4FE8CF80913205882341F0AB
:10567000853041F08091E80083FFBCCF81E0089540
:1056800082E0089583E00895982F973028F08F7076
:105690008093E90081E008959093E900242F762F0C
:1056A00050E0981731F07091EC002091ED0050918E
:1056B000F00021FD02C09F5FE8CF3091EB003E7FFC
:1056C0003093EB003091ED003D7F3093ED00309151
:1056D000EB0031603093EB007093EC002093ED0011
:1056E0005093F0002091EE0027FDE5CF80E0089573
:1056F0008091330587FF13C08091E80082FF06C0C8
:105700008091E8008B778093E80004C08091320597
:105710008111F2CF0895809132058823D9F38091C9
:10572000E80080FFF8CF8091E8008E77ECCF2091E1
:10573000E4003091E50095E6A9018091EC008170CC
:10574000882331F08091E80080FF06C080E0089552
:105750002091E80022FD1BC080913205882391F042
:10576000853091F08091EB0085FD10C02091E40020
:105770003091E5004217530701F391509111DCCFAE
:1057800084E0089582E0089583E0089581E008951B
:105790000E94372C0E943F2CE0EEF0E08081816077
:1057A0008083E8EDF0E080818F77808319BCA7EDDE
:1057B000B0E08C918E7F8C9380818F7E808310925D
:1057C000310508950F931F93CF93DF930E94372CD9
:1057D0000E943F2CC8EDD0E088818F778883888134
:1057E0008068888388818F7D888319BC10923205F8
:1057F00010922E051092300510922F0500EE10E049
:10580000F80180818B7F808388818160888342E07A
:1058100060E080E00E94442BE1EEF0E080818E7F2A
:105820008083E2EEF0E08081816080838081886007
:105830008083F80180818E7F808388818061888366
:10584000DF91CF911F910F910895E8EDF0E08081F5
:105850008F7E8083E7EDF0E080818160808384E04B
:1058600082BF81E0809331050E94E22B0895E8ED2C
:10587000F0E080818E7F80831092E2000895109284
:10588000DA001092E10008951F920F920FB60F9266
:1058900011242F933F934F935F936F937F938F9335
:1058A0009F93AF93BF93EF93FF938091E10082FFAB
:1058B0000BC08091E20082FF07C08091E1008B7FE6
:1058C0008093E1000E94A72E8091DA0080FF19C02A
:1058D0008091D80080FF15C08091DA008E7F809380
:1058E000DA008091D90080FF94C080E189BD82E117
:1058F00089BD09B400FEFDCF81E0809332050E948E
:1059000031288091E10080FF19C08091E20080FF82
:1059100015C08091E2008E7F8093E2008091E200CA
:1059200080618093E2008091D80080628093D800EB
:1059300019BC85E0809332050E9445288091E100E2
:1059400084FF29C08091E20084FF25C080E189BDE9
:1059500082E189BD09B400FEFDCF8091D8008F7D22
:105960008093D8008091E1008F7E8093E100809148
:10597000E2008F7E8093E2008091E200816080935C
:10598000E20080912E05882309F449C084E08093C9
:1059900032050E944E288091E10083FF29C080914A
:1059A000E20083FF25C08091E100877F8093E100C2
:1059B00082E08093320510922E058091E1008E7F67
:1059C0008093E1008091E2008E7F8093E2008091DD
:1059D000E20080618093E20042E060E080E00E94AB
:1059E000442B8091F00088608093F0000E94422850
:1059F000FF91EF91BF91AF919F918F917F916F91A7
:105A00005F914F913F912F910F900FBE0F901F907C
:105A1000189519BC109232050E943F2872CF8091D0
:105A2000E30087FF02C083E0B2CF81E0B0CF1F92D6
:105A30000F920FB60F921124FF920F931F932F9383
:105A40003F934F935F936F937F938F939F93AF9306
:105A5000BF93CF93DF93EF93FF9309EE10E0F8012C
:105A60008081C091EC00C795CC27C7958F70FC2E24
:105A7000F82A1082C0EFD0E08881877F88837894ED
:105A80000E94602DF8011082888188608883CF2D64
:105A9000CF70C083FF91EF91DF91CF91BF91AF9114
:105AA0009F918F917F916F915F914F913F912F9136
:105AB0001F910F91FF900F900FBE0F901F901895A0
:105AC000AAE2B0E0E6E6FDE20C94062F83E395E05F
:105AD000FC0101962091F100208325E08B33920791
