:100000000C9436030C946E030C946E030C946E03E4
:100010000C946E030C946E030C946E030C946E039C
:100020000C946E030C946E030C941C2C0C94EF2C0B
:100030000C9476260C946E030C946E030C946E0351
:100040000C946E030C946E030C946E030C946E036C
:100050000C946E030C942E270C946E030C946E0378
:100060000C946E030C946E030C946E030C946E034C
:100070000C946E030C946E030C946E030C946E033C
:100080000C946E030C946E030C946E030C946E032C
:100090000C946E030C946E030C946E030C946E031C
:1000A0000C946E030C946E030C946E0329001E00D6
:1000B0001F0020002100220023002400250026002C
:1000C00027002D002E0000002A004C002B001400F9
:1000D0001A000800150017001C0018000C00120080
:1000E00013002F003000310000004B0039000400E5
:1000F0001600070009000A000B000D000E000F009B
:10010000330034000000000028004E00E100000031
:1001100000001D001B000600190005001100100062
:10012000360037003800E50052002152E00021522D
:10013000E2000000000000002C00000000000000B1
:100140000000E6002152500051004F003500217898
:10015000207821782B783E003F004000410042008B
:10016000430044004500000001004600010001007A
:100170005200010001000100010001000100010026
:10018000010001000100010000004A0001005000D0
:1001900051004F00010001000100010001000100B9
:1001A000010001000000000001004D002078000067
:1001B0000000AA00A900AC00AB00E300E1000100D0
:1001C0000100010001000100010001000100010027
:1001D000010000000000000001000000000000001D
:1001E0000000E700010001000100010029001E00DD
:1001F0001F002000210022002300240025002600EB
:1002000027002D002E0000002A004C002B001400B7
:100210001A000800150017001C0018000C0012003E
:1002200013002F003000310000004B0039000400A3
:100230001600070009000A000B000D000E000F0059
:10024000330034000000000028004E00E1000000F0
:1002500000001D001B000600190005001100100021
:10026000360037003800E50052002152E0002152EC
:10027000E2000000000000002C0000000000000070
:100280000000E6002152500051004F003500217857
:10029000207821782B783E003F004000410042004A
:1002A0004300440045000000010046000100010039
:1002B00052000100010001000100010001000100E5
:1002C000010001000100010000004A00010050008F
:1002D00051004F0001000100010001000100010078
:1002E000010001000000000001004D002078000026
:1002F0000000AA00A900AC00AB00E300E10001008F
:1003000001000100010001000100010001000100E5
:1003100001000000000000000100000000000000DB
:100320000000E700010001000100010000010101DF
:1003300001010101010102020202020202020203A2
:100340000303030303030304040404040404050572
:100350000505050606060606070707070708080835
:1003600008090909090A0A0A0B0B0B0C0C0C0D0DE4
:100370000D0E0E0E0F0F0F1010111111121213137C
:100380001414151516161717181819191A1A1B1BF5
:100390001C1D1D1E1E1F2020212222232424252651
:1003A00026272829292A2B2C2D2D2E2F3031323289
:1003B000333435363738393A3B3C3D3E3F40414295
:1003C000434445464748494A4C4D4E4F505153547B
:1003D000555658595A5B5D5E5F616264656668692F
:1003E0006B6C6D6F7072737577787A7B7D7E8082AF
:1003F000838587888A8C8E8F91939596989A9C9EF8
:10040000A0A2A3A5A7A9ABADAFB1B3B5B7BABCBE07
:10041000C0C2C4C6C9CBCDCFD1D4D6D8DBDDDFE2D4
:10042000E4E7E9EBEEF0F3F5F8FAFDFF0000000079
:10043000000000002A2B280000000000000000003F
:100440000000000000000029000000002C1E3420E5
:10045000212224342627252E362D3738271E1F200B
:100460002122232425263333362E37381F04050650
:100470000708090A0B0C0D0E0F1011121314151694
:100480001718191A1B1C1D2F3130232D3504050692
:100490000708090A0B0C0D0E0F1011121314151674
:1004A0001718191A1B1C1D2F3130354C0000000085
:1004B000000000000000000000000000000000003C
:1004C000000000000000000000000000000000002C
:1004D0007E0F00D4FFFFFFC70000007826036300F3
:1004E0007500730074006F006D005F0070006100A4
:1004F000720061006C006C0065006C005F003600EB
:100500003500000014034300650079006E006500AB
:100510007400690063007300000004030904090209
:100520005B00030100A0FA090400000103010100BF
:10053000092111010001224400070581030800017F
:100540000904010002030000000921110100012239
:100550002200070582032000010705030320000194
:100560000904020001030000000921110100012219
:100570007B00070584032000011201000200000037
:1005800008756F7A800001010200010660FF0961B1
:10059000A1010962150026FF009520750881020956
:1005A00063150026FF00952075089102C00501091A
:1005B00002A10185020901A10005091901290815F7
:1005C00000250195087501810205010930093115E1
:1005D00081257F95027508810609381581257F954B
:1005E0000175088106050C0A38021581257F9501E1
:1005F00075088106C0C005010980A10185031901A4
:100600002AB700150126B700950175108100C005B5
:100610000C0901A101850419012AA002150126A0D7
:1006200002950175108100C005010906A1010507A9
:1006300019E029E71500250195087501810295014A
:10064000750881010507190029FF150026FF00958F
:100650000675088100050819012905150025019571
:100660000575019102950175039101C011241FBE0A
:10067000CFEFDAE0DEBFCDBF04B603FE18C0809135
:100680003B0590913C05A0913D05B0913E0587301A
:10069000904BA740B04B59F410923B0510923C058B
:1006A00010923D0510923E05E0E0F8E3099513E055
:1006B000A0E0B1E0E2EFFFE502C005900D92A030AE
:1006C000B107D9F725E0A0E0B3E001C01D92AB333C
:1006D000B207E1F70E94E3120C94752F0C9400000E
:1006E0008430C8F46530B8F44031A8F4E62FF0E067
:1006F00095E0899FE00DF11D112484E0EE0FFF1FAE
:100700008A95E1F7E40FF11DEE0FFF1FE455FF4F4F
:1007100085919491089581E090E0089581E0089595
:100720000E948E03089581E008950E948E0308952B
:100730000E949503089508950E949B030895A6E0E2
:10074000B0E0E5EAF3E00C94DE2E49835A839E8301
:100750003091070389819A8131111AC03E81332378
:1007600099F0222389F00E949709182F682F898118
:100770009A810E94740969817A81812F0E948A106E
:100780002696E3E00C94FA2E0E948509182FF3CFE9
:100790000E94970969817A81F1CFFC01262F40815F
:1007A000518162817381848195810E949F030895A4
:1007B000CF93DF93D82FC92F61E00E94CD036D2F17
:1007C0007C2F0E949003DF91CF910895CF93DF9308
:1007D000D82FC92F60E00E94CD036D2F7C2F0E947F
:1007E0009C03DF91CF91089581E008950E94F40366
:1007F0000895CF93C82F0E9468088C2F0E94F6039B
:100800002FEF84E39CE0215080409040E1F700C04E
:100810000000CF91089581E00E94F9030E945227C1
:10082000089580E00E94F9030E94762708950F93AF
:100830001F93CF93DF938C0161E00E94CD03EC0105
:10084000B8010E944723882309F449C0B801CE01AA
:100850000E949803882309F442C0B801CE010E9487
:1008600053228823E1F1B801CE010E94781D88232C
:10087000B1F1B801CE010E944D1D882381F1B8016C
:10088000CE010E94121B882351F1B801CE010E94B3
:100890009422882321F1F8018581882381F0CA35CB
:1008A000FCE7DF0739F178F4C130ECE7DE07F9F057
:1008B000C330FCE7DF07C9F0C115DC4771F0C801A0
:1008C0000E9493030DC0CB35ECE7DE07B1F0CC35C9
:1008D000DC47A9F70E94B70DF2CF0E940B0480E01D
:1008E000DF91CF911F910F9108950E94C90D0E9431
:1008F0001104F5CF0E94C10DE2CF0E94C50DDFCFDC
:100900000E9452260E947B180E94A80481E00E9447
:100910007B1908950E94AC0480E00E947B190E941C
:100920005726089581E008950895CF93DF93D82F37
:100930000E949204C82F882319F08D2F0E949404DE
:100940008C2FDF91CF91089508950E94950408950A
:1009500080E00E94A50408950E9425250E94A50418
:100960000895CF930E942525C82F809102038C17EC
:1009700079F0C09302030E94E22660930303709310
:10098000040380930503909306038C2F0E94A50413
:10099000CF910895ADE0B0E0E0EDF4E00C94DF2EEF
:1009A000488759876A877B878C879D8791110E942A
:1009B000F40C1F8286E0FE013896DE01119601904C
:1009C0000D928A95E1F78D8181110DC029813A81BF
:1009D0004B815C816D817E818F810E943A0C2D96C6
:1009E000E2E00C94FB2ECE0101960E94D803811107
:1009F000EDCFF5CFFC018481813021F4808191819C
:100A00000E94C0090895662329F00E94E61E0E94F4
:100A1000A71F08950E942F1FFACFCF93C82F8823B6
:100A2000C9F08238C9F40E94322581FD13C089E3E0
:100A30000E94EC250E94650D2FEF37EE83E02150D8
:100A400030408040E1F700C0000089E30E94F425B7
:100A50000E94650DCF9108958338A1F40E9432253C
:100A600080FDF8CF83E50E94EC250E94650D9FEF85
:100A700021EE34E0915020403040E1F700C000000A
:100A800083E5E4CF8438A1F40E94322582FDE2CFD1
:100A900087E40E94EC250E94650D8FEF91EE24E023
:100AA000815090402040E1F700C0000087E4CECFA5
:100AB0008CEF8C0F813A70F48C2F0E94AF25882325
:100AC00029F08C2F0E94F4250E94650D8C2F0E9426
:100AD000EC25BECF80E28C0F883048F4C77081E0EF
:100AE00001C0880FCA95EAF70E94D50CB1CF8BE5FB
:100AF0008C0F833038F42C2F2452330BC9010E9401
:100B00004F25A8CFE8E5EC0FEB3150F4F0E0EE0F05
:100B1000FF1FE959FD4F808191810E9475259ACF71
:100B200083E38C0F833108F095CF61E08C2F0E9416
:100B3000030590CF882309F456C0823879F40E94C7
:100B4000322581FF50C089E30E94EC250E94650D8B
:100B500089E30E94F4250E94650D0895833859F4B5
:100B60000E94322580FF3FC083E50E94EC250E9451
:100B7000650D83E5EECF843859F40E94322582FF5B
:100B800032C087E40E94EC250E94650D87E4E1CF26
:100B90009CEF980F913AE8F290E2980F983050F459
:100BA000877091E001C0990F8A95EAF7892F0E941A
:100BB000DB0CD1CF9BE5980F933028F480E090E0D8
:100BC0000E944F25089598E5980F9B3128F480E006
:100BD00090E00E947525089593E3980F933118F4DF
:100BE00060E00E94030508951F93CF93DF93182FB1
:100BF000EB010E940D05209739F4812F0E949A0580
:100C0000DF91CF911F9108958FE99FE00197F1F750
:100C100000C000002197EFCF60E070E0893311F44D
:100C200060E570E00E94F4050895882321F00E9499
:100C3000D50C0E94650D0895882321F00E94DB0CDD
:100C40000E94650D0895A0E0B0E0E9E2F6E00C94A2
:100C5000D92E6C01D62FC72FFC0115810681029574
:100C60000F700E94CA0CE82E8823F9F0E12E1123A0
:100C7000E1F08C2F807F803461F080E28D0F88302E
:100C8000F0F08C2F807E803221F4D230C0F000232F
:100C9000B1F08091EA0382FF12C082E00E948A0DC7
:100CA0000E94CA0C91E0E82EE926EC2FE295EF7045
:100CB000C03CB0F5F0E0E958F04D0C94C22EE12CA8
:100CC000F4CF0C2F0F70C03110F00295007F11236C
:100CD00099F0002359F080E28D0F883010F0D11187
:100CE00007C0802F0E94D50C0E94650D8D2F51C02A
:100CF000802F0E94E60CF8CF8D2F0E949A050023CA
:100D000079F080E28D0F883010F0D11104C0802F6F
:100D10000E94DB0C03C0802F0E94EC0C0E94650D2A
:100D2000EE2089F00E94C60C80FD0DC0F6011582F0
:100D30000E94C00C0E94E208C6010E942F080E9477
:100D4000C00C0E94EE08CDB7DEB7E8E00C94F52E9B
:100D5000FC2FFF70FF2EC07FC03219F0F29480EF9D
:100D6000F822DD2341F0D130D1F1112309F444C040
:100D70000023F1F0BBCF8091EA0382FD15C011235F
:100D800059F0FF2029F08F2D0E94D50C0E94650D8F
:100D900080E00E940D05C4CF80E00E949A05FF20EC
:100DA00009F4BECF8F2DB4CF112369F0011104C017
:100DB0008F2D0E941506B4CF013009F0B1CF8F2DD1
:100DC0000E940C0DADCF0111ABCF8F2D0E941C06E0
:100DD0008F2D0E94180D8F2D0E94FB0CA1CF112387
:100DE00021F0063008F09CCFE3CF053008F098CF13
:100DF0008F2D0E941C0694CF0023D1F3D93349F4E0
:100E00002FEF87EE93E0215080409040E1F700C043
:100E100000008D2F0E949A0583CF8C2F8695869592
:100E20008370882369F0813009F07ACF8D2F9C2F51
:100E30009370111102C080E090E00E94752570CF80
:100E40008D2F9C2F9370111102C080E090E00E94C2
:100E50004F2566CF612F8D2F0E94030561CF8C2F08
:100E60008370811134C0111124C04D2F42954695D5
:100E70004770440F440F8D2F8F70042E01C0880FD0
:100E80000A94EAF7D071DD2341F02FE030E001C091
:100E9000220F4A95EAF7D22FD095C695C695C37012
:100EA0008D2BC23071F0C33079F0C13039F00E941F
:100EB000BE080E9425250E94A50432CF0E94B808D2
:100EC000F8CF0E94C408F5CF0E94B508F2CF1123D5
:100ED00039F1C0FFEECF4D2F429546954770440F34
:100EE000440F8D2F8F70042E01C0880F0A94EAF7EB
:100EF000D071DD2341F02FE030E001C0220F4A9590
:100F0000EAF7D22FD095C695C695C3708D2BC23007
:100F100069F0C33071F0C13031F00E941009C9CFBF
:100F2000823038F2D8CF0E940A09C3CF0E94160936
:100F3000C0CF0E94D008BDCFCF70112339F08C2FC5
:100F40000E94E2088D2F0E941506B3CF8D2F0E94BC
:100F50001C068C2F0E94EE08ACCFD23F31F170F40A
:100F6000D03FB9F0D13FB1F1112309F44EC00023B5
:100F700009F448C08D2F0E940D059BCFD33FE1F0AF
:100F8000D43F21F11111F3CF01114DC08C2F8F717E
:100F9000E1CF112341F0053008F08BCF8C2F8F71FA
:100FA0000E94FE0886CF0530F7CF8C2F8F7111116C
:100FB000D1CF0E94E2087DCF112329F08C2F8F71B1
:100FC0000E94D90876CF0E94D50873CF8091EA039A
:100FD00082FD06C08C2F8F71112309F4BBCFE9CF9E
:100FE000112331F063E08C2F8F710E946C0D61CF63
:100FF00081E00E948A0D023008F45BCF82E00E94FB
:101000008A0D57CF8C2F8F71D4CF002309F4BECF18
:10101000D93349F4EFEFF7EE23E0E150F040204000
:10102000E1F700C000008D2F0E949A0542CF0F9378
:101030001F93CF93DF93EC01688179818D810E94AA
:10104000CD098C010E941C090E94B408B801CE0190
:101050000E942306DF91CF911F910F910895CF93A6
:10106000DF93EC018C81882399F0CE010E94170454
:10107000811111C00E94CA0C882351F08D818823F0
:1010800039F08091EA0382FF03C082E00E948A0D5A
:10109000DF91CF910895CE010E941708CE010E94E2
:1010A000E603F6CF80E090E00E944F2580E090E0DC
:1010B0000E9475250E94F40C0E94650D0E94C41FB9
:1010C0000E94A71F08950E94FC250E9452080895BF
:1010D0000E94E30C0E9463080895282F92959F7048
:1010E000963091F060F4925F9F70923030F481E01E
:1010F000203F79F030F4283E30F080E008959A5F88
:10110000F3CF243FD1F7089581E0283EE0F3213F5B
:10111000F9CF0895FC018481882339F08081918181
:101120000E94C0090E946D08089580E00895A6E01D
:10113000B0E0EDE9F8E00C94DF2E2696E2E00C94A6
:10114000FB2EA7E0B0E0E7EAF8E00C94DF2E27964C
:10115000E2E00C94FB2E08950E94AB0808950E94D3
:10116000AC0880932703089508950E94AF0808955E
:1011700090912703892B0E94AF080895909127032F
:1011800089230E94AF0808959091270389270E9420
:10119000AF0808950E94AB0808950E94CA080895F8
:1011A0000E94CD0880932603089580E00E94D00815
:1011B000089591E001C0990F8A95EAF7892F0E945E
:1011C000D008089521E030E001C0220F8A95EAF7A7
:1011D00080912603822B0E94D008089521E030E000
:1011E000A90102C0440F551F8A95E2F7CA018095F4
:1011F0009091260389230E94D008089521E030E0D1
:1012000001C0220F8A95EAF78091260382270E9467
:10121000D008089590912603892B0E94D008089544
:101220009091260389230E94D00808959091260367
:1012300089270E94D008089508959B01677091E066
:1012400001C0990F6A95EAF763E0369527956A958C
:10125000E1F7B901660F771F260F371FFA01E20F7A
:10126000F31F40E050E0682F70E08191DF0111979B
:101270009B01042E02C0369527950A94E2F721704F
:1012800021952827292328272C934F5F5F4F433030
:10129000510559F708959C01A82FA77083E0369552
:1012A00027958A95E1F7C901880F991F820F931F2F
:1012B000FB01E80FF91F40E050E080E0219130E0B1
:1012C0000A2E02C0369527950A94E2F7217033273B
:1012D000042E01C0220F0A94EAF7822B4F5F5F4F62
:1012E0004330510559F70895282F862F953060F423
:1012F000203150F430E1939FB0011124620F711D31
:1013000048E053E00E941D090895282F953068F4A5
:10131000803158F430E1939FC001112468E073E0FC
:10132000820F911D0E944B09089580E00895A0E06E
:10133000B0E0EDE9F9E00C94DA2E7C01009126038F
:1013400080912703082BC3E0D0E010E0C8010C2EE9
:1013500002C0959587950A94E2F780FD09C0219710
:10136000A8F7D12C8D2DCDB7DEB7E7E00C94F62E83
:10137000DC2EB7018C2F0E949610019781F3F2CFDB
:10138000CF93DF93D82FC92F0E9497096D2F7C2F01
:101390000E949610DF91CF9108951F93CF93DF9312
:1013A000162FD72F90910703992341F0862F972F5F
:1013B0000E94C009DF91CF911F910895882381F089
:1013C000862F972F0E949709C82F682F812F9D2F56
:1013D0000E947409612F7D2F8C2F0E949610EACFF6
:1013E000862F972F0E948509C82FF4CFE1E0F0E007
:1013F000DF0102C0AA0FBB1F6A95E2F7BD01DF0142
:1014000002C0AA0FBB1F4A95E2F76A2B01C0EE0F7C
:101410002A95EAF7962F9823961302C08E2B0895EB
:10142000E0958E230895242F462F682F8091260360
:101430000E94F6090E94D00808950F931F93CF933E
:10144000E0912803C7E0809129038E1304C0CF9157
:101450001F910F9108950E2F10E0CE9FF0011124DF
:10146000E65DFC4F20813181428153816481758129
:1014700086810E94A108F8013196E770E4CF20919F
:10148000620330916303409164035091650360915E
:10149000660370916703809168030E94A108089514
:1014A00080916803803178F480916703882359F034
:1014B000E091280320912903309163034091620356
:1014C00057E02E1301C008956E2F70E05E9FF0016B
:1014D0001124DF01A65DBC4F14968C9114978823CC
:1014E00061F111968C911197831327C08C9184130D
:1014F00024C015968C91159781111FC012968D915D
:101500009C91A0916403B09165038A1B9B0B883C5E
:10151000910598F4809168038F70806180936803CF
:10152000E05DFC4F80818F708061808382E693E074
:101530000E942F080E941D0A0895FB013196E77052
:10154000C0CFE09128039091290327E0E91302C05E
:1015500080E00895AE2FB0E02E9FF0011124E65DEB
:10156000FC4F3181361306C03081381303C03581FA
:10157000341304C0FD013196E770E8CF81E008958F
:101580008F929F92AF92BF92DF92EF92FF920F9352
:101590001F93CF93DF93CDB7DEB72D970FB6F89497
:1015A000DEBF0FBECDBF8C0186E0F801DE011896CC
:1015B00001900D928A95E1F7F801E080F580A28014
:1015C000B380848192E6892E93E0992E90916603F0
:1015D00091111BC0882309F4FCC0FF2009F43DC110
:1015E000C8010E948A08882309F437C187E0F801FE
:1015F000D40101900D928A95E1F7C4010E94FA048A
:101600000E94500A0E943F0AE4C0D09067032091D4
:10161000640330916503A501421B530BDD2009F4DF
:10162000DBC0483C510508F0A6C0882309F4D1C0AE
:1016300090916303918080916803803108F06BC0C2
:10164000991228C0909162039E1124C0F1105DC0D0
:101650008F708061809368030E943F0A82E693E066
:101660000E942F0880916803F8018683F12C8F2D4A
:101670002D960FB6F894DEBF0FBECDBFDF91CF9190
:101680001F910F91FF90EF90DF90BF90AF909F90D0
:101690008F900895F11039C040E0692D8E2D0E9481
:1016A000A10A40E0692D8E2D0E94A10AF82E811119
:1016B000DDCF888599850E94C009292F22952F703A
:1016C000903450F49F70223080F0992399F0F80103
:1016D0009681903178F4CBCF2A5F2F70223078F04A
:1016E000C8010E942F08FD2CC2CF992319F088232E
:1016F00009F4BDCF805E883008F4B9CFF1CF803FC8
:1017000008F4B5CF815F8230F7CF809168038160A4
:1017100080936803ABCF991207C0909162039E112A
:1017200003C0FF2009F479C0C8010E948A088823F9
:1017300009F493C0FF2009F490C0809168038032BF
:1017400088F020916203309163033A832983BC823D
:10175000AB82909166039D831E828F83CE0101969A
:101760000E942F0887E0F801A2E6B3E001900D92F5
:101770008A95E1F745CF909168039031A0F44885B0
:1017800059856A857B858C859D850E94970882E6B0
:1017900093E00E942F0887E0F40111928A95E9F7FF
:1017A0000E943F0A63CF8823A1F0209163038181C7
:1017B0002813BACF809162038E11B6CFF110B4CF47
:1017C0009683C8010E942F0887E0F40111928A9540
:1017D000E9F7FF24F3944BCF483C510508F041C092
:1017E0008823B9F3FF20C9F1909163038181981395
:1017F0002AC0809162038E1126C08091680380FD0B
:1018000019C08031B8F08683807F803F39F08681AF
:10181000982F907F905F8F70892B8683C8010E94DC
:101820002F0887E0F801A2E6B3E001900D928A95B7
:10183000E1F7E8CE87E0F801A2E6B3E001900D926F
:101840008A95E1F7C6CFC8010E948A0881118ACF24
:1018500080916803816080936803C8010E942F080B
:10186000B8CF488559856A857B858C859D850E9482
:10187000970891CFAEE0B0E0E0E4FCE00C94DE2EFF
:10188000288739874A875B876C877D878E87CE015B
:1018900008960E94C00A8823B1F06C85662341F047
:1018A000288539854A855B857D858E850E94A108BE
:1018B00017E0809128039091290389133EC02E964A
:1018C000E3E00C94FA2E87E0FE013896DE011196D3
:1018D00001900D928A95E1F7209129034091280308
:1018E0008C85882329F330E0C901019687709927F8
:1018F00050E08417950799F097E0929FD001939F4D
:10190000B00D1124A65DBC4FFE01319601900D92E1
:101910009A95E1F7809329030E941D0AC9CF0E947E
:101920006808109229031092280387E0E2E6F3E0AA
:10193000DF011D928A95E9F7BBCF189FC0011124E2
:10194000865D9C4F0E94C00A882309F4B8CFE091BD
:1019500028031E9FF0011124E65DFC4F2081318198
:10196000428153816481758186810E94A1088091A2
:10197000280390E00196877099278093280399CFD8
:10198000809171038695869586950895809171035F
:101990008770089590917103977081E0911101C053
:1019A00080E0089580917D03089590917D03982BA8
:1019B00090937D030895982F909580917D038923BE
:1019C00080937D03089510927D03089590917C0388
:1019D000982B90937C030895982F909580917C0389
:1019E000892380937C03089510927C0308950895C1
:1019F0000E94F70C089590917203292F2823222327
:101A000031F080958923809372030E94F80C089529
:101A100008950E94080D089590917303292F28239B
:101A2000281729F0982B909373030E94090D0895AD
:101A300090917303292F2823222331F08095892345
:101A4000809373030E94090D089580917303882386
:101A500029F01092730380E00E94090D08950F93FE
:101A60001F93CF93DF930091460210914702C091DC
:101A70007D0380917C03C82BD0917303DD2331F06B
:101A80000E949B2581110E94250DCD2BF801C0835A
:101A9000C0914602D091470248E050E069E673E009
:101AA000CE010E94062F892B59F088E0FE01A9E69D
:101AB000B3E001900D928A95E1F7CE010E943525A1
:101AC000DF91CF911F910F9108950E942F0D0895DE
:101AD00008950E94680D08959091EA0392FF11C045
:101AE00098E0899F90011124622B609371030E94FA
:101AF000E208809171038695869586950E94690D0E
:101B000008950E94E20808951092710380E00E94F7
:101B1000690D0895909171038095892380937103D5
:101B2000282F277021110DC0891759F09091EA03D1
:101B300092FF07C08695869586950E94EE080E94C2
:101B4000840D08959091EA0392FB222720F928172B
:101B500069F080FB92F99093EA038091E9039091F8
:101B6000EA030E94EB0D82E00E948A0D08958091A5
:101B7000EA0382FB882780F991E089270E94A20D61
:101B8000089581E00E94A20D089580E00E94A20DB8
:101B900008956FEF7FEF80E090E00E946F2F08952F
:101BA00080E090E00E943B2F853E9E4F19F40E94FA
:101BB000CF22089580E0089582E090E00E94332FC4
:101BC000089583E090E00E94332F089584E090E030
:101BD0000E943B2F0895BC0184E090E00E946F2F8B
:101BE0000895AB01BC018FE090E00E94632F08953F
:101BF000AB01BC0183E190E00E94632F089560E097
:101C000070E0CB010E94F80D089560E070E0CB0118
:101C10000E94F10D0E94FF0D0895A8E0B0E0E3E1FD
:101C2000FEE00C94DF2E65EE7EEF80E090E00E94F7
:101C30006F2F60E082E090E00E94512F81E080935E
:101C4000270361E083E090E00E94512F60E074E19F
:101C500084E090E00E946F2F60E086E090E00E94B8
:101C6000512F60E087E090E00E94512F40E050E06B
:101C7000BA0188E090E00E94632F60E083E290E088
:101C80000E94512F60E08CE090E00E94512F60E0B4
:101C90008DE090E00E94512F19821A821B821C82D3
:101CA0001D821E821F82188648E050E067E170E0C6
:101CB000CE0101960E94412F40E050E0BA018FE131
:101CC00090E00E94632F80E00E94E8220E94272378
:101CD0000E94050E2896E2E00C94FB2E0E940D0E49
:101CE0000895682F8EE090E00E94512F0895A6E09D
:101CF000B0E0EDE7FEE00C94DD2E0E94D6268C01CC
:101D000080917E0390917F038017910779F019826B
:101D10001A820E94D626BC0149815A8180E090E057
:101D20000E94CA0410937F0300937E032696E4E08A
:101D30000C94F92E0E94E22660938E0370938F0319
:101D4000809390039093910360938A0370938B0325
:101D500080938C0390938D030895089508950E94B5
:101D6000AD0E089508950E94B20E08958EE891E197
:101D70000E94FA120E94AE0E0E94AF0E089581E0FA
:101D800008950E94BF0E08950E94BF0E0895089501
:101D900008950E94C70E0E94C80E08950E94D00D9B
:101DA000811102C00E946E0E0E94DC0D809392038E
:101DB0000E94E60D9093EA038093E9030E94B61B0C
:101DC0000E94E10D0E94B508809126030E94CD0873
:101DD00008950E94CD260E9437230E944B120E9434
:101DE000CE0E0E94A4040E944E190E94B30E0895C4
:101DF000A6E0B0E0EEEFFEE00C94D32E0E94C10E00
:101E000081110CC00E94770E0E947B180E94E51F72
:101E10000E94B1042696EEE00C94EF2E0E9461120F
:101E200020E8822E23E0922E640110E0F601E1907A
:101E3000F1906F01812F0E9498111F5F153009F4F6
:101E40004BC0E816F90691F38091920381FD0E9440
:101E5000A1110E94C40E782E10E0812F0E949811CB
:101E60007C01F401A190B1904F018A159B0571F19D
:101E7000A826B92600E0CC24C394D12CC5018C211E
:101E80009D21892BD1F066246394C7018C219D216B
:101E9000892B09F4612C772059F009831A830E9459
:101EA000D626BC0149815A8181E0962D0E94CA0440
:101EB000462D602F812F0E94FB140F5FCC0CDD1C80
:101EC0000031E1F6F4013297F182E0821F5F1530B4
:101ED00021F60E949A0E98CFE816F90609F0B4CFC1
:101EE00091CF1F93CF93DF930E949B10EC0181153C
:101EF00022E5920708F053C0811540E5940708F0E9
:101F0000DDC0803E9105F8F48D3C910508F0AEC02F
:101F1000883A910580F4853A910508F099C081309E
:101F2000910521F00497813A910550F4CE01DF919B
:101F3000CF911F910895885A91094B9708F48BC04F
:101F4000C0E0D0E0F3CF811550E49507F8F4C11557
:101F500080E2D80708F0CBC0C83ED10538F3CE01E7
:101F60009A9581159F4160F78D2F0E943F11182F80
:101F7000CE0199270E949B10212F30E0322F22277B
:101F8000E901CC27DF71C82BD92BD0CF99270E942C
:101F90009B10CC27DF70C82BD92BD06AC7CF8038D5
:101FA00042E59407C8F5803652E5950708F067C00A
:101FB000C03482E5D807B0F08C2F8695869587705F
:101FC00020E2829FC0011124C37021E030E0A9010A
:101FD00002C0440F551FCA95E2F7EA01C82BD92B5E
:101FE000DC68A4CFC03252E5D50708F041C08C2F81
:101FF0008695869520E2829FC0011124C37021E05E
:1020000030E0A90102C0440F551FCA95E2F7EA016A
:10201000C82BD92BDD688ACF803C52E5950760F448
:102020008F71C03AD24508F03FC090E0982F8827C2
:10203000EC01C46FD06A7ACF805C9245809708F03B
:102040007FCFDC2FCC27CC27DF71C06FD06A6ECF5B
:10205000A497D0646BCFC85AD0E0CC0FDD1FC35615
:10206000DD4F0990D881C02DD46460CFD0655ECF9C
:10207000CF71D0E0DC2FCC27C16FD06A57CF8695C7
:102080008695877020E2829FC0011124C37021E0F1
:1020900030E0A90102C0440F551FCA95E2F7EA01DA
:1020A000C82BD92BDA6842CF0E943F11C82FD0E04D
:1020B000DC2FCC27CC27DF71D06238CF8F710E9404
:1020C0003F1165E0D695C7956A95E1F7CF70D0E0EE
:1020D000DC2FCC27282F30E084FF05C054E0220FEE
:1020E000331F5A95E1F7C22BD32BD0691FCF8D2F09
:1020F0008F710E943F11182FCE0199270E949B10CB
:10210000212F30E0322F222722273F71282B392B15
:10211000E901D2CF462F672F753028F4403118F4EB
:102120000E946B1C089580E090E008950E948A1040
:102130000E94710F0895803E9105D1F1C8F481335A
:10214000910509F47FC048F48932910509F46FC004
:102150008A32910509F47DC0089589339105E1F033
:1021600082389105C9F08533910509F45BC0089563
:10217000843E9105D1F148F4823E910531F1833ED0
:10218000910541F181EE90E00895863E9105C1F1FF
:10219000873E9105E1F108952091E9032370211113
:1021A00065C02091EA0323FF14C089E290E00895FE
:1021B0002091E90320FD43C03091EA0330FF09C0BC
:1021C00024FF4EC080E090E008952091E90322FDB5
:1021D000F7CF08952091E90322FD45C03091EA032D
:1021E00030FD44C024FFF5CFEDCF2091EA0321FF5D
:1021F000F0CF8091E90384FDE5CF87EE90E008956C
:102200002091E90323FFE5CF24FDDCCFF6CF209119
:10221000E90323FD2EC03091EA0331FFE3CF84EEC2
:1022200090E008952091E90325FFD3CFBECF209100
:10223000E90325FD21C02091EA0323FFCACF89E3EA
:1022400090E008952091E90326FFC3CF8AE290E051
:1022500008952091E90326FFBCCF81E390E0089523
:1022600083EE90E0089582EE90E0089580EE90E095
:10227000089586EE90E0089585E390E0AACF9091CE
:10228000E90392FF10C041E0282F2471243009F0A7
:1022900040E031E0282F2871283009F030E0431762
:1022A00011F02CE0822793FF10C041E0282F247109
:1022B000243109F040E031E0282F2871283109F05D
:1022C00030E0431711F02CE082273091EA0330FF11
:1022D00010C051E0282F2171213009F050E041E079
:1022E000282F2871283009F040E0541711F029E018
:1022F000822731FF10C041E0282F2171213109F0E0
:1023000040E031E0282F2871283109F030E04317F0
:1023100011F029E0822794FD877E089580E00895DA
:1023200008950E949011089508950E9494110895AF
:10233000E82FF0E0EE0FFF1FEB50FC4F8081918102
:102340000895089580EA8A95F1F7089500C00895E8
:102350000E94A2110895F894E82FE295EF70F0E042
:1023600041A18F7021E030E0B90102C0660F771FF4
:102370008A95E2F7CB01962F9095942391A392A191
:10238000892B82A3789408950F931F93CF93DF93A3
:10239000C3EED2E089918F3F11F00E94AB1182E031
:1023A000C83ED807B9F7C3EDD2E003EE12E0899139
:1023B0008F3F11F00E94AB110C171D07C1F7DF9181
:1023C000CF911F910F910895A0E0B0E0EAEEF1E106
:1023D0000C94D82EEC01B62E062F10E0C8018D51BA
:1023E0009D4F7C01FC0180818F3F09F44FC0F89420
:1023F000E82FE295EF70F0E091A18F7021E030E0DE
:1024000001C0220F8A95EAF7892F822B81A382A12E
:102410002095282322A378940E94A611E3EDF2E0F0
:1024200041E050E0C12CD12C21912F3F89F0A22F07
:10243000A295AF70A05EB0E08C9190E02F7002C0CA
:10244000959587952A95E2F781709A01882311F076
:1024500020E030E0C22AD32A440F551F82E0E33E39
:10246000F80711F7F70180818F3F11F00E94AB113F
:1024700061E0C114D10409F460E08B2D0E94A81121
:10248000000F111FC00FD11FD982C882CDB7DEB790
:10249000E9E00C94F42E0E94C4118AE0E5EFF3E029
:1024A000DF01982F1D929A95E9F7EBEEF3E0DF013B
:1024B0001D928A95E9F785E00E949E120E94911173
:1024C0000895AAE0B0E0E7E6F2E10C94DC2EFE010C
:1024D00031968AE0DF011D928A95E9F710E0FE2E21
:1024E0000F2F612F8F2D902F0E94E4111F5F153049
:1024F000C1F74AE050E06F2D702F8BEE93E00E9401
:10250000062F21E0892B81F420E045E065EF73E0A0
:102510008BEE93E00E949F12182F0E949511812F3D
:102520002A96E5E00C94F82E8AE0EF2DF02FABEE22
:10253000B3E001900D928A95E1F7E7CF0895A0E00E
:10254000B0E0E5EAF2E10C94D92ED82EE92EF62E71
:10255000D72F042FC22F222379F081E08093950397
:102560000E94D626909394038093930380E0CDB786
:10257000DEB7E8E00C94F52EC0909503CC20B1F3C3
:1025800080919303909194030E94FF26059770F326
:1025900010E0000F111FA8016D2D7E2D8F2D9D2F96
:1025A0000E94062F892B41F0A8016D2D7E2D8F2DC5
:1025B0009D2F0E94132FCC2D109295038C2FD7CFD7
:1025C0000E94F80E08950E946F260E940A290E9418
:1025D000B60E0E9424290E94E90E0E9431290E9411
:1025E00036290E94E0120E9450290E94D8270E949A
:1025F000C90EF5CF90930103809300030895A0E0E6
:10260000B0E0E5E0F3E10C94D72EE82F71110DC096
:10261000442321F0F0E0E45DFC4F8491682F782F93
:10262000CDB7DEB7EAE00C94F32E262F30E0C72FAB
:10263000D0E0F0E0442321F0E45DFC4FE491F0E0D1
:1026400086E0829F7001839FF00C11240FEF10E051
:10265000C701B8010E949A2EAB01220F331F65E516
:10266000649FC001659F900D1124281B390BC22E59
:10267000CC0CC20EC8018C1B9D0B8E9F90018F9FAE
:10268000300D9E9F300D1124832FCC9EB001CD9E26
:10269000700D1124672F77275801A61AB70AAE9E2E
:1026A000D001AF9EB00DBE9EB00D11247B2F5801FE
:1026B000AC18B1086501CC9E5001CD9EB00CDC9EDB
:1026C000B00C1124AB2CBB240A191B090E9FE0018E
:1026D0000F9FD00D1E9FD00D11246E2F433051053A
:1026E000C9F09CEFE91693E0F90650F4413051052A
:1026F00009F496CF4230510589F07E2F6D2F90CF8F
:102700004430510571F046305105B9F3632F8B2FDA
:102710007E2F86CF6B2F732F8E2F82CF732F8D2F0F
:102720007FCF7D2F632FF8CF41E00E94FF120895E5
:102730009C0180E090E0269F812D369F800D911DA9
:10274000112408959C018230910508F408959FEFAB
:10275000213E8EE1380740F4C90145E09695879502
:102760004A95E1F798E0980F61E0E62FE90FFF271F
:10277000FF1FAF0155954795842F449FF001459F5A
:10278000F00DF00D11242E173F0738F49FEF940F32
:10279000961758F78FEF860F08954F3FE9F361E0E2
:1027A000640FF6CF1F93172F922FE42FF0E0EE0F58
:1027B000FF1FE05BFE4F408124EE429F412D11241C
:1027C000E72FF0E050E09A01245E3F4F291B3109CA
:1027D00037FF03C031952195310993E0220F331F54
:1027E0009A95E1F7E21BF30BF7FF02C0E0E0F0E09F
:1027F0007E2F719F712D11241F910895EF92FF92EA
:102800000F939701201B31092F3F310519F010F06C
:102810002FEF30E0322F3095482F430F08F44FEF61
:10282000842F620F0F91FF90EF900895909196037F
:10283000982B909396030895FC019B01009719F43F
:10284000832F80780895AC0197FF04C04427552753
:10285000481B590BB901640F751F37FD0FC0C90123
:10286000841B950BA5E0880F991FAA95E1F70E949C
:10287000AE2E80E2861BF7FD81950895CB0165E0C1
:10288000880F991F6A95E1F7BA01621B730B0E94CA
:10289000AE2E80E6EFCF0F931F93CF93DF93D62F0B
:1028A000172FC82FBA01C901212F201B022F0E9408
:1028B0001C14982F990F990F782F791B700F719F07
:1028C000712D11246D2F8C2FDF91CF911F910F91BE
:1028D0000895FF920F931F93CF93DF93D62FC72FA7
:1028E000182FBA01C901F12EF01A0E941C14982F5A
:1028F000990F990F082F091B0F0D019F012D11240E
:102900006D2F7C2F802FCDB7DEB7E5E00C94F82E2D
:10291000EF920F931F93CF93DF93D62F172FC82FCC
:10292000BA01C9010E19010F0E941C14702F781BE7
:10293000719F712D11246D2F8C2FDF91CF911F91DD
:102940000F91EF90089548E050E067E170E08FEF5D
:1029500093E00E94412F1092960308950E949413D1
:1029600008950E94A3140895EFEFF3E085E08083BB
:102970008091640290916502A091660281839283A6
:10298000A3838FE784838FEF85830E94A314089528
:1029900080E008950F931F93CF93DF93C82FD62F16
:1029A0008A010E94C81490E1C99F9001112420500F
:1029B0003F4FF901ED0FF11D90819F3F29F0F80184
:1029C000E80FF11D90838F5FDF91CF911F910F91E1
:1029D0000895E091EE02F091EF0209950895E091DB
:1029E000EA02F091EB0209950895E091EC02F09172
:1029F000ED0209950895CF92DF92FF920F931F93F6
:102A0000CF93DF93CDB7DEB728970FB6F894DEBF2C
:102A10000FBECDBF182F062FF42E0E94BF0E8823A5
:102A200009F44CC0FF2009F457C0AE014F5F5F4F5F
:102A3000602F812F0E94CA14F82E0F2D10E0809174
:102A40009703800F912F911D09976CF188E090E01A
:102A50006C01C01AD10AB80168567C4FA60188E9FA
:102A600093E00E94132FB80160567C4FA60180EAC4
:102A700093E00E94132FA601440F551FB801660F63
:102A8000771F60557C4F80EB93E00E94132FB801B5
:102A900068557C4FA60188EA93E00E94132F88E0D6
:102AA0008F198093970310919703DE01119640E0F0
:102AB000242F210FF41212C02093970328960FB6EB
:102AC000F894DEBF0FBECDBFDF91CF911F910F9164
:102AD000FF90DF90CF900895F12CAFCF5D91852FBF
:102AE00090E030E0B90169567C4FFC01EE0FFF1F0A
:102AF000E05BFE4F0081FB010183880F991FFC0101
:102B0000EF5AFE4F8081FB018187518BF901EE0F57
:102B1000FF1FE956FC4F128E118E4F5FC9CF81E027
:102B200008950E948F15089591E1899F802D1124A9
:102B3000980F933508F092E50895A0E0B0E0E3EA3D
:102B4000F5E10C94D12E3C012B01FC0180810E9407
:102B50009415C82F192F609103046695809107047E
:102B6000909108040E949813F82ED0E0CE01880FAF
:102B7000991F9C01205B3E4F6901C11748F081E01D
:102B8000123508F080E0CDB7DEB7E0E10C94ED2E11
:102B9000FE01EC50FE4F8081F3019181892388234F
:102BA00079F1F6018081282F2057330B590181815B
:102BB000E82FE052FF0B4F01AA9C9001AB9C300D17
:102BC000300D1124EE9FC001EF9F900D900D112448
:102BD000820F931F0E94A213082F6091000470912E
:102BE000010480910204EF2C9401A501F2010995E2
:102BF0000E94AE14462F672F282FCE010E94EF149B
:102C0000F2E0CF0ED11C2196B8CF68E874E10E94A3
:102C10009D1508958F929F92BF92CF92DF92EF926F
:102C2000FF920F931F93CF93DF936C014B01FC0135
:102C300080810E949415C82F192F60910304669516
:102C400080910704909108040E949813B82ED0E058
:102C5000CE01880F991F9C01205B3E4F7901C1175F
:102C600080F081E0123508F080E0DF91CF911F9174
:102C70000F91FF90EF90DF90CF90BF909F908F903B
:102C80000895FE01EC50FE4F8081F6019181892369
:102C90008823C1F0F70121812052330B4081405736
:102CA000550B6091000470910104809102040B2D7A
:102CB000F40109950E94AE14462F672F282FCE01EC
:102CC0000E94EF14F2E0EF0EF11C2196C8CF6BE4E6
:102CD00074E10E940A16089569E674E10E940A16DA
:102CE0000895A0E0B0E0E7E7F6E10C94D92E7C016E
:102CF0006B01FC0180810E949415C82F192F6091EF
:102D000003046695669521E0620F08F46FEF8091E9
:102D10000704909108040E949813082FD0E0C1176F
:102D200048F081E0123508F080E0CDB7DEB7E8E08A
:102D30000C94F52EFE01EC50FE4F8081F70191813D
:102D40008923882391F0609100047091010480919F
:102D50000204202F4C2FF60109950E94AE14462F35
:102D6000672F282FCE010E94EF142196D8CF62ED55
:102D700073E10E9471160895AAE0B0E0E2ECF6E17A
:102D80000C94CF2E382E2B0149835A83FB0180816E
:102D90000E9494159D83F0910B04FE83282F30E050
:102DA0003A872987C901880F991FFC01E05BFE4F14
:102DB0006F01832D90E09C012F5F3F4F38872F8359
:102DC0008D819985981748F081E0ED81E23508F012
:102DD00080E02A96E2E10C94EB2EE985FA85EC502E
:102DE000FE4F8081F20191818923882309F1F091BE
:102DF0000004FB83209101042C838F819885855FDB
:102E00009B4F3C01232C10E0FE812F16D8F020911F
:102E10000204129F112D11246B817C81812F0E944D
:102E2000AE14462F672F282F89859A850E94EF14AC
:102E300029853A852F5F3F4F3A87298732E0C30EB5
:102E4000D11CBECFF30181913F01F601A080A81AE9
:102E5000BB088180F3018781881A9908AA9C900198
:102E6000AB9C300D300D1124889CC001899C900DC5
:102E7000900D1124820F931F0E94A213082F6091BE
:102E8000030421E0620F08F46FEFF301EE0FFF1F60
:102E9000EB50F440858996890E9498137C01940137
:102EA000A5016B817C81812FE981FA8109956B8372
:102EB0007C83182F2394A8CFBC0120910B0431E010
:102EC000231B08F420E04EEF53E1822F0E94BC1632
:102ED0000895A0E0B0E0EFE6F7E10C94D92E7C0174
:102EE000FC0180810E949415C82F192F6091000465
:102EF00070910104809102040E94AE14062FD72E17
:102F0000C82ED0E0C11748F081E0123508F080E00B
:102F1000CDB7DEB7E8E00C94F52EFE01EC50FE4F85
:102F20008081F70191818923882331F02C2D402F56
:102F30006D2DCE010E94EF142196E4CFA0E0B0E009
:102F4000E4EAF7E10C94D62E7C01FC0180810E941A
:102F50009415C82F192FD0910004A0900104B090AF
:102F600002046D2F7A2D8B2D0E94AE14062FD72EC2
:102F7000C82E809103046D2F680F7A2D8B2D0E942F
:102F8000AE14B62EA72E982ED0E0C11748F081E0DF
:102F9000123508F080E0CDB7DEB7EBE00C94F22EEE
:102FA000FE01EC50FE4F9081F70181818923882337
:102FB00059F0292D4B2D6A2D90FD03C02C2D402F4B
:102FC0006D2DCE010E94EF142196DFCFCF93C82F35
:102FD00080914C0291E08C130CC02091FF03237070
:102FE00030E040914D0250E091E02417350709F49C
:102FF00090E0917090934B028091040490914A026A
:10300000981739F080934A0240E060E080E00E9427
:10301000F514C83008F051C0EC2FF0E0ED57F04D3A
:103020000C94C22E80914B02882309F44FC040E0DB
:1030300060E080E00E94F514809149028F5F8093E8
:10304000490282E08093480280914B02882309F470
:1030500042C0CF91089589E492E00E94691790914F
:1030600049029F5F909349028111F3CF82E08093E0
:10307000480280914B028111ECCFCC23E8CF89E448
:1030800092E00E949E17EBCF89E492E00E94B7166F
:10309000E6CF89E492E00E946716E1CF89E492E0EE
:1030A0000E946C16DCCF89E492E00E940516D7CF0F
:1030B00089E492E00E945C17D2CF809149028F5F31
:1030C0008093490282E080934802C3CF80914902F5
:1030D0008F5F8093490283E0F6CF81E008950E94DC
:1030E0006D180895FC01808181500E949415692F0C
:1030F0000E946F1808954F925F926F927F928F9205
:103100009F92AF92BF92CF92DF92EF92FF92CF93B6
:10311000DF9300D000D0CDB7DEB78091C00390918F
:10312000C103A091C203B091C30389839A83AB8387
:10313000BC83BC01CD010E940E276B017C010E9463
:10314000E2266093C0037093C1038093C2039093FF
:10315000C303A0919703E7E9F3E02A2F30E0882426
:103160008A94982CA12CB12C8C189D08AE08BF080D
:10317000A3132FC0209397032091C40321113CC0B7
:103180002091FF03A22FA370A983AA2319F02695EB
:103190002695298320914802223009F455C070F504
:1031A000211141C0109249026093070470930804F2
:1031B0008093090490930A0489E2E7E9F3E0ABE025
:1031C000B4E001900D928A95E1F781E08093480286
:1031D00017C0418D528D2A01612C712C84149504E5
:1031E000A604B70420F421503F5F3296C1CF4C0DA6
:1031F0005D1D528F418FF8CF1982CCCF233081F1E2
:103200000F900F900F900F90DF91CF91FF90EF9064
:10321000DF90CF90BF90AF909F908F907F906F90F6
:103220005F904F90089589810E94E617B981BB2372
:1032300039F380914802823011F40E94911589E49B
:1032400092E00E947218DCCF398130934C02809159
:10325000FF03837080934D020E94E91483E0B6CF90
:103260008091960381110E94A3148091070490918C
:103270000804A0910904B0910A04BC01CD010E9488
:103280000E2769837A838B839C8360317105810566
:10329000910508F4B5CF10924802B2CFE091E80250
:1032A000F091E902099510920B0440E150E06FEFB4
:1032B00070E084E294E00E941C2F1092970340E19A
:1032C00050E06FEF70E080EB93E00E941C2F81E0F4
:1032D0008093960348E050E067E170E08FEF93E061
:1032E0000E94232F109296038091FF03843010F4E4
:1032F0000E94B4140895CF93C82F882391F0809131
:10330000C40381110EC00E94E61710924C028091F6
:10331000FF03837080934D020E94E91483E0809341
:103320004802C093C403CF910895EFEFF3E090817A
:1033300021E092279083109248020E94161408956B
:1033400080E00E949519089581E00E9495190895E2
:103350008091FF038370811102C010924802809116
:10336000FF038C7F81608093FF0308958091FF03AA
:1033700083708111109248028091FF038C7F8093AB
:10338000FF0308958091FF0383700895982F862F7F
:103390002091FF032370222389F0992381F0983034
:1033A00080F49F73990F990F2091FF032370922B44
:1033B0009093FF03109248020E941614089591E022
:1033C000F1CF97E0EFCF60E00E94C619089561E069
:1033D0000E94C61908958091FF03869586950895E9
:1033E000682F8091FF03869586958F5F883008F05F
:1033F00081E00E94C619089581E00E94F0190895A5
:10340000682F9091FF03969596958FEF890F9130D5
:1034100009F487E00E94C619089581E00E94001A0D
:103420000895982F822F2091FF032370222359F0B3
:1034300090930004609301044E3708F04DE74093E9
:1034400002040E941614089520E00E94111A0895A3
:1034500080910004089580910104089580910204F0
:103460000895282FEFEFF3E09181892F90E04381B9
:10347000628108960E94111A089581E00E94311A13
:103480000895282FEFEFF3E0818143816281885016
:10349000990B0E94111A089581E00E94411A089523
:1034A000282FEFEFF3E0628130E1630F08F46FEF54
:1034B0008181438190E00E94111A089581E00E9469
:1034C000501A0895282FEFEFF3E0628130E1631B7B
:1034D00008F460E08181438190E00E94111A089510
:1034E00081E00E94621A0895282FEFEFF3E04381F4
:1034F00030E1430F08F44FEF8181628190E00E9438
:10350000111A089581E00E94741A0895282FEFEF90
:10351000F3E0438130E1431B08F440E081816281A4
:1035200090E00E94111A089581E00E94861A089581
:103530008093030480E00E94161408958091030490
:103540000895EFEFF3E0248130E1230F08F42FEF2B
:1035500024830E941614089581E00E94A11A089500
:10356000EFEFF3E0248130E1231B08F420E0248313
:103570000E941614089581E00E94B01A0895CF9316
:10358000DF93DC01FC01EE0FFF1FEF01CA0FDB1F11
:10359000CC5CDB4F8981861306C08881841303C00D
:1035A0008A81821751F081E08093C503EA0FFB1FE7
:1035B000EC5CFB4F618340832283DF91CF910895C0
:1035C000FF920F931F93CF93DF93182F062FF42EA4
:1035D000C0E0D0E02F2D402F612FCE010E94BF1AF6
:1035E0002196C235D105B1F7CDB7DEB7E5E00C9431
:1035F000F82E8091C503882341F062E570E084E3F2
:1036000094E00E946B1B1092C50308950E94691BF1
:103610001092C5030895FA01882311F009950895C1
:10362000FB01FCCF1F93CF93DF93EC01FB011581CE
:1036300011114DC00E94D20C8272FE01E052F84777
:10364000E531F10508F043C0E557F04D0C94C22E6A
:103650000E94A419812FDF91CF911F9108954DE011
:103660005AE16CEF79E10E940B1BF4CF4CEF59E16A
:103670006DE07AE1F8CF4CE45AE16DE37AE1F3CF03
:103680004DE35AE16CE47AE1EECF40E75AE16EE5B2
:103690007AE1E9CF4EE55AE160E77AE1E4CF44E927
:1036A0005AE162E87AE1DFCF42E85AE164E97AE17F
:1036B000DACF4BEB5AE16CEA7AE1D5CF4CEA5AE12A
:1036C0006BEB7AE1D0CF81E00E94E719C3CF11E024
:1036D000C1CF279A08959C01AB0165B16F7775B191
:1036E0007068EFB7F894CA01880F991F840F951F6F
:1036F000820F931F8217930741F4EFBF8FE594E089
:103700000197F1F700C000000895D9014D919D0186
:1037100058E075B9000000C047FF65B9440F0000CC
:1037200000C000C000C065B900C05A9591F7E2CF53
:103730000E94C90D089580E00E949811817008953B
:103740000E9461122FEF86E791E021508040904067
:10375000E1F700C000000E9461120E949B1B8823B9
:1037600021F00E94981B0E94522708950E94A01BDE
:10377000089584E0089590E2699FB001112450E01B
:10378000440F551F640F751F90EA899F600D711DCE
:103790001124CB01889608950F931F93CF93DF9345
:1037A0008430C8F46530B8F44031A8F40E94BB1BE3
:1037B0008C010E94332FC82FD0E0DC2FCC27C8010A
:1037C00001960E94332F9E01282BC901DF91CF91D2
:1037D0001F910F91089580E090E0F8CF0F931F9311
:1037E000CF93DF93122F032F843078F4653068F481
:1037F000403158F40E94BB1BEC01602F0E94512FF6
:10380000612FCE0101960E94512FDF91CF911F9120
:103810000F9108951F93CF93DF93D0E0C0E011C0C4
:10382000412F6C2F8D2F0E9470039C01412F6C2F14
:103830008D2F0E94EE1B1F5F103191F7CF5FC530B7
:1038400011F010E0EDCFDF5FD43041F7DF91CF9181
:103850001F910895EF92FF920F931F93CF93DF93E1
:103860008C01EA017A01E60EF71ECE15DF0529F478
:10387000CDB7DEB7E6E00C94F72E003882E01807EB
:1038800040F4C80188960E94332F89930F5F1F4F21
:10389000ECCF80E0FACFEF92FF920F931F93CF937C
:1038A000DF938C01EA017A01E60EF71ECE15DF05E3
:1038B00029F4CDB7DEB7E6E00C94F72E003882E0AD
:1038C000180728F46881C80188960E94512F219614
:1038D0000F5F1F4FEBCF843038F4653028F4403150
:1038E00018F40E94CC1B089580E090E0089580E1D8
:1038F000089588E591E00895EF92FF920F931F934A
:10390000CF93DF938C01EA017A01E60EF71ECE1504
:10391000DF0529F4CDB7DEB7E6E00C94F72E0835C5
:1039200081E0180748F4C80188559D4F0E94332F45
:1039300089930F5F1F4FEBCF80E0FACFEF92FF929A
:103940000F931F93CF93DF938C01EA017A01E60E68
:10395000F71ECE15DF0529F4CDB7DEB7E6E00C94EF
:10396000F72E083581E0180730F46881C8018855C2
:103970009D4F0E94512F21960F5F1F4FEACFCF938B
:10398000DF93C8EAD2E060E0CE010E94512F219679
:10399000C11584E0D807B9F7DF91CF910895A8E069
:1039A000B0E0E5EDFCE10C94D92EF82E2FE02817BD
:1039B00008F46FC08FEF93E00E94332F811169C02C
:1039C00008EA12E0F11038C01A821982FE0133961B
:1039D00086E0DF011D928A95E9F76801BFEFCB1AF7
:1039E000DB0AC8010E94332F89831A82882309F4D5
:1039F00050C08130D1F4780122E0E20EF11CC60102
:103A00000E94332F8A83882309F443C09FEF980FC5
:103A10009330F8F4680183E0C80ED11CC7010E94FE
:103A2000332F8B838823A9F11C8260E0CE0101969D
:103A30000E9479218601D1CF011584E0180749F150
:103A4000C8010E94332F0F5F1F4F8111F5CFFA94E9
:103A5000B9CF8430B9F402E010E0C701AFEFEA1A41
:103A6000FA0A0E94332FE1E0F0E0EC0FFD1FE00FB7
:103A7000F11F8083882369F08C3731F4FE01E00F59
:103A8000F11F12826701D1CF0F5F1F4F0730110561
:103A900021F72896E8E00C94F52ECF93DF93EB0105
:103AA00086319C4719F50E94D20C9D819923A1F083
:103AB0008A7A91E0811101C090E09093C603882337
:103AC00049F085E30E94EC250E94650D80E0DF91BE
:103AD000CF91089589E2F6CF8091C603882321F023
:103AE00085E30E94F425F0CF89E2FBCF81E0EFCFA0
:103AF000CF93DF93EC01FB018581882309F4D2C0C9
:103B00009E0130572332310508F0B2C00E94E60D05
:103B10009093EA038093E903FE01E150F047E2321B
:103B2000F10520F4E056F04D0C94C22E8091E9038B
:103B300081608093E90393C08091EA038860809359
:103B4000EA038DC08091E9038260F3CF8091E9039D
:103B50008460EFCF8091E9038860EBCF8091EA0326
:103B60008160EDCF8091EA038260E9CF8091E90323
:103B70008061DFCF8091E9038062DBCF8091E90330
:103B80008064D7CF0E9468088091E9038068D1CF14
:103B90008091E9038C60CDCF8091EA038360CFCF21
:103BA0008091E9038E7FC5CF8091EA03877FC7CFDD
:103BB0008091E9038D7FBDCF8091E9038B7FB9CFE1
:103BC0008091E903877FB5CF8091EA038E7FB7CFDD
:103BD0008091EA038D7FB3CF8091E9038F7EA9CFD7
:103BE0008091E9038F7DA5CF8091E9038F7BA1CFE1
:103BF0000E9468088091E9038F779BCF8091E90349
:103C0000837F97CF8091EA038C7F99CF8091E903DE
:103C100082FB992790F921E0922790FB82F990FB93
:103C200083F987CF8091EA03982F909591708E7FCA
:103C3000892B90FB81F983CF9091E903892F8F7BAA
:103C400096FF806476CF0E9468089091E903892FDF
:103C500097FB87F980586DCF81E00E94710E8091AB
:103C6000E9039091EA030E94EB0D0E94680880E04E
:103C7000DF91CF91089580E0F0CF9091E903892FF3
:103C80008F7E94FF806155CF9091E903892F8E7FBD
:103C900090FF81604ECF9091EA03892F877F93FF39
:103CA00088604DCF81E0E4CF282F35EB2303C0019E
:103CB000112497FF04C080589109892F08958058D6
:103CC0009F4FFBCF8091CD0380FF0DC060915302C9
:103CD00070E0660F771F60387105C0F561157105DA
:103CE000B9F1862F089581FF07C06091530284E0E7
:103CF000689FB0011124EFCF82FF04C0609153028E
:103D000088E0F6CF8091CC038823E9F090915202AD
:103D10006091530270E0891730F093E0660F771FCF
:103D20009A95E1F7D8CF869F9001879F300D112497
:103D300083E0220F331F8A95E1F7692F70E0C901F4
:103D40000E94AE2EC8CF68E070E0CBCF8FE7089519
:103D500081E008958091CD0380FF0CC060914F02F7
:103D600070E075956795759567956115710561F1B9
:103D7000862F089581FF06C060914F0270E075950F
:103D80006795F3CF60914F0270E082FD15C02091DE
:103D9000CB032223B1F090914E0260914F0270E06C
:103DA000291750F4269FA001279F500D1124692F39
:103DB00070E0CA010E94AE2E60387105B0F28FE744
:103DC000089561E070E0D4CF81E00895E3E3E80F67
:103DD000E331E0F5F0E0EE53F04D0C94C22E0E947A
:103DE000621E81958093D10308950E94621EFACFCE
:103DF0000E94621E81958093D00308950E94621EE6
:103E0000FACF0E94AA1E8093D20308950E94AA1E90
:103E10008195F9CF0E94AA1E81958093D3030895BE
:103E20000E94AA1EFACF815D990B21E030E001C00B
:103E3000220F8A95EAF78091CF03822B8093CF03DC
:103E400008958091CD0381608093CD030895809182
:103E5000CD038260F9CF8091CD038460F5CF40918E
:103E6000D0038D3C59F48091D10387FF0DC010928F
:103E7000D103442359F41092CC0308C08E3C81F442
:103E80008091D10318169CF3442381F08091D203D2
:103E90009091D303892B811159C01092CB030895BF
:103EA0008F3C41F447FFF0CF1092D0038091D103B3
:103EB0008823E0CF803D19F41416B4F3E5CF909138
:103EC000D203893D29F41916FCF61092D203DCCFF7
:103ED0008A3D19F497FFD8CFF8CF9091D3038B3D4B
:103EE00029F497FFD1CF1092D303CECF8C3D19F494
:103EF0001916CCF3C9CF9FE2980F983090F4815DEA
:103F0000990B21E030E0B90102C0660F771F8A9556
:103F1000E2F7CB0180959091CF0389238093CF0363
:103F2000B3CF8D3D31F48091CD038E7F8093CD034F
:103F3000ABCF8E3D21F48091CD038D7FF7CF8F3DA8
:103F400009F0A2CF8091CD038B7FF0CF08950E941E
:103F5000D6262091D0033091D103232B222321F0A8
:103F60008093C9039093CA032091D2033091D30365
:103F7000232B222321F08093C7039093C8038EEC58
:103F800093E00E944025089586E0EEECF3E0DF0127
:103F90001D928A95E9F71092CC031092CB031092F0
:103FA000CD030895FC01828181110DC083818111AF
:103FB0000AC08481811107C081E09581911101C0FF
:103FC00080E08170089581E0FCCFA6E0B0E0EBEEE8
:103FD000FFE10C94DC2E86E0EEECF3E09E012F5F17
:103FE0003F4FD90101900D928A95E1F71092D003CD
:103FF0001092D1031092D2031092D3038B819C8133
:10400000892B8901882391F08091C9039091CA037B
:104010000E94FF269C018091CC038823C9F1409126
:10402000540250E04217530708F43FC08D819E812F
:10403000892B882399F08091C7039091C8030E942F
:10404000FF269C018091CB03882309F467C040912F
:10405000500250E04217530708F46EC0B8018EECCE
:1040600093E00E940726811105C08EEC93E00E9428
:10407000D21F81110E94A71F86E0F801AEECB3E0C9
:1040800001900D928A95E1F72696E5E00C94F82EC2
:10409000409155029AE0499FA0011124421753070D
:1040A00028F68F5F8093CC0302C08F3FD1F7FB804F
:1040B000FF2059F00E94621E91E01F140CF09FEF48
:1040C000899F802D11248093D003FC80FF2059F01C
:1040D0000E94621E91E01F140CF09FEF899F802DBB
:1040E00011248093D1038091D003882309F49ECFBB
:1040F000F090D103FF2009F499CF0E94541E811142
:1041000001C081E08093D0038F2D0E94541E88232C
:1041100019F08093D1038ACF81E0FBCF4091510207
:104120009AE0499FA00111244217530708F096CF47
:104130008F5F8093CB0302C08F3FD1F7FD80FF20BC
:1041400059F00E94AA1E91E01F140CF09FEF899F66
:10415000802D11248093D203FE80FF2059F00E940D
:10416000AA1E91E01F140CF09FEF899F802D11244F
:104170008093D3038091D203882309F46FCFF0900A
:10418000D303FF2009F46ACF0E94541E811101C09D
:1041900081E08093D2038F2D0E94541E882319F052
:1041A0008093D3035BCF81E0FBCFA0E0B0E0EBEDE9
:1041B000F0E20C94D82EE82FF0E0E45DFB4FB490D1
:1041C000282F26952695269530E0F901E453FB4FDC
:1041D0000491877010E0082E02C0159507950A9487
:1041E000E2F701701127F901E454FB4FE490F12C40
:1041F000082E02C0F594E7940A94E2F791E0E922D0
:10420000FF24F901E455FB4FC491D0E002C0D595DD
:10421000C7958A95E2F7C170DD27C62ED12C01150E
:10422000110549F5E114F10431F086EE0E940D0507
:10423000C601009771F5B6018B2D0E94F405C601E9
:10424000009779F5E114F104A1F50115110531F09C
:1042500081EE0E949A05C6010097C9F5CD2B31F079
:104260008CE20E940C06C114D104C9F5CDB7DEB7AB
:10427000E9E00C94F42E81EE0E940D05C601009732
:1042800089F2EFE9FFE03197F1F700C000000197F4
:10429000F6CFEFE9FFE03197F1F700C0000001979A
:1042A000C8CFEFE9FFE03197F1F700C000000197B8
:1042B000C7CF86EE0E949A05C601009731F2EFE95A
:1042C000FFE03197F1F700C000000197F6CFEFE96A
:1042D000FFE03197F1F700C000000197BDCF8FE9F3
:1042E0009FE00197F1F700C0000091E0C91AD108E2
:1042F000BACFEF92FF921F93CF93DF93EC01162F6B
:104300008881882309F45AC0813009F053C089811B
:10431000813071F47E0182E0E80EF11C8A810E94F6
:104320000C06E701812F90E00097E1F52196E8CF98
:10433000823041F47E01E2E0EE0EF11C8A810E949F
:104340000D05EFCF833041F47E01F2E0EF0EF11C5A
:104350008A810E949A05E5CF843011F02196E2CF40
:104360002A81229680E090E06AE0AE014F5F5F4FC5
:104370002053330B2A30310550F0009799F2EFE9C2
:10438000FFE03197F1F700C000000197F6CF689F7A
:10439000F001699FF00D1124C9018E0F9F1F298123
:1043A000EA01E3CFEFE9FFE03197F1F700C0000049
:1043B0000197BACF612F0E94D520B8CFDF91CF915E
:1043C0001F91FF90EF9008950F931F93CF93DF936A
:1043D000C42FD22FFC0185818823C9F04093D603D6
:1043E0000E94D6269093D5038093D40380E28C0F4D
:1043F000883040F4C77081E001C0880FCA95EAF7A1
:104400000E941506DF91CF911F910F910895109191
:10441000D60314133CC08091D4039091D5030E941D
:10442000FF26883C910598F5C0E2CD0F1D1741F19C
:1044300080E2810F883040F4177081E001C0880F5E
:104440001A95EAF70E941C06C83020F0802F0E94BF
:104450000C06D8CF91E08D2F877001C0990F8A95F7
:10446000EAF7892F0E941506802F0E940C06D7704C
:1044700081E001C0880FDA95EAF70E941C06C2CFDE
:10448000802F0E940C06C83008F0BCCFF0CF80E22D
:104490008C0F883008F0B6CFC77081E001C0880F5C
:1044A000CA95EAF7EACF0F93FC01CB01E851FC472C
:1044B000E730F10590F5EB52F04D0C94C22E06E278
:1044C00021EE41EE6AE17CE70E94E42180E00F9159
:1044D000089507E225EE45EE6BE17CE7F5CF06E2B5
:1044E00021EE40EE68E17CE7EFCF07E225EE44EEF7
:1044F00069E17CE7E9CF06E221EE42EE6CE17CE780
:10450000E3CF07E225EE46EE6DE17CE7DDCF08E282
:1045100021E045EE6EE17CE7D7CFFB01858181117B
:104520001092D60381E0D3CFCF93DF939C01FB01A0
:1045300027378CE7380739F028373C47F1F081E01E
:10454000DF91CF9108958581882391F00E94C62242
:104550000E94E2080E94CC22D82F0E94C922C82FB4
:104560000E94C6224D2F6C2F0E94130A80E0E8CFD4
:104570000E94C6220E94EE08EDCF8581882319F0A3
:104580000E94C922E5CF0E94C922F4CF809158022F
:10459000089580915702089580915602089584E20B
:1045A00090E00E94332F843289F485E290E00E94EB
:1045B000332F893059F486E290E00E94332F91E046
:1045C000893209F090E0892F8170089580E0FCCF56
:1045D000882381F064E284E290E00E94512F69E038
:1045E00085E290E00E94512F69E286E290E00E940D
:1045F000512F08956FEF84E290E00E94512F6FEFEA
:1046000085E290E00E94512F6FEFEFCF0895A4E074
:10461000B0E0EDE0F3E20C94DF2E87E290E00E9440
:10462000332F282F30E040E050E0CA01B901249632
:10463000E2E00C94FB2E0895CF93C62F0E941B231B
:104640006C2F87E290E00E94512FCF91089580E077
:104650000E94E82260E070E0CB010E941C230E94CF
:104660000A1C0E94BF1C81E00E94E82208950E945B
:1046700006230E9407230E941B230E94CF22811140
:1046800002C00E94272308950E94A01908959C014A
:10469000FB018581882351F0A90157574038510506
:1046A00030F4822F0E94CF1C80E0089581E00895AD
:1046B0002FEFFC012083089580E00895CF93DF93CE
:1046C000EC018881833021F138F4813071F082303F
:1046D000C1F0DF91CF9108958430D9F70E94281A54
:1046E00089830E942B1A8A83F4CF0E942E1A2FEFFF
:1046F000829FC00111246DE770E00E949A2E6983A9
:10470000E8CF0E94C21981110E94EB198983E1CF81
:104710000E949E1AFBCF1F93CF93DF93EC018881F9
:10472000833069F140F4813071F08230E1F0DF9143
:10473000CF911F9108958430D1F70E942E1A482FEF
:1047400089816A810CC019812DE7129F112D1124D6
:104750000E942B1AC82F0E94281A412F6C2F90E01C
:104760000E94241AE4CF8981811103C00E94B619E6
:10477000DECF0E94A81989810E94E319D8CF8981D0
:104780000E94981AD4CFFC019C012E5F3F4F90816C
:10479000983041F0993051F0973059F4C9010E9496
:1047A0008B230895C9010E945E2308950E94B114CD
:1047B00008958FEF80830895FC012181233019F43F
:1047C0000E94C32308950E9458230895CF92DF9238
:1047D000FF920F931F93CF93DF93CDB7DEB72E9742
:1047E0000FB6F894DEBF0FBECDBF8D839E83F62E2D
:1047F0008D819E810E945C23811115C0AD81BE8197
:10480000EC91E150E33140F5F0E0E452F04D0C94CE
:10481000C22EED81FE8111828CE082836F2D8D810D
:104820009E810E94CE272E960FB6F894DEBF0FBE53
:10483000CDBFDF91CF911F910F91FF90DF90CF906F
:104840000895AD81BE8111968C91833099F148F421
:10485000813081F08230E9F08FEFAD81BE818C93A1
:10486000DDCF8430C9F7ED81FE811282138214827C
:104870001582D4CF0E94E2260E94C82E6F837887CB
:1048800089879A87ED81FE81628373838483958310
:10489000C5CF0E9407230E94C82E6B877C878D8717
:1048A0009E87AD81BE8112966D937D938D939C936F
:1048B0001597B4CFED81FE81028110E06F01B2E067
:1048C000CB0ED11C053011050CF0A8CF802F0E9413
:1048D0009811D60111969C93119712968C930F5FA5
:1048E0001F4FEDCFED81FE818181823049F085300F
:1048F00009F0B2CFED81FE8182810E9444238ECFE8
:10490000AD81BE8112968D919D910D90BC91A02D8F
:1049100089839A83AB83BC83BC01CD010E94C82EDE
:104920000E941C237BCFAD81BE8113964C911397BF
:1049300012966C91129711968C910E94CC1B98271D
:1049400089279827ED81FE819583848367CFAD8188
:10495000BE8114962D913C9115973227232732273B
:1049600013964C91139712966C91129711968C9105
:104970000E94EE1B53CF0E940A1C50CF6F2D8D81D9
:104980009E810E94DC234ACF0E94771CED81FE812C
:10499000818344CF0E94791C982789279827AD816D
:1049A000BE8112969C938E93119738CFED81FE8134
:1049B000638170E081819281AF014C5F5F4F9827E6
:1049C000892798270E947C1C29CFAD81BE81139630
:1049D0006C91139770E011968D919C911297AD0197
:1049E0004C5F5F4F9827892798270E949E1C16CFFF
:1049F0000E94BF1C13CF0E94B91BC8CFAD81BE81DE
:104A000013966C91139770E011968D919C9112976B
:104A1000AD014C5F5F4F9827892798270E942A1C79
:104A2000FDCEED81FE81638170E081819281AF01D5
:104A30004C5F5F4F9827892798270E944B1CEECE2A
:104A40009093DC038093DB030895E091DB03F09106
:104A5000DC03309729F00190F081E02D099508954D
:104A600080E008950E9425250895E091DB03F091F0
:104A7000DC03309721F00280F381E02D0995089541
:104A8000DC01E091DB03F091DC03309739F082E048
:104A90008C930680F781E02DCD0109950895A3E060
:104AA000B0E0E5E5F5E20C94DF2E9C018091D9039E
:104AB0009091DA0382179307A1F03093DA032093E1
:104AC000D903E091DB03F091DC03309751F083E0F0
:104AD00089833B832A830084F185E02DCE010196F2
:104AE00009952396E2E00C94FB2EA3E0B0E0EBE7FF
:104AF000F5E20C94DF2E9C018091D7039091D803AE
:104B000082179307A1F03093D8032093D703E09145
:104B1000DB03F091DC03309751F084E089833B8321
:104B20002A830084F185E02DCE0101960995239614
:104B3000E2E00C94FB2E40914602509147029A010C
:104B40002E5F3F4F485F5F4F80E0F90190812F5FFC
:104B50003F4F91118F5F42175307B9F7089588238C
:104B600071F02091460230914702F9013296285F98
:104B70003F4F9191981729F0E217F307D1F780E0A2
:104B8000089581E008959C01FC0132968FEF90E03A
:104B90004191461751F08F3F19F4411101C0892FFF
:104BA0009F5F9630A9F78F3F09F40895280F311DB4
:104BB00087FD3A95F901628308959C01FC013296C4
:104BC000285F3F4F8191861303C0DF0111971C922C
:104BD000E217F307B9F70895682F80914602909184
:104BE00047020E94C3250895682F80914602909144
:104BF00047020E94DD250895E0914602F0914702A8
:104C0000329686E0DF011D928A95E9F70895DC016E
:104C1000FB0111969C9111978181981322C01296E5
:104C20008C911297882319F0928189131AC01396D8
:104C30008C911397882319F09381891312C01596CC
:104C40008C911597882319F0958189130AC01496C1
:104C50009C91992321F081E02481291303C080E0F5
:104C600001C081E08170089508950E94342608955E
:104C70008F5F8093DD030E943526089583E0809343
:104C8000DD030E94352608950E943826089581E0AC
:104C90008093DD030E94352608950E9447260895DB
:104CA000089508950E9451260895089508950E9438
:104CB00050260895CF930E9455260E9461120E94AB
:104CC0005626C0E08C2F0E949811892B31F4CF5FBB
:104CD000C530C1F780E0CF91089581E0FCCF85B762
:104CE000806885BF85B7806885BF08951F921FB60D
:104CF0001F9211248F939F93AF93BF938091DE03F4
:104D0000811113C080912A0590912B05A0912C054B
:104D1000B0912D054196A11DB11D80932A05909358
:104D20002B05A0932C05B0932D05BF91AF919F91BA
:104D30008F911F901FBE1F9018958091320584306F
:104D400031F10E9480041092DE0388E190E020E4BB
:104D50000FB6F894A895809360000FBE2093600072
:104D600083B7817F846083BF83B7816083BF78947A
:104D7000889583B78E7F83BF0FB6F894A8958091EE
:104D80006000886180936000109260000FBE0895FB
:104D90000E9468080E948A04089582E084BD93E01E
:104DA00095BD9AEF97BD80936E0008952FB7F89444
:104DB00080912A0590912B05A0912C05B0912D058D
:104DC0002FBF0895A4E0B0E0E8EEF6E20C94DF2EE9
:104DD0008FB7F89420912A0530912B0540912C052E
:104DE00050912D0529833A834B835C838FBF698162
:104DF0007A818B819C812496E2E00C94FB2E9C01AD
:104E00004FB7F89480912A0590912B05A0912C051D
:104E1000B0912D054FBF821B930B0895A4E0B0E025
:104E2000E4E1F7E20C94DD2E462F572FBC012FB79B
:104E3000F89480912A0590912B05A0912C05B091B2
:104E40002D052FBF8C019D01041B150B260B370B65
:104E5000C901B8012496E4E00C94F92E78941F92CD
:104E60001FB61F9211248F939F93AF93BF9380918E
:104E70002A0590912B05A0912C05B0912D05019646
:104E8000A11DB11D80932A0590932B05A0932C059D
:104E9000B0932D05BF91AF919F918F911F901FBE31
:104EA0001F90189581E08093E00080E28093D80005
:104EB0001092C9008FE19EE40197F1F700C0000055
:104EC00087E090EBDC0180933B0590933C05A09339
:104ED0003D05B0933E0588E19CE00FB6F894A89597
:104EE000809360000FBE90936000FFCF88E19CE04C
:104EF0000FB6F894A895809360000FBE9093600061
:104F0000FFCF8091E70308950895282FCB01BA01C0
:104F1000309132053430E1F42F702093E9002FEF07
:104F20003091E80035FD07C035ED3A95F1F7000006
:104F300021502111F5CF2091E80025FF09C040E064
:104F400050E00E94C9298091E8008E778093E800A4
:104F50000895BC0143E050E084E00E948527089555
:104F6000BC0146E050E084E00E9485270895CF937D
:104F7000DF93D82FC92F48E050E0682F792F81E0C8
:104F80000E94852788E0ED2FFC2FAFEDB3E0019064
:104F90000D928A95E1F7DF91CF910895792F6032D4
:104FA00031F440E250E0682F82E00E9485270895A6
:104FB000A0E2B0E0EEEDF7E20C94DF2E8091320536
:104FC000843081F483E08093E9008091E80082FFDF
:104FD00009C08091E80085FD09C08091E8008B77C9
:104FE0008093E800A096E2E00C94FB2E40E050E0B5
:104FF00060E270E0CE0101960E94182A8091E800DC
:105000008B778093E80060E2CE0101960E94E62350
:10501000E9CF80913105811109C00E94A02B0E9427
:10502000FD2B8091E20084608093E200089510924D
:10503000310508950E944726089560912E0581E06C
:10504000611101C080E00E943E26089590913205D2
:1050500081E0943009F080E060912E050E944426A2
:10506000089542E061EC81E00E941C2B42E261EC79
:1050700084E00E941C2B42E261EC82E00E941C2B27
:1050800042E260EC83E00E941C2B9091320581E0AB
:10509000943009F080E060912E050E943826089532
:1050A00080913405893089F148F4823009F4A1C037
:1050B000833009F45BC0813041F008958A3009F4EF
:1050C00088C08B3009F46DC0089580913305813A12
:1050D00009F04BC08091E800877F8093E8008091C1
:1050E000370590913805892B61F060E080E090E011
:1050F00070E00E94672A8091E8008B778093E80037
:10510000089568E08FED93E0F3CF8091330581320D
:1051100061F580913705909138058D7F892B29F5B0
:105120008091E800877F8093E8008091E80082FF0B
:1051300018C09091F3008091F200029731F48091B1
:10514000F100813011F0863021F48091F1008093DC
:10515000E7038091E8008B778093E8000E94502B52
:1051600004C0809132058111E0CF0895809133050C
:10517000813AD9F78091370590913805892BA9F7A5
:105180008091E800877F8093E8008091E80080FFAD
:10519000FCCF809163028093F1008091E8008E77CC
:1051A000DBCF80913305813201F7809137059091F3
:1051B0003805892BD1F68091E800877F8093E8003D
:1051C0000E94502B80913505809363020E946808ED
:1051D000089580913305813241F68091E800877F00
:1051E0008093E8000E94502B809136058093E8035D
:1051F000089580913305813A09F0B7CF8091E80096
:10520000877F8093E8008091E80080FFFCCF809149
:10521000E803C1CF84B7877F84BF0FB6F894A89501
:1052200080916000886180936000109260000FBEE2
:1052300080E890E00FB6F89480936100909361004D
:105240000FBE0E944D2608950E94A02B0E94FD2BA8
:10525000E2EEF0E080818460808378940E94802E6A
:10526000089589E592E00E942025089580913205F5
:10527000853031F480913205853019F00E94C826BE
:1052800008950E949D260E945A26882399F38091B2
:105290003005882379F30E94B3290E946808EACF79
:1052A00008959A014091390550913A050E94592973
:1052B0000895AC01CB01D901252F332723303105C7
:1052C00021F168F42130310509F443C02230310561
:1052D00009F444C080E090E020E030E024C02132B6
:1052E000310551F122323105A9F78330910590F74C
:1052F000FC01EE0FFF1FED50FD4F208131818051E9
:105300009D4FFC01808190E00EC0CA019927413079
:1053100069F08230910569F0EAE1F5E0892BD1F678
:10532000849190E09F012D933C930895E4E0F5E093
:10533000F7CFECEDF4E0F4CF8330910558F6FC01A3
:10534000EE0FFF1FE750FD4F2081318189E090E093
:10535000EACF82E190E029E735E0E5CF8BE590E008
:105360002EE135E0E0CF80E189BD82E189BD09B45D
:1053700000FEFDCF8091D8008F7D8093D800809172
:10538000E00082608093E0008091E00081FDFCCF2E
:105390000895AF92BF92CF92DF92FF920F931F9327
:1053A000CF93DF936C01EB018A010E946F2BF82EE3
:1053B000811123C00115110539F0F8018081918117
:1053C000C81BD90BC80ED91EA12CB12C2097A9F04F
:1053D0008091E80085FD22C08091E8008E7780935F
:1053E000E80001151105A1F0F801808191818A0D75
:1053F0009B1D9183808385E0F82E8F2DDF91CF91C7
:105400001F910F91FF90DF90CF90BF90AF900895C4
:105410000E946F2B8823E1F2F82EEFCFF6018191E5
:105420006F018093F1002197FFEFAF1ABF0ACECF33
:10543000AF92BF92CF92DF92FF920F931F93CF93C1
:10544000DF936C01EB018A010E946F2BF82E811112
:1054500023C00115110539F0F80180819181C81B25
:10546000D90BC80ED91EA12CB12C2097A9F0809180
:10547000E80085FD22C08091E8008B778093E800EA
:1054800001151105A1F0F801808191818A0D9B1D04
:105490009183808385E0F82E8F2DDF91CF911F912E
:1054A0000F91FF90DF90CF90BF90AF9008950E9432
:1054B0006F2B8823E1F2F82EEFCF8091F100F601F7
:1054C00081936F012197FFEFAF1ABF0ACECFFC0186
:1054D0009B018091390590913A058617970718F03E
:1054E000672B61F0C90140E0009771F441110CC0D5
:1054F0008091E80082FF35C080E008958091E80047
:105500008E778093E800EECF209132052223A9F117
:105510002530A9F12091E80023FD2DC02091E8005D
:1055200022FDE6CF2091E80020FFDECF3091F3008E
:105530002091F200009719F02830310558F041E031
:105540002830310509F040E02091E8002E772093C3
:10555000E800CACF41914093F10001972F5F3F4F80
:10556000E9CF80913205882341F0853041F0809168
:10557000E80083FFBDCF81E0089582E0089583E0D5
:105580000895FC019B018091390590913A05861799
:10559000970718F0672B61F0C90140E0009771F49C
:1055A00041110CC08091E80082FF36C080E0089570
:1055B0008091E8008E778093E800EECF209132054D
:1055C0002223B1F12530B1F12091E80023FD2EC056
:1055D0002091E80022FDE6CF2091E80020FFDECFF9
:1055E0003091F3002091F200009719F02830310536
:1055F00058F041E02830310509F040E02091E80002
:105600002E772093E800CACF44914093F100319661
:1056100001972F5F3F4FE8CF80913205882341F0FB
:10562000853041F08091E80083FFBCCF81E0089590
:1056300082E0089583E00895982F973028F08F70C6
:105640008093E90081E008959093E900242F762F5C
:1056500050E0981731F07091EC002091ED005091DE
:10566000F00021FD02C09F5FE8CF3091EB003E7F4C
:105670003093EB003091ED003D7F3093ED003091A1
:10568000EB0031603093EB007093EC002093ED0061
:105690005093F0002091EE0027FDE5CF80E00895C3
:1056A0008091330587FF13C08091E80082FF06C018
:1056B0008091E8008B778093E80004C080913205E8
:1056C0008111F2CF0895809132058823D9F380911A
:1056D000E80080FFF8CF8091E8008E77ECCF209132
:1056E000E4003091E50095E6A9018091EC0081701D
:1056F000882331F08091E80080FF06C080E00895A3
:105700002091E80022FD1BC080913205882391F092
:10571000853091F08091EB0085FD10C02091E40070
:105720003091E5004217530701F391509111DCCFFE
:1057300084E0089582E0089583E0089581E008956B
:105740000E940F2C0E94172CE0EEF0E08081816017
:105750008083E8EDF0E080818F77808319BCA7ED2E
:10576000B0E08C918E7F8C9380818F7E80831092AD
:10577000310508950F931F93CF93DF930E940F2C51
:105780000E94172CC8EDD0E088818F7788838881AC
:105790008068888388818F7D888319BC1092320548
:1057A00010922E051092300510922F0500EE10E099
:1057B000F80180818B7F808388818160888342E0CB
:1057C00060E080E00E941C2BE1EEF0E080818E7FA3
:1057D0008083E2EEF0E08081816080838081886058
:1057E0008083F80180818E7F8083888180618883B7
:1057F000DF91CF911F910F910895E8EDF0E0808146
:105800008F7E8083E7EDF0E080818160808384E09B
:1058100082BF81E0809331050E94BA2B0895E8EDA4
:10582000F0E080818E7F80831092E20008951092D4
:10583000DA001092E10008951F920F920FB60F92B6
:1058400011242F933F934F935F936F937F938F9385
:105850009F93AF93BF93EF93FF938091E10082FFFB
:105860000BC08091E20082FF07C08091E1008B7F36
:105870008093E1000E947F2E8091DA0080FF19C0A2
:105880008091D80080FF15C08091DA008E7F8093D0
:10589000DA008091D90080FF94C080E189BD82E167
:1058A00089BD09B400FEFDCF81E0809332050E94DE
:1058B00009288091E10080FF19C08091E20080FFFB
:1058C00015C08091E2008E7F8093E2008091E2001B
:1058D00080618093E2008091D80080628093D8003C
:1058E00019BC85E0809332050E941D288091E1005B
:1058F00084FF29C08091E20084FF25C080E189BD3A
:1059000082E189BD09B400FEFDCF8091D8008F7D72
:105910008093D8008091E1008F7E8093E100809198
:10592000E2008F7E8093E2008091E20081608093AC
:10593000E20080912E05882309F449C084E0809319
:1059400032050E9426288091E10083FF29C08091C2
:10595000E20083FF25C08091E100877F8093E10012
:1059600082E08093320510922E058091E1008E7FB7
:105970008093E1008091E2008E7F8093E20080912D
:10598000E20080618093E20042E060E080E00E94FB
:105990001C2B8091F00088608093F0000E941A28F0
:1059A000FF91EF91BF91AF919F918F917F916F91F7
:1059B0005F914F913F912F910F900FBE0F901F90CD
:1059C000189519BC109232050E94172872CF809149
:1059D000E30087FF02C083E0B2CF81E0B0CF1F9227
:1059E0000F920FB60F921124FF920F931F932F93D4
:1059F0003F934F935F936F937F938F939F93AF9357
:105A0000BF93CF93DF93EF93FF9309EE10E0F8017C
:105A10008081C091EC00C795CC27C7958F70FC2E74
:105A2000F82A1082C0EFD0E08881877F888378943D
:105A30000E94382DF8011082888188608883CF2DDC
:105A4000CF70C083FF91EF91DF91CF91BF91AF9164
:105A50009F918F917F916F915F914F913F912F9186
:105A60001F910F91FF900F900FBE0F901F901895F0
:105A7000AAE2B0E0EEE3FDE20C94DE2E83E395E0D3
:105A8000FC0101962091F100208325E08B339207E1
:105A9000B9F70E9450288091E80083FF38C08091B8
:105AA0003305909134059A3090F5E92FF0E0E151FB
:105AB000F04D0C94C22E803889F0823841F58091E7
:105AC00037058F70873018F58093E9008091EB00DF
:105AD00085FB882780F91092E90006C080912F0588
