:100000000C941D020C9455020C9455020C9455024C
:100010000C9455020C9455020C9455020C94550204
:100020000C9455020C9455020C94FA2E0C94CD2F7E
:100030000C94EA290C9455020C9455020C94550228
:100040000C9455020C9455020C9455020C945502D4
:100050000C9455020C94A22A0C9455020C9455024F
:100060000C9455020C9455020C9455020C945502B4
:100070000C9455020C9455020C9455020C945502A4
:100080000C9455020C9455020C9455020C94550294
:100090000C9455020C9455020C9455020C94550284
:1000A0000C9455020C9455020C94550229001E0024
:1000B0001F0020002100220023002400250026002C
:1000C00027002D002E0000002A004C002B001400F9
:1000D0001A000800150017001C0018000C00120080
:1000E00013002F003000310000004B0039000400E5
:1000F0001600070009000A000B000D000E000F009B
:10010000330034000000000028004E00E100000031
:1001100000001D001B000600190005001100100062
:10012000360037003800E50052002152E00021522D
:10013000E2000000000000002C00000000000000B1
:100140000000E6002152500051004F003500217898
:10015000207821782B783E003F004000410042008B
:10016000430044004500000001004600010001007A
:100170005200010001000100010001000100010026
:10018000010001000100010000004A0001005000D0
:1001900051004F00010001000100010001000100B9
:1001A000010001000000000001004D002078000067
:1001B0000000AA00A900AC00AB00E300E1000100D0
:1001C0000100010001000100010001000100010027
:1001D000010000000000000001000000000000001D
:1001E0000000E70001000100010001000001010121
:1001F00001010101010102020202020202020203E4
:1002000003030303030303040404040404040505B3
:100210000505050606060606070707070708080876
:1002200008090909090A0A0A0B0B0B0C0C0C0D0D25
:100230000D0E0E0E0F0F0F101011111112121313BD
:100240001414151516161717181819191A1A1B1B36
:100250001C1D1D1E1E1F2020212222232424252692
:1002600026272829292A2B2C2D2D2E2F30313232CA
:10027000333435363738393A3B3C3D3E3F404142D6
:10028000434445464748494A4C4D4E4F50515354BC
:10029000555658595A5B5D5E5F6162646566686970
:1002A0006B6C6D6F7072737577787A7B7D7E8082F0
:1002B000838587888A8C8E8F91939596989A9C9E39
:1002C000A0A2A3A5A7A9ABADAFB1B3B5B7BABCBE49
:1002D000C0C2C4C6C9CBCDCFD1D4D6D8DBDDDFE216
:1002E000E4E7E9EBEEF0F3F5F8FAFDFF260363002F
:1002F0007500730074006F006D005F007000610096
:10030000720061006C006C0065006C005F003600DC
:100310003500000014034300650079006E0065009D
:1003200074006900630073000000040309040902FB
:100330003B00020100A0FA090400000103010100D2
:100340000921110100012244000705810308000171
:10035000090401000103000000092111010001222C
:100360007B0007058203200001120100020000004B
:1003700008756F7A8000010102000105010902A1E0
:100380000185020901A100050919012908150025A7
:100390000195087501810205010930093115812592
:1003A0007F95027508810609381581257F950175AD
:1003B000088106050C0A38021581257F950175080C
:1003C0008106C0C005010980A101850319012AB772
:1003D00000150126B700950175108100C0050C09B4
:1003E00001A101850419012AA002150126A0029588
:1003F0000175108100C005010906A101050719E07A
:1004000029E71500250195087501810295017508F8
:1004100081010507190029FF150026FF00950675C3
:1004200008810005081901290515002501950575A4
:10043000019102950175039101C011241FBECFEFF8
:10044000DAE0DEBFCDBF04B603FE18C08091960689
:1004500090919706A0919806B09199068730904B9D
:10046000A740B04B59F4109296061092970610923E
:10047000980610929906E0E0F8E3099512E0A0E0F2
:10048000B1E0E4E6F7E602C005900D92AC3FB1079B
:10049000D9F726E0ACEFB2E001C01D92A639B20751
:1004A000E1F70E94CB110C941D330C9400008230B4
:1004B000C8F46530B8F44031A8F4E62FF0E095E0D8
:1004C000899FE00DF11D112484E0EE0FFF1F8A9536
:1004D000E1F7E40FF11DEE0FFF1FE455FF4F85918B
:1004E0009491089581E090E008950E945702089544
:1004F00081E008950E947802089581E008950E94A5
:10050000780208950E947F02089508950E9485024E
:100510000895A6E0B0E0EFE8F2E00C94F6314983EC
:100520005A839E833091030389819A8131111AC0C5
:100530003E81332399F0222389F00E949F08182FCF
:10054000682F89819A810E947C0869817A81812F34
:100550000E94720F2696E3E00C9412320E948D08DE
:10056000182FF3CF0E949F0869817A81F1CFFC0197
:10057000262F4081518162817381848195810E94FF
:1005800089020895CF93DF93D82FC92F61E00E948D
:10059000B7026D2F7C2F0E947A02DF91CF910895D0
:1005A000CF93DF93D82FC92F60E00E94B7026D2F41
:1005B0007C2F0E948602DF91CF91089581E00895FB
:1005C0000E94DE020895CF93C82F0E944E078C2F01
:1005D0000E94E0022FEF84E39CE021508040904095
:1005E000E1F700C00000CF91089581E00E94E3028E
:1005F0000E94C62A089580E00E94E3020E94EA2A2F
:1006000008950F931F93CF93DF938C0161E00E94B5
:10061000B702EC01B8010E9482028823E1F1B8011F
:10062000CE010E9453288823B1F1B801CE010E9467
:100630008724882381F1B801CE010E945C2488239D
:1006400051F1B801CE010E94AF23882321F1F801B6
:100650008581882381F0CA35FCE7DF0739F178F41A
:10066000C130ECE7DE07F9F0C330FCE7DF07C9F083
:10067000C115DC4771F0C8010E947D020DC0CB3569
:10068000ECE7DE07B1F0CC35DC47A9F70E94A10CFE
:10069000F2CF0E94F50280E0DF91CF911F910F9180
:1006A00008950E94B30C0E94FB02F5CF0E94AB0C90
:1006B000E2CF0E94AF0CDFCF0E94C6290E945921D1
:1006C0000E94840381E00E94592208950E948803B9
:1006D00080E00E9459220E94CB29089581E008956C
:1006E0000895CF93DF93D82F0E946E03C82F8823DD
:1006F00019F08D2F0E9470038C2FDF91CF910895F8
:1007000008950E947103089580E00E948103089576
:100710000E9499280E9481030895CF930E949928EE
:10072000C82F8091FE028C1779F0C093FE020E94C0
:10073000562A6093FF027093000380930103909305
:1007400002038C2F0E948103CF910895ADE0B0E0A9
:10075000ECEAF3E00C94F731488759876A877B8786
:100760008C879D8791110E94DE0B1F8286E0FE011F
:100770003896DE01119601900D928A95E1F78D81F0
:1007800081110DC029813A814B815C816D817E810F
:100790008F810E94240B2D96E2E00C941332CE013F
:1007A00001960E94C2028111EDCFF5CFFC01848138
:1007B000813021F4808191810E94D10808956623BF
:1007C00029F00E94F5250E94B62608950E943E2633
:1007D000FACFCF93C82F8823C9F08238C9F40E947A
:1007E000A62881FD13C089E30E9460290E944F0C56
:1007F0002FEF37EE83E0215030408040E1F700C01A
:10080000000089E30E9468290E944F0CCF9108954F
:100810008338A1F40E94A62880FDF8CF83E50E94CA
:1008200060290E944F0C9FEF21EE34E09150204050
:100830003040E1F700C0000083E5E4CF8438A1F444
:100840000E94A62882FDE2CF87E40E9460290E94D0
:100850004F0C8FEF91EE24E0815090402040E1F763
:1008600000C0000087E4CECF8CEF8C0F813A70F48B
:100870008C2F0E942329882329F08C2F0E9468291D
:100880000E944F0C8C2F0E946029BECF80E28C0FFB
:10089000883048F4C77081E001C0880FCA95EAF734
:1008A0000E94BF0BB1CF8BE58C0F833038F42C2F17
:1008B0002452330BC9010E94C328A8CFE8E5EC0FEE
:1008C000EB3150F4F0E0EE0FFF1FE659FD4F808151
:1008D00091810E94E9289ACF83E38C0F833108F03D
:1008E00095CF61E08C2F0E94DF0390CF882309F41D
:1008F00056C0823879F40E94A62881FF50C089E34F
:100900000E9460290E944F0C89E30E9468290E947E
:100910004F0C0895833859F40E94A62880FF3FC0E9
:1009200083E50E9460290E944F0C83E5EECF843856
:1009300059F40E94A62882FF32C087E40E946029F1
:100940000E944F0C87E4E1CF9CEF980F913AE8F2B8
:1009500090E2980F983050F4877091E001C0990FA1
:100960008A95EAF7892F0E94C50BD1CF9BE5980F96
:10097000933028F480E090E00E94C328089598E521
:10098000980F9B3128F480E090E00E94E9280895B8
:1009900093E3980F933118F460E00E94DF03089509
:1009A0001F93CF93DF93182FEB010E94E903209749
:1009B00039F4812F0E947604DF91CF911F91089521
:1009C0008FE99FE00197F1F700C000002197EFCF7A
:1009D00060E070E0893311F460E570E00E94D004BB
:1009E0000895882321F00E94BF0B0E944F0C0895A8
:1009F000882321F00E94C50B0E944F0C0895A0E0AF
:100A0000B0E0E5E0F5E00C94F1316C01D62FC72F92
:100A1000FC011581068102950F700E94B40BE82E2F
:100A20008823F9F0E12E1123E1F08C2F807F8034B0
:100A300061F080E28D0F8830F0F08C2F807E803264
:100A400021F4D230C0F00023B1F08091450582FF3F
:100A500012C082E00E94740C0E94B40B91E0E82E58
:100A6000E926EC2FE295EF70C03CB0F5F0E0E15ED6
:100A7000FC4C0C94E131E12CF4CF0C2F0F70C03101
:100A800010F00295007F112399F0002359F080E2C5
:100A90008D0F883010F0D11107C0802F0E94BF0B3E
:100AA0000E944F0C8D2F51C0802F0E94D00BF8CF89
:100AB0008D2F0E947604002379F080E28D0F88301C
:100AC00010F0D11104C0802F0E94C50B03C0802FED
:100AD0000E94D60B0E944F0CEE2089F00E94B00BB2
:100AE00080FD0DC0F60115820E94AA0B0E94D90755
:100AF000C6010E9415070E94AA0B0E94E907CDB704
:100B0000DEB7E8E00C940D32FC2FFF70FF2EC07FA3
:100B1000C03219F0F29480EFF822DD2341F0D13099
:100B2000D1F1112309F444C00023F1F0BBCF80912F
:100B3000450582FD15C0112359F0FF2029F08F2DA6
:100B40000E94BF0B0E944F0C80E00E94E903C4CFBB
:100B500080E00E947604FF2009F4BECF8F2DB4CF31
:100B6000112369F0011104C08F2D0E94F104B4CF4C
:100B7000013009F0B1CF8F2D0E94F60BADCF0111DE
:100B8000ABCF8F2D0E94F8048F2D0E94020C8F2D69
:100B90000E94E50BA1CF112321F0063008F09CCF75
:100BA000E3CF053008F098CF8F2D0E94F80494CF42
:100BB0000023D1F3D93349F42FEF87EE93E021508E
:100BC00080409040E1F700C000008D2F0E94760425
:100BD00083CF8C2F869586958370882369F081302A
:100BE00009F07ACF8D2F9C2F9370111102C080E0F5
:100BF00090E00E94E92870CF8D2F9C2F93701111E7
:100C000002C080E090E00E94C32866CF612F8D2F44
:100C10000E94DF0361CF8C2F8370811139C01111C5
:100C200029C04D2F429546954770440F440F2D2FF4
:100C30002F7030E0042E02C0220F331F0A94E2F717
:100C400080E090E0D4FF09C08FE090E002C0880F00
:100C5000991F4A95E2F780959095C695C695C37001
:100C6000822B932BC23071F0C33079F0C13039F050
:100C70000E94A9070E9499280E9481032DCF0E94FB
:100C8000A007F8CF0E94B207F5CF0E949D07F2CFD0
:100C9000112361F1C0FFEECF4D2F4295469547706D
:100CA000440F440F2D2F2F7030E0042E02C0220F6E
:100CB000331F0A94E2F780E090E0D4FF09C08FE090
:100CC00090E002C0880F991F4A95E2F780959095B1
:100CD000C695C695C370822B932BC23069F0C33082
:100CE00071F0C13031F00E941408C4CF823010F28C
:100CF000D3CF0E940B08BECF0E941D08BBCF0E941D
:100D0000C107B8CFCF70112339F08C2F0E94D907BB
:100D10008D2F0E94F104AECF8D2F0E94F8048C2FEE
:100D20000E94E907A7CFD23F31F170F4D03FB9F06C
:100D3000D13FB1F1112309F44EC0002309F448C09A
:100D40008D2F0E94E90396CFD33FE1F0D43F21F1EC
:100D50001111F3CF01114DC08C2F8F71E1CF1123F1
:100D600041F0053008F086CF8C2F8F710E94FB0771
:100D700081CF0530F7CF8C2F8F711111D1CF0E9409
:100D8000D90778CF112329F08C2F8F710E94CD07BE
:100D900071CF0E94C8076ECF8091450582FD06C0C5
:100DA0008C2F8F71112309F4BBCFE9CF112331F0C0
:100DB00063E08C2F8F710E94560C5CCF81E00E9403
:100DC000740C023008F456CF82E00E94740C52CFAB
:100DD0008C2F8F71D4CF002309F4BECFD93349F4BF
:100DE000EFEFF7EE23E0E150F0402040E1F700C0E4
:100DF00000008D2F0E9476043DCF0F931F93CF9359
:100E0000DF93EC01688179818D810E94DE088C017D
:100E10000E9426080E949C07B801CE010E94FF0490
:100E2000DF91CF911F910F910895CF93DF93EC0144
:100E30008C81882399F0CE010E940103811111C099
:100E40000E94B40B882351F08D81882339F0809162
:100E5000450582FF03C082E00E94740CDF91CF91B0
:100E60000895CE010E94FD06CE010E94D002F6CF69
:100E700080E090E00E94C32880E090E00E94E92892
:100E80000E94DE0B0E944F0C0E94D3260E94B626C1
:100E900008950E9470290E94380708950E94CD0B82
:100EA0000E9449070895282F92959F70963091F0DF
:100EB00060F4925F9F70923030F481E0203F79F0CF
:100EC00030F4283E30F080E008959A5FF3CF243F5D
:100ED000D1F7089581E0283EE0F3213FF9CF08954E
:100EE000FC018481882339F0808191810E94D1089E
:100EF0000E945307089580E00895A6E0B0E0E3E87B
:100F0000F7E00C94F7312696E2E00C941332A7E058
:100F1000B0E0EDE8F7E00C94F7312796E2E00C94AE
:100F2000133208950E94910708950E9492079093AA
:100F30002F0380932E03089508950E949507089526
:100F400020912E0330912F03822B932B0E94950723
:100F5000089520912E0330912F03822393230E9422
:100F60009507089520912E0330912F038227932710
:100F70000E94950708950E94910708950E94BB075B
:100F800008950E94BE0790932D0380932C0308952B
:100F900080E090E00E94C107089521E030E0A901BF
:100FA00002C0440F551F8A95E2F7CA010E94C1078B
:100FB000089521E030E002C0220F331F8A95E2F746
:100FC00080912C0390912D03822B932B0E94C107BB
:100FD000089521E030E002C0220F331F8A95E2F726
:100FE0002095309580912C0390912D03822393239B
:100FF0000E94C107089521E030E002C0220F331F94
:101000008A95E2F780912C0390912D0382279327F4
:101010000E94C107089520912C0330912D03822B4B
:10102000932B0E94C107089520912C0330912D032A
:10103000822393230E94C107089520912C033091AD
:101040002D03822793270E94C107089508959B01CD
:10105000677091E001C0990F6A95EAF763E03695F1
:1010600027956A95E1F7220F331F220F331FFA01EC
:10107000E20FF31F40E050E0682F70E08191DF0144
:1010800011979B01042E02C0369527950A94E2F72A
:10109000217021952827292328272C934F5F5F4F04
:1010A0004430510559F708959C01982F977083E0BB
:1010B000369527958A95E1F7220F331F220F331FAC
:1010C000FB01E20FF31F40E050E080E0219130E0AF
:1010D000092E02C0369527950A94E2F7217033272E
:1010E000042E01C0220F0A94EAF7822B4F5F5F4F54
:1010F0004430510559F70895282F862F953060F414
:10110000203150F430E1939FB0011124620F711D22
:1011100044E053E00E9427080895282F953068F492
:10112000803158F430E1939FC001112464E073E0F2
:10113000820F911D0E945408089580E00895A0E058
:10114000B0E0E5EAF8E00C94F0318C01E0902C037B
:10115000F0902D0380912E0390912F03E82AF92A15
:10116000CFE0D0E0CC24C394D12CC6010C2E02C019
:10117000880F991F0A94E2F78E219F21892B49F449
:10118000219798F7B12C8B2DCDB7DEB7E9E00C9401
:101190000C32BC2EB8018C2F0E947E0F019781F378
:1011A000F2CFCF93DF93D82FC92F0E949F086D2FC6
:1011B0007C2F0E947E0FDF91CF9108951F93CF93D4
:1011C000DF93162FD72F90910303992341F0862F99
:1011D000972F0E94D108DF91CF911F910895882306
:1011E00081F0862F972F0E949F08C82F682F812F8C
:1011F0009D2F0E947C08612F7D2F8C2F0E947E0FD7
:10120000EACF862F972F0E948D08C82FF4CF0F9317
:101210001F93CF93E0913003C7E0809131038E1389
:1012200004C0CF911F910F9108950E2F10E0CE9F13
:10123000F0011124EE5CFC4F208131814281538109
:101240006481758186810E948707F8013196E77075
:10125000E4CF20916A0330916B0340916C0350916D
:101260006D0360916E0370916F03809170030E9413
:101270008707089580917003803178F480916F031F
:10128000882359F0E09130032091310330916B03B2
:1012900040916A0357E02E1301C008956E2F70E04D
:1012A0005E9FF0011124DF01AE5CBC4F14968C915F
:1012B0001497882361F111968C911197831327C09D
:1012C0008C91841324C015968C91159781111FC0A1
:1012D00012968D919C91A0916C03B0916D038A1B25
:1012E0009B0B883C910598F4809170038F7080610E
:1012F00080937003E85CFC4F80818F7080618083F5
:101300008AE693E00E9415070E9407090895FB01F1
:101310003196E770C0CFE09130039091310327E020
:10132000E91302C080E00895AE2FB0E02E9FF001D7
:101330001124EE5CFC4F3181361306C03081381326
:1013400003C03581341304C0FD013196E770E8CF46
:1013500081E008958F929F92AF92BF92DF92EF92B9
:10136000FF920F931F93CF93DF93CDB7DEB72D97E7
:101370000FB6F894DEBF0FBECDBF8C0186E0F8013A
:10138000DE01189601900D928A95E1F7F801E08050
:10139000F580A280B38084819AE6892E93E0992E0D
:1013A00090916E0391111BC0882309F4FCC0FF20AB
:1013B00009F43DC1C8010E947007882309F437C1B0
:1013C00087E0F801D40101900D928A95E1F7C401FC
:1013D0000E94D6030E943A090E942909E4C0D090D5
:1013E0006F0320916C0330916D03A501421B530BD9
:1013F000DD2009F4DBC0483C510508F0A6C0882375
:1014000009F4D1C090916B03918080917003803179
:1014100008F06BC0991228C090916A039E1124C0F5
:10142000F1105DC08F708061809370030E94290964
:101430008AE693E00E94150780917003F801868385
:10144000F12C8F2D2D960FB6F894DEBF0FBECDBFB9
:10145000DF91CF911F910F91FF90EF90DF90BF90A0
:10146000AF909F908F900895F11039C040E0692DA2
:101470008E2D0E948B0940E0692D8E2D0E948B09D4
:10148000F82E8111DDCF888599850E94D108292FFA
:1014900022952F70903450F49F70223080F0992361
:1014A00099F0F8019681903178F4CBCF2A5F2F70B4
:1014B000223078F0C8010E941507FD2CC2CF992375
:1014C00019F0882309F4BDCF805E883008F4B9CFC5
:1014D000F1CF803F08F4B5CF815F8230F7CF8091A4
:1014E0007003816080937003ABCF991207C0909115
:1014F0006A039E1103C0FF2009F479C0C8010E944D
:101500007007882309F493C0FF2009F490C08091EC
:101510007003803288F020916A0330916B033A8324
:101520002983BC82AB8290916E039D831E828F8340
:10153000CE0101960E94150787E0F801AAE6B3E004
:1015400001900D928A95E1F745CF9091700390310B
:10155000A0F4488559856A857B858C859D850E9488
:101560007D078AE693E00E94150787E0F401119257
:101570008A95E9F70E94290963CF8823A1F0209179
:101580006B0381812813BACF80916A038E11B6CF85
:10159000F110B4CF9683C8010E94150787E0F401CB
:1015A00011928A95E9F7FF24F3944BCF483C5105FB
:1015B00008F041C08823B9F3FF20C9F190916B0373
:1015C000818198132AC080916A038E1126C0809170
:1015D000700380FD19C08031B8F08683807F803F22
:1015E00039F08681982F907F905F8F70892B86834A
:1015F000C8010E94150787E0F801AAE6B3E0019050
:101600000D928A95E1F7E8CE87E0F801AAE6B3E00B
:1016100001900D928A95E1F7C6CFC8010E9470072C
:1016200081118ACF80917003816080937003C8011B
:101630000E941507B8CF488559856A857B858C85BA
:101640009D850E947D0791CFAEE0B0E0EAE2FBE02D
:101650000C94F631288739874A875B876C877D87AA
:101660008E87CE0108960E94AA098823B1F06C8566
:10167000662341F0288539854A855B857D858E8581
:101680000E94870717E080913003909131038913FE
:101690003EC02E96E3E00C94123287E0FE013896AD
:1016A000DE01119601900D928A95E1F720913103A8
:1016B000409130038C85882329F330E0C9010196DD
:1016C0008770992750E08417950799F097E0929FCB
:1016D000D001939FB00D1124AE5CBC4FFE0131963A
:1016E00001900D929A95E1F7809331030E940709CA
:1016F000C9CF0E944E07109231031092300387E049
:10170000EAE6F3E0DF011D928A95E9F7BBCF189F67
:10171000C00111248E5C9C4F0E94AA09882309F401
:10172000B8CFE09130031E9FF0011124EE5CFC4F16
:1017300020813181428153816481758186810E943B
:1017400087078091300390E00196877099278093F6
:10175000300399CF80917903869586958695089573
:10176000809179038770089590917903977081E053
:10177000911101C080E008958091850308959091B2
:101780008503982B909385030895982F90958091C9
:101790008503892380938503089510928503089516
:1017A00090918403982B909384030895982F90959B
:1017B0008091840389238093840308951092840385
:1017C000089508950E94E10B089590917A03292FBE
:1017D0002823222331F08095892380937A030E9465
:1017E000E20B089508950E94F20B089590917B03F7
:1017F000292F2823281729F0982B90937B030E94E8
:10180000F30B089590917B03292F2823222331F095
:101810008095892380937B030E94F30B0895809128
:101820007B03882329F010927B0380E00E94F30B56
:1018300008950F931F93CF93DF9300914A02109165
:101840004B02C091850380918403C82BD0917B0308
:10185000DD2331F00E940F2981110E940F0CCD2B46
:10186000F801C083C0914A02D0914B0248E050E099
:1018700061E773E0CE010E947A32892B59F088E04B
:10188000FE01A1E7B3E001900D928A95E1F7CE0148
:101890000E94A928DF91CF911F910F9108950E9476
:1018A000190C089508950E94520C089590914505D1
:1018B00092FF11C098E0899F90011124622B6093E0
:1018C00079030E94D907809179038695869586953C
:1018D0000E94530C08950E94D9070895109279032D
:1018E00080E00E94530C089590917903809589239C
:1018F00080937903282F277021110DC0891759F083
:101900009091450592FF07C08695869586950E9421
:10191000E9070E946E0C08959091450592FB2227DD
:1019200020F9281769F080FB92F990934505809182
:101930004405909145050E94D40C82E00E94740CED
:1019400008958091450582FB882780F991E08927D9
:101950000E948C0C089581E00E948C0C089580E018
:101960000E948C0C08956FEF7FEF80E090E00E9462
:10197000F532089580E090E00E94C1329C0181E040
:10198000253E3E4F09F080E0089582E090E00E94FD
:10199000B932089583E090E00E94B932089584E05E
:1019A00090E00E94C1320895BC0184E090E00E9462
:1019B000F5320895AB01BC018FE090E00E94E9325E
:1019C0000895AB01BC0183E190E00E94E9320895E3
:1019D00060E070E0CB010E94E10C089560E070E0EF
:1019E000CB010E94DA0C0E94E80C0895A8E0B0E058
:1019F000ECEFFCE00C94F73165EE7EEF80E090E0D8
:101A00000E94F53260E082E090E00E94D73281E0EF
:101A100090E090932F0380932E0361E083E090E0A9
:101A20000E94D73260E074E184E090E00E94F532D9
:101A300060E086E090E00E94D73260E087E090E0CE
:101A40000E94D73240E050E0BA0188E090E00E9466
:101A5000E93260E083E290E00E94D73260E08CE0FF
:101A600090E00E94D73260E08DE090E00E94D73293
:101A700019821A821B821C821D821E821F82188676
:101A800048E050E067E170E0CE0101960E94C73265
:101A900040E050E0BA018FE190E00E94E9320E94FC
:101AA000EE0C2896E2E00C9413320E94F60C089596
:101AB000682F8EE090E00E94D7320895A6E0B0E053
:101AC000E4E6FDE00C94F5310E944A2A8C018091F5
:101AD0008603909187038017910779F019821A8203
:101AE0000E944A2ABC0149815A8180E090E00E940C
:101AF000A60310938703009386032696E4E00C94D4
:101B000011320E94562A6093960370939703809334
:101B10009803909399036093920370939303809337
:101B20009403909395030895089508950E94940D49
:101B3000089508950E94990D089586E790E10E9406
:101B4000E0110E94950D0E94960D089581E0089580
:101B50000E94A60D08950E94A60D08950895089567
:101B60000E94AE0D0E94AF0D08950E94BA0C811123
:101B700002C00E94550D0E94C50C80939A030E94DA
:101B8000CF0C90934505809344050E9459240E94F0
:101B9000CA0C90E00E949D0780912C0390912D0328
:101BA0000E94BE0708950E94412A0E9433110E949C
:101BB000B50D0E9480030E942C220E949A0D089568
:101BC000A6E0B0E0E6EEFDE00C94EB310E94A80D3B
:101BD00081110CC00E945E0D0E9459210E94F426C2
:101BE0000E948D032696EEE00C9407320E94491164
:101BF00028E8822E23E0922E640110E0F601E190A5
:101C0000F1906F01812F0E9480101F5F153009F441
:101C10004BC0E816F90691F380919A0381FD0E946A
:101C200089100E94AB0D782E10E0812F0E94801049
:101C30007C01F401A190B1904F018A159B0571F1CF
:101C4000A826B92600E0CC24C394D12CC5018C2150
:101C50009D21892BD1F066246394C7018C219D219D
:101C6000892B09F4612C772059F009831A830E948B
:101C70004A2ABC0149815A8181E0962D0E94A6031F
:101C8000462D602F812F0E940D180F5FCC0CDD1C9C
:101C90000031E1F6F4013297F182E0821F5F1530E6
:101CA00021F60E94810D98CFE816F90609F0B4CF0D
:101CB00091CF1F93CF93DF930E94830FEC01811587
:101CC00022E5920708F053C0811540E5940708F01B
:101CD000DDC0803E9105F8F48D3C910508F0AEC062
:101CE000883A910580F4853A910508F099C08130D1
:101CF000910521F00497813A910550F4CE01DF91CE
:101D0000CF911F910895885A91094B9708F48BC081
:101D1000C0E0D0E0F3CF811550E49507F8F4C11589
:101D200080E2D80708F0CBC0C83ED10538F3CE0119
:101D30009A9581159F4160F78D2F0E942710182FCB
:101D4000CE0199270E94830F212F30E0322F2227C6
:101D5000E901CC27DF71C82BD92BD0CF99270E945E
:101D6000830FCC27DF70C82BD92BD06AC7CF803820
:101D700042E59407C8F5803652E5950708F067C03C
:101D8000C03482E5D807B0F08C2F86958695877091
:101D900020E2829FC0011124C37021E030E0A9013C
:101DA00002C0440F551FCA95E2F7EA01C82BD92B90
:101DB000DC68A4CFC03252E5D50708F041C08C2FB3
:101DC0008695869520E2829FC0011124C37021E090
:101DD00030E0A90102C0440F551FCA95E2F7EA019D
:101DE000C82BD92BDD688ACF803C52E5950760F47B
:101DF0008F71C03AD24508F03FC090E0982F8827F5
:101E0000EC01C46FD06A7ACF805C9245809708F06D
:101E10007FCFDC2FCC27CC27DF71C06FD06A6ECF8D
:101E2000A497D0646BCFC85AD0E0CC0FDD1FC0564A
:101E3000DD4F0990D881C02DD46460CFD0655ECFCE
:101E4000CF71D0E0DC2FCC27C16FD06A57CF8695F9
:101E50008695877020E2829FC0011124C37021E023
:101E600030E0A90102C0440F551FCA95E2F7EA010C
:101E7000C82BD92BDA6842CF0E942710C82FD0E098
:101E8000DC2FCC27CC27DF71D06238CF8F710E9436
:101E9000271065E0D695C7956A95E1F7CF70D0E039
:101EA000DC2FCC27282F30E084FF05C054E0220F20
:101EB000331F5A95E1F7C22BD32BD0691FCF8D2F3B
:101EC0008F710E942710182FCE0199270E94830F2F
:101ED000212F30E0322F222722273F71282B392B48
:101EE000E901D2CF462F672F753028F4403118F41E
:101EF0000E947502089580E090E008950E94720F9C
:101F00000E94590E0895803E9105D1F1C8F48133A5
:101F1000910509F47FC048F48932910509F46FC036
:101F20008A32910509F47DC0089589339105E1F065
:101F300082389105C9F08533910509F45BC0089595
:101F4000843E9105D1F148F4823E910531F1833E02
:101F5000910541F181EE90E00895863E9105C1F131
:101F6000873E9105E1F108952091440523702111E8
:101F700065C02091450523FF14C089E290E00895D3
:101F80002091440520FD43C03091450530FF09C034
:101F900024FF4EC080E090E008952091440522FD8A
:101FA000F7CF08952091440522FD45C030914505A5
:101FB00030FD44C024FFF5CFEDCF2091450521FF32
:101FC000F0CF8091440584FDE5CF87EE90E0089541
:101FD0002091440523FFE5CF24FDDCCFF6CF2091EF
:101FE000440523FD2EC03091450531FFE3CF84EE3B
:101FF00090E008952091440525FFD3CFBECF2091D6
:10200000440525FD21C02091450523FFCACF89E362
:1020100090E008952091440526FFC3CF8AE290E026
:1020200008952091440526FFBCCF81E390E00895F8
:1020300083EE90E0089582EE90E0089580EE90E0C7
:10204000089586EE90E0089585E390E0AACF909100
:10205000440592FF10C041E0282F2471243009F07C
:1020600040E031E0282F2871283009F030E0431794
:1020700011F02CE0822793FF10C041E0282F24713B
:10208000243109F040E031E0282F2871283109F08F
:1020900030E0431711F02CE082273091450530FFE6
:1020A00010C051E0282F2171213009F050E041E0AB
:1020B000282F2871283009F040E0541711F029E04A
:1020C000822731FF10C041E0282F2171213109F012
:1020D00040E031E0282F2871283109F030E0431723
:1020E00011F029E0822794FD877E089580E008950D
:1020F00008950E947810089508950E947C10089514
:10210000E82FF0E0EE0FFF1FE05BFA4F8081918136
:102110000895089580EA8A95F1F7089500C008951A
:102120000E948A100895F894E82FE295EF70F0E08D
:1021300041A18F7021E030E0B90102C0660F771F26
:102140008A95E2F7CB01962F9095942391A392A1C3
:10215000892B82A3789408950F931F93CF93DF93D5
:10216000C6EED2E089918F3F11F00E94931082E079
:10217000CB3ED807B9F7C6EDD2E006EE12E0899162
:102180008F3F11F00E9493100C171D07C1F7DF91CC
:10219000CF911F910F910895A0E0B0E0E2EDF0E142
:1021A0000C94F031EC01B62E062F10E0C8018A51D4
:1021B0009D4F7C01FC0180818F3F09F44FC0F89452
:1021C000E82FE295EF70F0E091A18F7021E030E010
:1021D00001C0220F8A95EAF7892F822B81A382A161
:1021E0002095282322A378940E948E10E6EDF2E039
:1021F00041E050E0C12CD12C21912F3F89F0A22F3A
:10220000A295AF70A05EB0E08C9190E02F7002C0FC
:10221000959587952A95E2F781709A01882311F0A8
:1022200020E030E0C22AD32A440F551F82E0E63E68
:10223000F80711F7F70180818F3F11F00E9493108A
:1022400061E0C114D10409F460E08B2D0E9490106C
:10225000000F111FC00FD11FD982C882CDB7DEB7C2
:10226000E9E00C940C320E94AC108AE0E0E5F5E065
:10227000DF01982F1D929A95E9F7E6E4F5E0DF017A
:102280001D928A95E9F785E00E9486110E947910D7
:102290000895AAE0B0E0EFE4F1E10C94F431FE011E
:1022A00031968AE0DF011D928A95E9F710E0FE2E53
:1022B0000F2F612F8F2D902F0E94CC101F5F153094
:1022C000C1F74AE050E06F2D702F86E495E00E9440
:1022D0007A3221E0892B81F420E045E060E575E069
:1022E00086E495E00E948711182F0E947D10812FAF
:1022F0002A96E5E00C9410328AE0EF2DF02FA6E448
:10230000B5E001900D928A95E1F7E7CF0895A0E03E
:10231000B0E0EDE8F1E10C94F131D82EE92EF62E83
:10232000D72F042FC22F222379F081E080939D03C1
:102330000E944A2A90939C0380939B0380E0CDB730
:10234000DEB7E8E00C940D32C0909D03CC20B1F3D1
:1023500080919B0390919C030E94732A059770F3D0
:1023600010E0000F111FA8016D2D7E2D8F2D9D2FC8
:102370000E947A32892B41F0A8016D2D7E2D8F2D80
:102380009D2F0E948732CC2D10929D038C2FD7CF8A
:102390000E94E00D08950E94E3290E94382C0E94BB
:1023A0009D0D0E94522C0E94D30D0E945F2C0E9412
:1023B000642C0E94C8110E947E2C0E94B00DF7CFA1
:1023C0009093FD028093FC020895A0E0B0E0EBEE54
:1023D000F1E10C94EF31E82F71110DC0442321F08D
:1023E000F0E0E451FE4F8491682F782FCDB7DEB72F
:1023F000EAE00C940B32262F30E0C72FD0E0F0E05B
:10240000442321F0E451FE4FE491F0E086E0829F06
:102410007001839FF00C11240FEF10E0C701B80189
:102420000E947831AB01220F331F65E5649FC00124
:10243000659F900D1124281B390BC22ECC0CC20EA7
:10244000C8018C1B9D0B8E9F90018F9F300D9E9F0E
:10245000300D1124832FCC9EB001CD9E700D112420
:10246000672F77275801A61AB70AAE9ED001AF9EF4
:10247000B00DBE9EB00D11247B2F5801AC18B108D1
:102480006501CC9E5001CD9EB00CDC9EB00C112499
:10249000AB2CBB240A191B090E9FE0010F9FD00D26
:1024A0001E9FD00D11246E2F43305105C9F09CEFB3
:1024B000E91693E0F90650F44130510509F496CF3E
:1024C0004230510589F07E2F6D2F90CF4430510559
:1024D00071F046305105B9F3632F8B2F7E2F86CFD5
:1024E0006B2F732F8E2F82CF732F8D2F7FCF7D2F4A
:1024F000632FF8CF41E00E94E51108959C0180E030
:1025000090E0269F812D369F800D911D1124089506
:102510009C018230910508F408959FEF213E8EE1E1
:10252000380740F4C90145E0969587954A95E1F74B
:1025300098E0980F61E0E62FE90FFF27FF1FAF013A
:1025400055954795842F449FF001459FF00DF00D60
:1025500011242E173F0738F49FEF940F961758F762
:102560008FEF860F08954F3FE9F361E0640FF6CFD8
:10257000409152025091530225E038E0429FC00141
:10258000439F900D529F900D1124875E994C90931C
:10259000530280935202890F0895982FE82F96FDD9
:1025A000E0958E2F8F7096FD8F5FE695E695E69508
:1025B000E670F0E0E551FD4F2181289F202D812D0F
:1025C000112422952F708295807F282B8081820F85
:1025D00097FD8195805808951F93172F922FE42F10
:1025E000F0E0EE0FFF1FEC5AFE4F408124EE429FB9
:1025F000412D1124E72FF0E050E09A01245E3F4F77
:10260000291B310937FF03C031952195310993E02A
:10261000220F331F9A95E1F7E21BF30BF7FF02C07D
:10262000E0E0F0E07E2F719F712D11241F9108953D
:102630001F93182F822FE42FF0E0EE0FFF1FEC5AAC
:10264000FE4F408124EE429F412D1124E12FF0E006
:1026500050E09A01245E3F4F281B310937FF03C029
:1026600031952195310983E0220F331F8A95E1F7D7
:10267000CF01821B930B9C0197FF02C020E030E04A
:10268000219F212D1124822F1F910895622F0895DB
:10269000E42FF0E0EE0FFF1FEC5AFE4F6081621B4B
:1026A0000895E42FF0E0EE0FFF1FEB5AFE4F60811C
:1026B000621B0895322F50E0FA01EE0FFF1FEB5A14
:1026C000FE4F9081905297FD9195440F551FFA014E
:1026D000EC5AFE4F2081231B330B290F311D97FD30
:1026E0003A95620F0895EF920F931F9310E09801AF
:1026F000220F331F200F311F359527956E2D620F46
:102700001F910F91EF9008950F93CF93DF93D72FE1
:10271000C82FB90147FD419528E330E0241B31095A
:1027200047FD3395229FA001239F500D500D11248A
:10273000669FC001679F900D900D1124840F951F17
:102740000E948812982F990F692F680F600F7D2FB4
:102750008C2FDF91CF910F9108950F931F93522FDC
:1027600010E0F801EE0FFF1FEB5AFE4FA081A052C0
:10277000BB0B9D015203F001539FF00D1124000F7C
:10278000111FD801AC5ABE4F2C912057330B420376
:10279000D001439FB00D11249F012A0F3B1F37FF2B
:1027A00002C021583F4F220F232F221F330B620FED
:1027B0001F910F9108950F931F93522F10E0F8016E
:1027C000EE0FFF1FEB5AFE4FA081A052BB0B9D01E5
:1027D0005203F001539FF00D1124000F111FD80177
:1027E000AC5ABE4F2C912057330B4203D001439F6C
:1027F000B00D11249F012A0F3B1F37FF02C0215C3F
:102800003F4F96E0359527959A95E1F7620F1F9116
:102810000F9108950F931F93A42F10E0F801EE0F6E
:10282000FF1FEC5AFE4F9081905797FD9195000F36
:10283000111FF801EB5AFE4F00810052110B2003CB
:10284000A001219F500D112428E330E0291B3109FC
:1028500097FD33951A2F1203F001139FF00D1124E9
:102860004E0F5F1F9A01220F331F240F351F37FFB2
:1028700002C021583F4F220F232F221F330B620F1C
:102880001F910F9108950F931F93CF93DF93D62F2E
:10289000072F182FC42F822F0E94CD12982FEC2FB4
:1028A000F0E0EE0FFF1FEC5AFE4F80818058980F2A
:1028B00097FD9195990F292F3CE0239F212D1124FD
:1028C000622F6D0F702F812FDF91CF911F910F918C
:1028D0000895E42FF0E0EE0FFF1FEC5AFE4F9081B9
:1028E000921B97FD9195292F38E1239F212D1124CB
:1028F000620F08954095282F429F412D1124842F67
:102900000895409520E4429F412D1124640F0895BD
:10291000EF92FF920F93970195E0099F200D311DD3
:1029200011242F3F310519F010F02FEF30E02095E2
:10293000382F320F08F43FEF832F0F91FF90EF9065
:102940000895EF92FF920F93E00EF11CF90137FF0B
:1029500003C0F195E195F10924E0EE0FFF1F2A95E0
:10296000E1F7EF3FF10519F014F0EFEFF0E09A0115
:1029700057FF03C031952195310994E0220F331F91
:102980009A95E1F72E173F070CF4F901EE0DFF1DA4
:10299000EF3FF10519F010F0EFEFF0E02E2F20954A
:1029A000382F320F08F43FEF832F0F91FF90EF90F5
:1029B0000895EF92FF920F93972FFA01B9019701B3
:1029C000093430F4201B31092F3F310519F010F084
:1029D0002FEF30E03896719740F0AB01485F5F4FC2
:1029E0004131510510F02FEF30E02095382F320F94
:1029F00008F43FEF832F77FF02C06D5F7F4F75951F
:102A000067957595679520915B05620F792F0F91FA
:102A1000FF90EF900895EF92FF920F939701201B84
:102A200031092F3F310519F010F02FEF30E0322F30
:102A30003095482F430F08F44FEF842F620F0F910A
:102A4000FF90EF900895EF92FF920F939701201B54
:102A500031092F3F310519F010F02FEF30E02095AC
:102A6000382F320F08F43FEF832F0F91FF90EF9034
:102A7000089590919E04982B90939E040895FC01D4
:102A80009B01009719F4832F80780895AC0197FF7C
:102A900004C044275527481B590BB901640F751F03
:102AA00037FD0FC0C901841B950BA5E0880F991F46
:102AB000AA95E1F70E948C3180E2861BF7FD819593
:102AC0000895CB0165E0880F991F6A95E1F7BA0177
:102AD000621B730B0E948C3180E6EFCF0F931F9324
:102AE000CF93DF93D62F172FC82FBA01C901212FFB
:102AF000201B022F0E943F15982F990F990F782FB6
:102B0000791B700F719F712D11246D2F8C2FDF9108
:102B1000CF911F910F910895FF920F931F93CF9321
:102B2000DF93D62FC72F182FBA01C901F12EF01A43
:102B30000E943F15982F990F990F082F091B0F0D11
:102B4000019F012D11246D2F7C2F802FCDB7DEB773
:102B5000E5E00C941032EF920F931F93CF93DF9325
:102B6000D62F172FC82FBA01C9010E19010F0E94C5
:102B70003F15702F781B719F712D11246D2F8C2F95
:102B8000DF91CF911F910F91EF900895EF920F93E6
:102B90001F93CF93DF93D62FC72F182FBA01C901E8
:102BA0000E19010F0E943F15081B019F012D1124D2
:102BB0006D2F7C2F802FDF91CF911F910F91EF9080
:102BC00008950F93CF93DF93D72FC82FBA01C90170
:102BD0000E943F15682F600F7D2F8C2FDF91CF91C2
:102BE0000F910895EF920F93CF93DF93D72FC82FB4
:102BF000BA01C9010E190E943F15602F681B7D2F75
:102C00008C2FDF91CF910F91EF90089548E050E025
:102C100067E170E08AE595E00E94C73210929E0459
:102C200008950E947A120895A0E0B0E0EAE1F6E18A
:102C30000C94EA31882E762E062F10E020E1829F38
:102C4000C00111249C012C5F3E4FF901E00FF11FE0
:102C5000C081CF3FB1F1A12CB12C612CD0E09E01FD
:102C6000220F331FA9014C5A5E4F6A01E901CB5A6A
:102C7000DE4F83539B4F080F191F7501912C88E27B
:102C8000582EF701EC5FFE4F20812F3F59F0861040
:102C90001DC079101BC0F801208130E2230F08F419
:102CA0002FEF208393947FEFE71AF70A80E19812C1
:102CB000E8CF6394E0E1AE0EB11CF0E5AF16B104CD
:102CC000E1F6CDB7DEB7EFE00C94063230E0F60166
:102CD0004081F901EE0FFF1FEC5AFE4F8081481B27
:102CE000550B8881220F331FF901EB5AFE4F90815B
:102CF000682F691B770B9B01449FB001459F700DA6
:102D0000700D1124229FC001239F900D900D11245E
:102D1000860F971F0E948812382F893218F6252DAA
:102D2000231B08F420E0F701E353FB4F213108F0A7
:102D300020E13081320F08F43FEF3083B3CFEAE572
:102D4000F5E085E380838091670290916802A0910D
:102D5000690281839283A3838FE784838FEF8583C6
:102D60000E940616089580E008950F931F93CF9355
:102D7000DF93C82FD62F8A010E94B31690E1C99F16
:102D8000900111242C5F3E4FF901ED0FF11D908150
:102D90009F3F29F0F801E80FF11D90838F5FDF91CD
:102DA000CF911F910F910895E091F902F091FA02ED
:102DB00009950895E091F502F091F60209950895BC
:102DC0001F93CF93DF93EC01FC01E850FE4F80810D
:102DD00068236623B1F00E94B812182F0E94B8121F
:102DE00020E8829FC00111247FE7790F612F809135
:102DF0005D050E941116462F672F282FCE010E94D5
:102E0000DA16DF91CF911F910895A0E0B0E0EBE0DA
:102E1000F7E10C94F231EC01FC01E850FE4F8081A7
:102E20006823662349F1D0905C0500915D051091FF
:102E30005B05E12EF12C0E94B812482FC7018C547B
:102E40009F4F68E671E00E948C318E199F0997FDB3
:102E5000039695958795959587954370612F489F23
:102E6000600D11247D2D802F0E941116462F672F93
:102E7000282FCE010E94DA16CDB7DEB7E7E00C941A
:102E80000E32E091F702F091F80209950895A8E05A
:102E9000B0E0EDE4F7E10C94E831FC01F0905D0561
:102EA000AF2CB12C8501000F111F0A0D1B1D1695AB
:102EB000079516950795302E8FEF90E0B5010E948B
:102EC0008C31562E8281882371F040E060E080E0F2
:102ED0000E944117EDECF4E080E5DF011D928A9538
:102EE000E9F710929D0480919C048F5F80939C046D
:102EF0008DEC882E84E0982E412C3501601A710AE1
:102F0000E0909D04EE2079F06401E12CD6018C91D3
:102F1000882389F08F1578F490919C0495110BC04B
:102F200081508C9308C00E946A328535954064F7C1
:102F3000F401F0826401AE014F5F5F4F642D8E2D6E
:102F40000E94B5168823D1F0F6018081E981F0E076
:102F5000282F30E0381608F04FC0201B310B209F7F
:102F6000C001219F900D309F900D1124B3010E944C
:102F70007831262F4F2DCF010E94DA16E394F0E12D
:102F8000CF0ED11C25E0E212C1CF43944FEF841A3B
:102F9000940A80E14812B4CF80919C04851102C04C
:102FA00010929C0480919D048F5F8D3198F1109256
:102FB0009D042DEF34E084E09FEF9F0DADE0B5E080
:102FC000F901843021F44C91F41201C09C934081AA
:102FD0004F1510F09083F08A1196319645E0AD318F
:102FE000B40779F78150205131098111E7CF80E092
:102FF0002896E1E10C9404322A9DC0012B9D900D8E
:103000003A9D900D1124B8010E947831462F20E09E
:1030100060E0B1CF80939D04EACFA8E0B0E0E3E1A7
:10302000F8E10C94EF31E82EB62EA42E0E94A60DE6
:10303000882309F457C0F12CAA2041F0AE014F5F5C
:103040005F4F6B2D8E2D0E94B516F82E0F2D10E0C0
:1030500080919F04800F912F911D09976CF188E05A
:1030600090E06C01C01AD10AB80160567B4FA601EE
:1030700080EA94E00E948732B80168557B4FA60130
:1030800088EA94E00E948732A601440F551FB801D8
:10309000660F771F68547B4F88EB94E00E9487325D
:1030A000B80160557B4FA60180EB94E00E94873207
:1030B00088E08F1980939F0410919F04DE01119680
:1030C00040E0242F210FF41211C020939F04AA2066
:1030D00049F080915A058C7F883721F46B2D8E2D15
:1030E0000E9414162896EAE00C940B325D91852F0D
:1030F00090E030E0B90161567B4FFC01EE0FFF1FFD
:10310000EC5AFE4F0081FB010183880F991FFC01DF
:10311000EB5AFE4F8081FB018187518BF901EE0F45
:10312000FF1FE156FB4F128E118E4F5FCACF81E019
:1031300008950E949718089591E1899F802D112488
:10314000980F933508F092E50895A0E0B0E0EBEA1F
:10315000F8E10C94E9313C012B01FC0180810E94D3
:103160009C18C82F192F60915E05669580916205A5
:10317000909163050E947E12F82ED0E0CE01880F58
:10318000991F9C012C5A3E4F6901C11748F081E0FC
:10319000123508F080E0CDB7DEB7E0E10C940532DF
:1031A000FE01E850FE4F8081F3019181892388233D
:1031B00079F1F6018081282F2057330B5901818145
:1031C000E82FE052FF0B4F01AA9C9001AB9C300D01
:1031D000300D1124EE9FC001EF9F900D900D112432
:1031E000820F931F0E948812082F60915B057091D7
:1031F0005C0580915D05EF2C9401A501F201099514
:103200000E941116462F672F282FCE010E94DA1632
:10321000F2E0CF0ED11C2196B8CF6BEA75E10E9487
:10322000A518089566EC75E10E94A518089563E756
:1032300073E10E94A518089562EF75E10E94A51838
:1032400008958F929F92BF92CF92DF92EF92FF925A
:103250000F931F93CF93DF936C014B01FC0180818F
:103260000E949C18C82F192F60915E056695809169
:103270006205909163050E947E12B82ED0E0CE01C7
:10328000880F991F9C012C5A3E4F7901C11780F07D
:1032900081E0123508F080E0DF91CF911F910F910E
:1032A000FF90EF90DF90CF90BF909F908F90089508
:1032B000FE01E850FE4F8081F60191818923882329
:1032C000C1F0F70121812052330B40814057550B4B
:1032D00060915B0570915C0580915D050B2DF4019B
:1032E00009950E941116462F672F282FCE010E94A4
:1032F000DA16F2E0EF0EF11C2196C8CF6EE675E10A
:103300000E94211908956CE875E10E942119089521
:1033100064E873E10E942119089561EE75E10E944D
:1033200021190895A0E0B0E0E8E9F9E10C94F13149
:103330007C016B01FC0180810E949C18C82F192F11
:1033400060915E056695669521E0620F08F46FEF67
:1033500080916205909163050E947E12082FD0E053
:10336000C11748F081E0123508F080E0CDB7DEB734
:10337000E8E00C940D32FE01E850FE4F8081F70129
:1033800091818923882391F060915B0570915C05A0
:1033900080915D05202F4C2FF60109950E94111692
:1033A000462F672F282FCE010E94DA162196D8CFFC
:1033B0006CEE72E10E949219089568E173E10E9437
:1033C0009219089566E473E10E949219089568E4E1
:1033D00073E10E949219089561E573E10E949219C8
:1033E00008956AE573E10E949219089563E474E117
:1033F0000E949219089569E674E10E949219089555
:10340000A4E0B0E0E6E0FAE10C94EF316C015B017E
:10341000FC0180810E949C188B83F92E60915E05CF
:103420006695669580916205909163050E947E1273
:10343000182F80E4810F0E94CD1280588983812F3C
:103440000E94CD1280588A839B81892F90E09C83B3
:103450008B839B819F1548F081E0E1E5EF1508F42F
:1034600080E02496EAE00C940B32EB81FC81E8507A
:10347000FE4F8081F601918189238823A9F0609114
:103480005B0570915C0580915D05E12E0B812A81C1
:103490004981F50109950E941116462F672F282FA3
:1034A0008B819C810E94DA168B819C810196CFCF03
:1034B0006DEA73E10E94001A08956BED73E10E94BA
:1034C000001A08956AE074E10E94001A0895A0E0CD
:1034D000B0E0EDE6FAE10C94EE318C017B01FC01E9
:1034E00080810E949C18C82FB92E20915E0531E082
:1034F000230F08F42FEF30E040E050E06FEF7FEF54
:1035000080E090E00E94C2316901D0E0A22E9D2CA3
:103510002C2FCB1550F081E0F1E5FB1508F480E08D
:10352000CDB7DEB7EBE00C940A32FE01E850FE4F57
:103530008081F80191818923882319F140916605E2
:103540004150042E000C550B47FF1DC08A2D992DAC
:1035500060915E0521E0620F08F46FEF0E947E1219
:10356000AC0160915B0570915C0580915D05F70190
:1035700009950E941116462F672F282FCE010E9411
:10358000DA162196C5CFFA01EA59FA4F81898213DA
:103590000AC0FA01EE0FFF1FEA59FA4F818D928D92
:1035A0008C159D05A8F241505109CECF6AE774E110
:1035B0000E94671A089561E874E10E94671A0895ED
:1035C000AAE0B0E0E6EEFAE10C94E731382E2B01E8
:1035D00049835A83FB0180810E949C189D83F0914E
:1035E0006605FE83282F30E03A872987C901880FB6
:1035F000991FFC01EC5AFE4F6F01832D90E09C0156
:103600002F5F3F4F38872F838D819985981748F01A
:1036100081E0ED81E23508F080E02A96E2E10C9449
:103620000332E985FA85E850FE4F8081F2019181ED
:103630008923882309F1F0915B05FB8320915C05C8
:103640002C838F8198858A599A4F3C01232C10E056
:10365000FE812F16D8F020915D05129F112D1124A7
:103660006B817C81812F0E941116462F672F282F96
:1036700089859A850E94DA1629853A852F5F3F4F02
:103680003A87298732E0C30ED11CBECFF301819166
:103690003F01F601A080A81ABB088180F301878151
:1036A000881A9908AA9C9001AB9C300D300D11240A
:1036B000889CC001899C900D900D1124820F931F4E
:1036C0000E948812082F60915E0521E0620F08F4C5
:1036D0006FEFF301EE0FFF1FE656F54085899689DF
:1036E0000E947E127C019401A5016B817C81812F57
:1036F000E981FA8109956B837C83182F2394A8CFE5
:10370000BC012091660531E0231B08F420E048E865
:1037100054E1822F0E94E01A0895BC0148E854E168
:1037200080E00E94E01A0895BC012091660531E016
:10373000231B08F420E041EA54E1822F0E94E01AA2
:103740000895BC0141EA54E180E00E94E01A089526
:10375000BC012091660531E0231B08F420E049ED0F
:1037600054E1822F0E94E01A0895BC0149ED54E112
:1037700080E00E94E01A0895BC012091660531E0C6
:10378000231B08F420E04BE055E1822F0E94E01A51
:103790000895BC014BE055E180E00E94E01A0895D5
:1037A000BC012091660531E0231B08F420E043E2D0
:1037B00055E1822F0E94E01A0895BC0143E255E1D1
:1037C00080E00E94E01A0895A0E0B0E0EAEEFBE19C
:1037D0000C94F1317C01FC0180810E949C18C82F5F
:1037E000192F60915B0570915C0580915D050E94C9
:1037F0001116062FD72EC82ED0E0C11748F081E051
:10380000123508F080E0CDB7DEB7E8E00C940D3259
:10381000FE01E850FE4F8081F701918189238823C2
:1038200031F02C2D402F6D2DCE010E94DA162196FD
:10383000E4CFA0E0B0E0EFE1FCE10C94EE317C01DC
:10384000FC0180810E949C18C82F192FD0915B0524
:10385000A0905C05B0905D056D2F7A2D8B2D0E9498
:103860001116062FD72EC82E80915E056D2F680F7A
:103870007A2D8B2D0E941116B62EA72E982ED0E0F1
:10388000C11748F081E0123508F080E0CDB7DEB70F
:10389000EBE00C940A32FE01E850FE4F9081F701F4
:1038A00081818923882359F0292D4B2D6A2D90FD84
:1038B00003C02C2D402F6D2DCE010E94DA162196CB
:1038C000DFCFA0E0B0E0E7E6FCE10C94F1317C0151
:1038D000FC0180810E949C18192FD0905C05C0903B
:1038E0005D0520915E0500E4029F012D1124C82F83
:1038F000D0E0C11748F081E0123508F080E0CDB784
:10390000DEB7E8E00C940D32FE01E850FE4F8081F6
:10391000F701918189238823B9F0FE01EE0FFF1F83
:10392000EB5AFE4F808182958F7060915B05809F7E
:10393000600D11247D2D8C2D0E941116462F672FAE
:10394000282FCE010E94DA162196D3CFA0E0B0E056
:10395000ECEAFCE10C94F0316C01FC0180810E94E6
:103960009C18F92EE0905C05B0905D0520915E05F5
:1039700000E4029F012D1124C82FD0E010E0CF15E4
:1039800050F081E091E59F1508F480E0CDB7DEB7F7
:10399000E9E00C940C32FE01E850FE4F8081F60104
:1039A000918189238823E9F0FE01EE0FFF1FEC5A75
:1039B000FE4F2081209FC001219F900D112425E002
:1039C000959587952A95E1F760915B05680F7E2DA7
:1039D0008B2D0E941116462F672F282FCE010E9493
:1039E000DA162196CCCFA0E0B0E0E9EFFCE10C9430
:1039F000F1317C01FC0180810E949C18C82F192F95
:103A000000915B05D0915C05D0905D0560915E05ED
:103A100066956695669580916205909163050E9412
:103A20007E120E94CD12805887FD8195880F282F25
:103A30003D2D239F212D1124822F602F7D2F0E9449
:103A40001116062FD72EC82ED0E0C11748F081E0FE
:103A5000123508F080E0CDB7DEB7E8E00C940D3207
:103A6000FE01E850FE4F8081F70191818923882370
:103A700031F02C2D402F6D2DCE010E94DA162196AB
:103A8000E4CFCF92DF92FF920F931F93CF93DF93F8
:103A90008C01FC0180810E949C18F92EF801928112
:103AA00091112DC060915E0520E1620F08F46FEF67
:103AB00080916205909163050E947E126AE070E039
:103AC0000E947831892B71F40E94B812F2E58F9F21
:103AD00090011124F8016181832F932F990F990B85
:103AE0000E94051781E0F1E5FF1508F480E0DF9101
:103AF000CF911F910F91FF90DF90CF900895C82F25
:103B0000D0E0CF2CD12CCC15DD0564F7F801618114
:103B1000CE010E9405172196F6CFCF92DF92FF9239
:103B20000F931F93CF93DF938C01FC0180810E9440
:103B30009C18F92EF801928191112DC060915E05BB
:103B400020E1620F08F46FEF8091620590916305A8
:103B50000E947E1265E070E00E947831892B71F43A
:103B60000E94B812F2E58F9F90011124F801618143
:103B7000832F932F990F990B0E94E01681E0F1E5B6
:103B8000FF1508F480E0DF91CF911F910F91FF9016
:103B9000DF90CF900895C82FD0E0CF2CD12CCC153A
:103BA000DD0564F7F8016181CE010E94E0162196DF
:103BB000F6CFA0E0B0E0EFEDFDE10C94F1318C0127
:103BC000FC0180810E949C18C82FF92ED0905C05C2
:103BD000E0905D05D0915B0560915E056695669508
:103BE000669580916205909163050E947E120E9405
:103BF000CD1220E8280F27FD2195220F3CE0239FBE
:103C0000212D11246D2F620F7D2D8E2D0E947A1291
:103C1000E62ED72EC82ED0E0CF1550F081E091E5EA
:103C20009F1508F480E0CDB7DEB7E8E00C940D32C4
:103C3000FE01E850FE4F8081F8019181892388239D
:103C400031F02C2D4E2D6D2DCE010E94DA162196CD
:103C5000E3CFA0E0B0E0EFE2FEE10C94E931EC014B
:103C600088810E949C18582E092F8A81882361F030
:103C700040E060E080E00E944117EDECF4E080E578
:103C8000DF011D928A95E9F78881882399F1C12C7B
:103C9000D12C612C9AEA492E760180E1782EF70129
:103CA000EC5FFE4F5F01E081E51558F0E01748F446
:103CB000F0E0E850FE4F808199818923811133C063
:103CC00063947A94BFEFEB1AFB0A7110E8CFE0E43B
:103CD000CE16D10431F0F0E1CF0ED11C20E1261533
:103CE000D8F681E0023508F080E0CDB7DEB7E0E13C
:103CF0000C94053280911E0590911F050E94732A35
:103D00009C0181E02931310508F480E080931D0594
:103D10002931310508F4BBCF0E944A2A90931F0530
:103D200080931E05B4CFC70183539B4F4C01DC0128
:103D30001C91612F25E5621B08F460E0842D861B31
:103D4000682F70915C05242D210F08F42FEF30911E
:103D50005D05822F880F820F8E5F282F239F212DD4
:103D60001124822F0E941116462F672F282FD5016C
:103D70008C9190E00E94DA1680911D05882309F449
:103D80009FCF21E0121B08F410E0D4011C9398CFC0
:103D9000A0E0B0E0EEECFEE10C94F231C82F80918F
:103DA00050028C1325C020915A05237030E04091B9
:103DB000510250E081E02417350709F480E081705A
:103DC00080934F0280915F0590914E02981739F0D1
:103DD00080934E0240E060E080E00E944117CC32C8
:103DE00008F098C1EC2FF0E0E55DFC4C0C94E1315B
:103DF00081E0E5CF80914F02882309F445C240E07D
:103E000060E080E00E94411780914D028F5F8093B7
:103E10004D0282E080934C0280914F02882309F486
:103E200038C2E7C18DE492E00E94E41B90914D02FC
:103E30009F5F90934D028111DCC182E080934C0220
:103E400080914F028111D5C1CC23E9CF8DE492E05E
:103E50000E94191CEBCF8DE492E00E94611CE6CF1A
:103E60008DE492E00E94A61CE1CF8DE492E00E94D6
:103E7000F31CDCCF8DE492E00E94D819D7CF8DE4FB
:103E800092E00E94DD19D2CF8DE492E00E947E196B
:103E9000CDCF8DE492E00E948319C8CF8DE492E0EB
:103EA0000E940D19C3CF8DE492E00E941219BECF7B
:103EB0008DE492E00E94E219B9CF8DE492E00E9475
:103EC000E719B4CF8DE492E00E94EC19AFCF8DE4F6
:103ED00092E00E94F119AACF8DE492E00E94171996
:103EE000A5CF8DE492E00E948819A0CF8DE492E0E6
:103EF0000E948D199BCF8DE492E00E941C1996CFF1
:103F00008DE492E00E94581A91CF8DE492E00E94D5
:103F10005D1A8CCF8DE492E00E94621A87CF8DE407
:103F200092E00E94411D82CF8DE492E00E948D1D9F
:103F30007DCF8DE492E00E94D91D78CF8DE492E090
:103F40000E94F61973CF8DE492E00E94FB196ECFA8
:103F500080914D020E949C18F92E4091620550916B
:103F60006305609164057091650580919804909156
:103F70009904A0919A04B0919B0484179507A60711
:103F8000B70708F046C00E94B81222E5829F800160
:103F90001124012F110F110BF801E850FE4F808101
:103FA00090914E0289238823A1F10E94B81281FFCB
:103FB00037C0D0E070E080E06D2F0E941116462FD0
:103FC000672F282FC8010E94DA1620915E0530E184
:103FD000230F08F42FEF60E1822F90E00E947E1201
:103FE000BC0184EF91E00E9478318091620590914C
:103FF0006305A0916405B0916505860F971FA11D0B
:10400000B11D8093980490939904A0939A04B0935F
:104010009B0481E0F1E5FF1508F008CF80E006CFB2
:104020000E94B812D82F0E94B812E0E88E9FC001FB
:1040300011247FE7790F80915D05BECF80914F02FB
:104040000091940410919504209196043091970466
:10405000409162055091630560916405709165051A
:10406000401751076207730708F454C081115BC001
:1040700080914D020E949C18F92EC82FD0E08E012D
:10408000000F111F0C0F1D1F02561C4FCF1508F4F7
:1040900080C021E52F1508F0A7C08F2D90E0AC015E
:1040A000440F551F480F591F4350510961EA73E0EF
:1040B0008EE993E00E9490320E94B81281FF7DC089
:1040C00010929104109292041092930420915E0534
:1040D00030E1230F08F42FEF60E1822F90E00E947F
:1040E0007E12BC0188EB9BE00E94783180916205D2
:1040F00090916305A0916405B0916505860F971FA7
:10410000A11DB11D8093940490939504A0939604EF
:10411000B093970480914D028F5F80934D0282E0AF
:1041200080934C0266C040E060E080E00E9441174E
:104130000EE913E0C0E0D0E00E94B81281FF0BC08E
:10414000F80110821182128221960D5F1F4FC23535
:10415000D10591F78DCF0E94B812D82E0E94B812C7
:10416000F0E88F9FC00111247FE7790F7E01EE0CEC
:10417000FF1CEC0EFD1EC70182569C4F7C016D2D6D
:1041800080915D050E947A12F701608371838283BA
:10419000DBCFFE01E850FE4F808190914E028923D3
:1041A000882339F0F801228140816181CE010E948B
:1041B000DA160D5F1F4F219669CF0E94B812C82FE3
:1041C0000E94B812E0E88E9FC00111247FE7790FAA
:1041D0006C2F80915D050E947A1260939104709318
:1041E00092048093930472CF80914D028F5F8093ED
:1041F0004D02CDB7DEB7E7E00C940E328DE492E0CD
:104200000E94291E13CE8DE492E00E9447170ECE25
:104210008DE492E00E94D61A09CE8DE492E00E94CD
:10422000DB1A04CE8DE492E00E94801BFFCD8DE46A
:1042300092E00E948D1BFACD8DE492E00E94941BC7
:10424000F5CD8DE492E00E94A11BF0CD8DE492E0CB
:104250000E94A81BEBCD8DE492E00E94B51BE6CD39
:104260008DE492E00E94BC1BE1CD8DE492E00E94BF
:10427000C91BDCCD8DE492E00E94D01BD7CD8DE42C
:1042800092E00E94DD1BD2CD80914D028F5F809322
:104290004D0283E045CF81E008950E944B210895AF
:1042A000FC01808181500E949C18692F0E944D2141
:1042B00008954F925F926F927F928F929F92AF92EA
:1042C000BF92CF92DF92EF92FF92CF93DF9300D015
:1042D00000D0CDB7DEB78091C8049091C904A091F9
:1042E000CA04B091CB0489839A83AB83BC83BC019D
:1042F000CD010E94822A6B017C010E94562A6093A4
:10430000C8047093C9048093CA049093CB04A0910D
:104310009F04EFE9F4E02A2F30E088248A94982C57
:10432000A12CB12C8C189D08AE08BF08A3132FC078
:1043300020939F042091CC0421113CC020915A0568
:10434000A22FA370A983AA2319F026952695298365
:1043500020914C02223009F455C070F5211141C062
:1043600010924D026093620570936305809364051B
:104370009093650589E2EFE9F4E0A6E6B5E00190E7
:104380000D928A95E1F781E080934C0217C0418D30
:10439000528D2A01612C712C84149504A604B70453
:1043A00020F421503F5F3296C1CF4C0D5D1D528FDE
:1043B000418FF8CF1982CCCF233081F10F900F902D
:1043C0000F900F90DF91CF91FF90EF90DF90CF9003
:1043D000BF90AF909F908F907F906F905F904F9025
:1043E000089589810E94C81EB981BB2339F3809149
:1043F0004C02823011F40E9499188DE492E00E94E0
:104400005021DCCF39813093500280915A0583705E
:10441000809351020E94D41683E0B6CF80919E040F
:1044200081110E9406168091620590916305A0910A
:104430006405B0916505BC01CD010E94822A6983A3
:104440007A838B839C83603171058105910508F423
:10445000B5CF10924C02B2CFE091F302F091F4028A
:1044600009951092660540E150E06FEF70E08FE72C
:1044700095E00E94A23210929F0440E150E06FEF5D
:1044800070E088EB94E00E94A23281E080939E0469
:1044900048E050E067E170E08AE595E00E94A932CB
:1044A00010929E0480915A05843010F40E949F1649
:1044B0000895CF93C82F882391F08091CC04811167
:1044C0000EC00E94C81E1092500280915A0583703F
:1044D000809351020E94D41683E080934C02C093D3
:1044E000CC04CF910895EAE5F5E0908121E0922790
:1044F000908310924C020E943915089581E00E9429
:1045000073220895982F862F20915A052370222315
:1045100089F0992381F09C3280F49F73990F990F51
:1045200020915A052370922B90935A0510924C02B9
:104530000E943915089591E0F1CF9BE2EFCF61E041
:104540000E9482220895682F80915A05869586954B
:104550008F5F8C3208F081E00E948222089581E012
:104560000E94A3220895682F90915A0596959695DA
:104570008FEF890F913009F48BE20E948222089517
:1045800081E00E94B3220895982F822F20915A052E
:104590002370222359F090935B0560935C054E379E
:1045A00008F04DE740935D050E9439150895282FC6
:1045B000EAE5F5E09181892F90E0438162810896D8
:1045C0000E94C422089581E00E94D7220895282FD6
:1045D000EAE5F5E08181438162818850990B0E9470
:1045E000C422089581E00E94E7220895282FEAE579
:1045F000F5E0628130E1630F08F46FEF8181438160
:1046000090E00E94C422089581E00E94F62208955D
:10461000282FEAE5F5E0628130E1631B08F460E0F1
:104620008181438190E00E94C422089581E00E942C
:1046300008230895282FEAE5F5E0438130E1430F90
:1046400008F44FEF8181628190E00E94C4220895B6
:1046500081E00E941A230895282FEAE5F5E04381BE
:1046600030E1431B08F440E08181628190E00E94C8
:10467000C422089581E00E942C230895EAE5F5E024
:10468000248130E1230F08F42FEF24830E94391591
:10469000089581E00E943E230895EAE5F5E0248133
:1046A00030E1231B08F420E024830E94391508958B
:1046B00081E00E944D230895CF93DF93DC01FC013C
:1046C000EE0FFF1FEF01CA0FDB1FC157DA4F8981C1
:1046D000861306C08881841303C08A81821751F033
:1046E00081E080932005EA0FFB1FE157FA4F6183B9
:1046F00040832283DF91CF910895FF920F931F9300
:10470000CF93DF93182F062FF42EC0E0D0E02F2D8B
:10471000402F612FCE010E945C232196C235D10526
:10472000B1F7CDB7DEB7E5E00C94103280912005EB
:10473000882341F062E570E08FE895E00E940E2446
:104740001092200508950E940C24109220050895CF
:10475000FA01882311F009950895FB01FCCF1F93FE
:10476000CF93DF93EC01FB011581111153C00E941F
:10477000BC0B8272FE01E052F847E531F10508F00A
:1047800049C0E95AFC4C0C94E1310E947E22812FF1
:10479000DF91CF911F91089540EC52E26FEA72E2EF
:1047A0000E94A823F4CF4FEA52E260EC72E2F8CF05
:1047B00042EF52E263EE72E2F3CF43EE52E262EF77
:1047C00072E2EECF46E153E264E073E2E9CF44E007
:1047D00053E266E173E2E4CF4AE353E268E273E254
:1047E000DFCF48E253E26AE373E2DACF48E553E20F
:1047F00069E473E2D5CF49E453E268E573E2D0CFD0
:1048000081E00E949F22C3CF85E0FBCF8DE0F9CFEE
:1048100082E1F7CF11E0BBCF279A08959C01AB014D
:1048200065B16F7775B17068EFB7F894CA01880FFA
:10483000991F840F951F820F931F8217930741F4CE
:10484000EFBF8FE594E00197F1F700C000000895F5
:10485000D9014D919D0158E075B9000000C047FF96
:1048600065B9440F000000C000C000C065B900C0B9
:104870005A9591F7E2CF0E94B30C089580E00E9410
:104880008010817008950E9449112FEF86E791E012
:10489000215080409040E1F700C000000E94491183
:1048A0000E943E24882321F00E943B240E94C62AB5
:1048B00008950E9443240895CF93DF93EB0186313E
:1048C0009C4719F50E94BC0B9D819923A1F08A7A1F
:1048D00091E0811101C090E090932105882349F077
:1048E00085E30E9460290E944F0C80E0DF91CF9108
:1048F000089589E2F6CF80912105882321F085E390
:104900000E946829F0CF89E2FBCF81E0EFCFCF93FF
:10491000DF93EC01FB018581882309F4D2C09E015D
:1049200030572332310508F0B2C00E94CF0C90936B
:10493000450580934405FE01E150F047E232F10560
:1049400020F4E459FC4C0C94E131809144058160E1
:104950008093440593C08091450588608093450508
:104960008DC0809144058260F3CF809144058460BE
:10497000EFCF809144058860EBCF80914505816041
:10498000EDCF809145058260E9CF8091440580613B
:10499000DFCF809144058062DBCF80914405806445
:1049A000D7CF0E944E07809144058068D1CF809177
:1049B00044058C60CDCF809145058360CFCF809139
:1049C00044058E7FC5CF80914505877FC7CF8091F5
:1049D00044058D7FBDCF809144058B7FB9CF8091F9
:1049E0004405877FB5CF809145058E7FB7CF8091F5
:1049F00045058D7FB3CF809144058F7EA9CF8091EF
:104A000044058F7DA5CF809144058F7BA1CF0E9467
:104A10004E07809144058F779BCF80914405837F1B
:104A200097CF809145058C7F99CF8091440582FB7B
:104A3000992790F921E0922790FB82F990FB83F966
:104A400087CF80914505982F909591708E7F892B07
:104A500090FB81F983CF90914405892F8F7B96FF3E
:104A6000806476CF0E944E0790914405892F97FB72
:104A700087F980586DCF81E00E94580D80914405E0
:104A8000909145050E94D40C0E944E0780E0DF9172
:104A9000CF91089580E0F0CF90914405892F8F7ECB
:104AA00094FF806155CF90914405892F8E7F90FFB0
:104AB00081604ECF90914505892F877F93FF886055
:104AC0004DCF81E0E4CF282F35EB2303C001112423
:104AD00097FF04C080589109892F089580589F4FEF
:104AE000FBCF8091280580FF0DC06091590270E0D6
:104AF000660F771F60387105C0F561157105B9F152
:104B0000862F089581FF07C06091590284E0689F55
:104B1000B0011124EFCF82FF04C06091590288E0F8
:104B2000F6CF809127058823E9F090915802609193
:104B3000590270E0891730F093E0660F771F9A955D
:104B4000E1F7D8CF869F9001879F300D112483E035
:104B5000220F331F8A95E1F7692F70E0C9010E9487
:104B60008C31C8CF68E070E0CBCF8FE7089581E04B
:104B700008958091280580FF0CC06091550270E077
:104B800075956795759567956115710561F1862F26
:104B9000089581FF06C06091550270E07595679594
:104BA000F3CF6091550270E082FD15C0209126057B
:104BB0002223B1F0909154026091550270E02917C0
:104BC00050F4269FA001279F500D1124692F70E0FB
:104BD000CA010E948C3160387105B0F28FE70895E8
:104BE00061E070E0D4CF81E00895E3E3E80FE331C2
:104BF000E0F5F0E0E257FC4C0C94E1310E947125A5
:104C0000819580932C0508950E947125FACF0E940A
:104C10007125819580932B0508950E947125FACF07
:104C20000E94B92580932D0508950E94B92581958C
:104C3000F9CF0E94B925819580932E0508950E9491
:104C4000B925FACF815D990B21E030E001C0220F38
:104C50008A95EAF780912A05822B80932A05089588
:104C6000809128058160809328050895809128050A
:104C70008260F9CF809128058460F5CF40912B05A3
:104C80008D3C59F480912C0587FF0DC010922C05A6
:104C9000442359F41092270508C08E3C81F480917A
:104CA0002C0518169CF3442381F080912D059091DA
:104CB0002E05892B811159C01092260508958F3C2D
:104CC00041F447FFF0CF10922B0580912C058823EB
:104CD000E0CF803D19F41416B4F3E5CF90912D0583
:104CE000893D29F41916FCF610922D05DCCF8A3D7A
:104CF00019F497FFD8CFF8CF90912E058B3D29F46A
:104D000097FFD1CF10922E05CECF8C3D19F41916F6
:104D1000CCF3C9CF9FE2980F983090F4815D990B46
:104D200021E030E0B90102C0660F771F8A95E2F7F3
:104D3000CB01809590912A05892380932A05B3CFD2
:104D40008D3D31F4809128058E7F80932805ABCF6F
:104D50008E3D21F4809128058D7FF7CF8F3D09F09E
:104D6000A2CF809128058B7FF0CF08950E944A2A18
:104D700020912B0530912C05232B222321F08093A9
:104D800024059093250520912D0530912E05232B88
:104D9000222321F0809322059093230589E295E058
:104DA0000E94B428089586E0E9E2F5E0DF011D9253
:104DB0008A95E9F71092270510922605109228058A
:104DC0000895FC01828181110DC0838181110AC087
:104DD0008481811107C081E09581911101C080E03B
:104DE0008170089581E0FCCFA6E0B0E0EAEFF6E242
:104DF0000C94F43186E0E9E2F5E09E012F5F3F4F2D
:104E0000D90101900D928A95E1F710922B0510922D
:104E10002C0510922D0510922E058B819C81892BDB
:104E20008901882391F080912405909125050E94A5
:104E3000732A9C01809127058823C9F140915A0269
:104E400050E04217530708F43FC08D819E81892BA3
:104E5000882399F080912205909123050E94732A5E
:104E60009C0180912605882309F467C04091560271
:104E700050E04217530708F46EC0B80189E295E08C
:104E80000E947B29811105C089E295E00E94E126FC
:104E900081110E94B62686E0F801A9E2B5E00190F2
:104EA0000D928A95E1F72696E5E00C941032409138
:104EB0005B029AE0499FA00111244217530728F68C
:104EC0008F5F8093270502C08F3FD1F7FB80FF20C3
:104ED00059F00E94712591E01F140CF09FEF899FFB
:104EE000802D112480932B05FC80FF2059F00E9417
:104EF000712591E01F140CF09FEF899F802D1124E4
:104F000080932C0580912B05882309F49ECFF09087
:104F10002C05FF2009F499CF0E946325811101C05F
:104F200081E080932B058F2D0E946325882319F043
:104F300080932C058ACF81E0FBCF409157029AE005
:104F4000499FA00111244217530708F096CF8F5FA5
:104F50008093260502C08F3FD1F7FD80FF2059F0D6
:104F60000E94B92591E01F140CF09FEF899F802DBE
:104F7000112480932D05FE80FF2059F00E94B92551
:104F800091E01F140CF09FEF899F802D11248093D6
:104F90002E0580912D05882309F46FCFF0902E0502
:104FA000FF2009F46ACF0E946325811101C081E0CE
:104FB00080932D058F2D0E946325882319F08093FF
:104FC0002E055BCF81E0FBCF0F931F93CF93DF9331
:104FD000C42FD22FFC0185818823C9F0409331056D
:104FE0000E944A2A9093300580932F0580E28C0F0F
:104FF000883040F4C77081E001C0880FCA95EAF795
:105000000E94F104DF91CF911F910F9108951091AB
:10501000310514133CC080912F05909130050E94FA
:10502000732A883C910598F5C0E2CD0F1D1741F118
:1050300080E2810F883040F4177081E001C0880F52
:105040001A95EAF70E94F804C83020F0802F0E94D9
:10505000E804D8CF91E08D2F877001C0990F8A9511
:10506000EAF7892F0E94F104802F0E94E804D7708C
:1050700081E001C0880FDA95EAF70E94F804C2CFF8
:10508000802F0E94E804C83008F0BCCFF0CF80E247
:105090008C0F883008F0B6CFC77081E001C0880F50
:1050A000CA95EAF7EACF0F93FC01CB01E851FC4720
:1050B000E730F10590F5EF55FC4C0C94E13106E238
:1050C00021EE41EE6AE17CE70E94E42780E00F9147
:1050D000089507E225EE45EE6BE17CE7F5CF06E2A9
:1050E00021EE40EE68E17CE7EFCF07E225EE44EEEB
:1050F00069E17CE7E9CF06E221EE42EE6CE17CE774
:10510000E3CF07E225EE46EE6DE17CE7DDCF08E276
:1051100021E045EE6EE17CE7D7CFFB01858181116F
:105120001092310581E0D3CF9093370580933605F7
:105130000895E0913605F0913705309729F00190F8
:10514000F081E02D0995089580E008950E94992846
:105150000895E0913605F0913705309721F00280EF
:10516000F381E02D09950895DC01E0913605F09179
:105170003705309739F082E08C930680F781E02D77
:10518000CD0109950895A3E0B0E0E9ECF8E20C94B4
:10519000F7319C0180913405909135058217930772
:1051A000A1F03093350520933405E0913605F09158
:1051B0003705309751F083E089833B832A8300844D
:1051C000F185E02DCE01019609952396E2E00C943D
:1051D0001332A3E0B0E0EFEEF8E20C94F7319C015B
:1051E000809132059091330582179307A1F0309397
:1051F000330520933205E0913605F091370530975D
:1052000051F084E089833B832A830084F185E02D7B
:10521000CE01019609952396E2E00C941332409159
:105220004A0250914B029A012E5F3F4F485F5F4FF9
:1052300080E0F90190812F5F3F4F91118F5F4217FE
:105240005307B9F70895882371F020914A023091ED
:105250004B02F9013296285F3F4F9191981729F040
:10526000E217F307D1F780E0089581E008959C01EB
:10527000FC0132968FEF90E04191461751F08F3F3D
:1052800019F4411101C0892F9F5F9630A9F78F3F14
:1052900009F40895280F311D87FD3A95F9016283BD
:1052A00008959C01FC013296285F3F4F819186133F
:1052B00003C0DF0111971C92E217F307B9F70895B5
:1052C000682F80914A0290914B020E9437290895DD
:1052D000682F80914A0290914B020E9451290895B3
:1052E000E0914A02F0914B02329686E0DF011D9276
:1052F0008A95E9F70895DC01FB0111969C911197BD
:105300008181981322C012968C911297882319F0EC
:10531000928189131AC013968C911397882319F0E0
:105320009381891312C015968C911597882319F0D3
:10533000958189130AC014969C91992321F081E0EC
:105340002481291303C080E001C081E081700895A9
:1053500008950E94A82908958F5F809338050E94C0
:10536000A929089583E0809338050E94A92908950A
:105370000E94AC29089581E0809338050E94A929F4
:1053800008950E94BB290895089508950E94C52993
:105390000895089508950E94C4290895CF930E9406
:1053A000C9290E9449110E94CA29C0E08C2F0E947D
:1053B0008010892B31F4CF5FC530C1F780E0CF91E9
:1053C000089581E0FCCF85B7806885BF85B7806888
:1053D00085BF08951F921FB61F9211248F939F932C
:1053E000AF93BF9380913905811113C080918506D9
:1053F00090918606A0918706B09188064196A11DDE
:10540000B11D8093850690938606A0938706B0937E
:105410008806BF91AF919F918F911F901FBE1F90E3
:10542000189580918D06843031F10E945C031092B2
:10543000390588E190E020E40FB6F894A8958093B0
:1054400060000FBE2093600083B7817F846083BFBC
:1054500083B7816083BF7894889583B78E7F83BF3D
:105460000FB6F894A89580916000886180936000E1
:10547000109260000FBE08950E944E070E946603BE
:10548000089582E084BD93E095BD9AEF97BD809327
:105490006E0008952FB7F894809185069091860646
:1054A000A0918706B09188062FBF0895A4E0B0E0D0
:1054B000ECE5FAE20C94F7318FB7F8942091850669
:1054C00030918606409187065091880629833A8359
:1054D0004B835C838FBF69817A818B819C81249609
:1054E000E2E00C9413329C014FB7F894809185064A
:1054F00090918606A0918706B09188064FBF821BC7
:10550000930B0895A4E0B0E0E8E8FAE20C94F531DA
:10551000462F572FBC012FB7F894809185069091A4
:105520008606A0918706B09188062FBF8C019D0149
:10553000041B150B260B370BC901B8012496E4E0B8
:105540000C94113278941F921FB61F9211248F93DE
:105550009F93AF93BF938091850690918606A0910B
:105560008706B09188060196A11DB11D809385061E
:1055700090938606A0938706B0938806BF91AF915B
:105580009F918F911F901FBE1F90189581E080936F
:10559000E00080E28093D8001092C9008FE19EE481
:1055A0000197F1F700C0000087E090EBDC018093E9
:1055B000960690939706A0939806B093990688E173
:1055C0009CE00FB6F894A895809360000FBE90936E
:1055D0006000FFCF88E19CE00FB6F894A895809317
:1055E00060000FBE90936000FFCF80914205089548
:1055F0000895282FCB01BA0130918D063430E1F4A3
:105600002F702093E9002FEF3091E80035FD07C09F
:1056100035ED3A95F1F7000021502111F5CF209199
:10562000E80025FF09C040E050E00E94F62C809180
:10563000E8008E778093E8000895BC0143E050E0D5
:1056400082E00E94F92A0895BC0146E050E082E021
:105650000E94F92A0895CF93DF93D82FC92F48E0ED
:1056600050E0682F792F81E00E94F92A88E0ED2F21
:10567000FC2FAAE3B5E001900D928A95E1F7DF9146
:10568000CF91089580918C06811109C00E947E2ED1
:105690000E94DB2E8091E20084608093E2000895F6
:1056A00010928C0608950E94BB2908956091890686
:1056B00081E0611101C080E00E94B22908959091BB
:1056C0008D0681E0943009F080E0609189060E94A7
:1056D000B829089542E061EC81E00E94FA2D42E28F
:1056E00061EC82E00E94FA2D90918D0681E0943069
:1056F00009F080E0609189060E94AC2908958091AC
:105700008F06893089F148F4823009F4A0C08330D3
:1057100009F45AC0813041F008958A3009F487C0F5
:105720008B3009F46CC0089580918E06813A09F09F
:105730004AC08091E800877F8093E80080919206BC
:1057400090919306892B61F060E080E090E070E03A
:105750000E94452D8091E8008B778093E8000895A2
:1057600068E08AE395E0F3CF80918E06813259F5A7
:105770008091920690919306029728F58091E80017
:10578000877F8093E8008091E80082FF18C09091A5
:10579000F3008091F200029731F48091F1008130A2
:1057A00011F0863021F48091F100809342058091C0
:1057B000E8008B778093E8000E942E2E04C0809131
:1057C0008D068111E0CF089580918E06813AD9F738
:1057D0008091920690919306892BA9F78091E80019
:1057E000877F8093E8008091E80080FFFCCF809164
:1057F00066028093F1008091E8008E77DBCF809184
:105800008E06813201F78091920690919306892B42
:10581000D1F68091E800877F8093E8000E942E2EC9
:1058200080919006809366020E944E0708958091B1
:105830008E06813241F68091E800877F8093E800F0
:105840000E942E2E809191068093430508958091A9
:105850008E06813A09F0B7CF8091E800877F809368
:10586000E8008091E80080FFFCCF80914305C1CF24
:1058700084B7877F84BF0FB6F894A89580916000A5
:10588000886180936000109260000FBE80E890E015
:105890000FB6F89480936100909361000FBE0E9450
:1058A000C12908950E947E2E0E94DB2EE2EEF0E0D8
:1058B00080818460808378940E945E3108958CE5B5
:1058C00092E00E949428089580918D06853031F4ED
:1058D00080918D06853019F00E943C2A08950E941F
:1058E000112A0E94CE29882399F380918B06882360
:1058F00079F30E94E02C0E944E07EACF08959A01A6
:1059000040919406509195060E94872C0895AC0111
:10591000CB01D901252F332723303105E1F058F48D
:1059200021303105C9F122303105D9F180E090E014
:1059300020E030E01EC02132310521F12232310554
:10594000A9F7892BC1F16130710581F78BE790E0F0
:105950002BE733E00EC0CA019927413069F082304D
:10596000910569F0EAE2F3E0892B01F7849190E078
:105970009F012D933C930895E4E1F3E0F7CFECEE23
:10598000F2E0F4CF892B91F06130710579F689E06E
:1059900090E029E533E0EDCF82E190E029E633E0C5
:1059A000E8CF8BE390E02EE233E0E3CF89E090E0B4
:1059B00020E433E0DECF84E490E026EF33E0D9CF7B
:1059C00080E189BD82E189BD09B400FEFDCF8091EF
:1059D000D8008F7D8093D8008091E0008260809312
:1059E000E0008091E00081FDFCCF0895AF92BF926E
:1059F000CF92DF92FF920F931F93CF93DF936C01AF
:105A0000EB018A010E944D2EF82E811123C0011551
:105A1000110539F0F80180819181C81BD90BC80E9E
:105A2000D91EA12CB12C2097A9F08091E80085FD0A
:105A300022C08091E8008E778093E800011511055F
:105A4000A1F0F801808191818A0D9B1D9183808353
:105A500085E0F82E8F2DDF91CF911F910F91FF9050
:105A6000DF90CF90BF90AF9008950E944D2E882375
:105A7000E1F2F82EEFCFF60181916F018093F100F2
:105A80002197FFEFAF1ABF0ACECFFC019B01809197
:105A90009406909195068617970718F0672B61F08A
:105AA000C90140E0009771F441110CC08091E800F9
:105AB00082FF35C080E008958091E8008E77809362
:105AC000E800EECF20918D062223A9F12530A9F11F
:105AD0002091E80023FD2DC02091E80022FDE6CFB3
