:100000000C949C020C94D4020C94D4020C94D40250
:100010000C94D4020C94D4020C94D4020C94D40208
:100020000C94D4020C94D4020C940A290C94DD296B
:100030000C94F1230C94D4020C94D4020C94D402AA
:100040000C94D4020C94D4020C94D4020C94D402D8
:100050000C94D4020C94A9240C94D4020C94D402D1
:100060000C94D4020C94D4020C94D4020C94D402B8
:100070000C94D4020C94D4020C94D4020C94D402A8
:100080000C94D4020C94D4020C94D4020C94D40298
:100090000C94D4020C94D4020C94D4020C94D40288
:1000A0000C94D4020C94D4020C94D40229001E00A7
:1000B0001F0020002100220023002400250026002C
:1000C00027002D002E002A004A002B0014001A00E1
:1000D0000800150017001C0018000C001200130087
:1000E0002F00300031004D003900040016000700D9
:1000F00009000A000B000D000E000F003300340051
:10010000280000003500E1001D001B00060019005A
:10011000050011001000360037003800E5004C00E3
:10012000520000000000E000E200000000002C008F
:1001300000000000E6000000E40000005000510054
:100140004F00167C3A003B003C003D003E003F0063
:100150004000410042004300440045004C004B0079
:10016000010020782178237824782578267827784C
:1001700028780100460047004800007C4E0001003E
:1001800029782A7801000100010001000100010026
:10019000010001000100037C00003500E1000100C6
:1001A0000100010001000100010001000100010047
:1001B000010001004C00A900000000000100010046
:1001C000000000000100000000000100000001002C
:1001D0000000AC00AA00AB00167C3A003B003C00DB
:1001E0003D003E003F00400041004200430044000B
:1001F00045004C004B0001002078217823782478BA
:10020000257826782778287801004600470048009E
:10021000007C4E00010029782A78010001000100CD
:10022000010001000100010001000100037C000049
:100230003500E100010001000100010001000100A2
:10024000010001000100010001004C00A9000000B4
:10025000000001000100000000000100000000009B
:100260000100000001000000AC00AA00AB00167CF9
:100270003A003B003C003D003E003F004000410092
:1002800042004300440045004C004B000100207830
:100290002178237824782578267827782878010013
:1002A000460047004800007C4E00010029782A786B
:1002B0000100010001000100010001000100010036
:1002C0000100037C00003500E10001000100010095
:1002D0000100010001000100010001000100010016
:1002E0004C00A90000000000010001000000000017
:1002F0000100000000000100000001000000AC004F
:10030000AA00AB000001010101010101010102028B
:1003100002020202020202030303030303030304B3
:10032000040404040404050505050506060606067E
:10033000070707070708080808090909090A0A0A38
:100340000B0B0B0C0C0C0D0D0D0E0E0E0F0F0F10DA
:100350001011111112121313141415151616171764
:10036000181819191A1A1B1B1C1D1D1E1E1F2020D0
:10037000212222232424252626272829292A2B2C1A
:100380002D2D2E2F30313232333435363738393A3D
:100390003B3C3D3E3F404142434445464748494A35
:1003A0004C4D4E4F50515354555658595A5B5D5E03
:1003B0005F616264656668696B6C6D6F707273759E
:1003C00077787A7B7D7E8082838587888A8C8E8F02
:1003D00091939596989A9C9EA0A2A3A5A7A9ABAD30
:1003E000AFB1B3B5B7BABCBEC0C2C4C6C9CBCDCF1E
:1003F000D1D4D6D8DBDDDFE2E4E7E9EBEEF0F3F5CC
:10040000F8FAFDFF1E0342006100670075006500F9
:10041000740074006500360036002000520047006A
:100420004200000010034B004200440066006100DF
:100430006E00730000000403090409023B0002017E
:1004400000A0FA09040000010301010009211101C3
:10045000000122440007058103080001090401008E
:100460000103000000092111010001226D000705B0
:1004700082032000011201000200000008424B0626
:100480000101000102000105010980A10185031994
:10049000012AB700150126B700950175108100C02B
:1004A000050C0901A101850419012AA002150126E4
:1004B000A002950175108100C005010906A1018502
:1004C00006050719E029E715002501950875018142
:1004D000020507190029EF1500250195F075018126
:1004E0000205081901290595057501910295017507
:1004F000039101C005010906A101050719E029E7DB
:100500001500250195087501810295017508810185
:100510000507190029FF150026FF009506750881BB
:10052000000508190129051500250195057501919A
:1005300002950175039101C011241FBECFEFDAE0CF
:10054000DEBFCDBF04B603FE18C08091F7059091C1
:10055000F805A091F905B091FA058730904BA740B6
:10056000B04B59F41092F7051092F8051092F90566
:100570001092FA05E0E0F8E3099512E0A0E0B1E09E
:10058000EAE9F9E502C005900D92AC3BB107D9F755
:1005900025E0ACEBB2E001C01D92A73FB207E1F746
:1005A0000E940E120C94672C0C940000CF930E94B2
:1005B0007D16C82F882359F00E944F2281FF07C063
:1005C0002FEF4FEF6FEF8FE190E00E94F7158C2F28
:1005D000CF9108958430B8F46530A8F44F3098F482
:1005E000E42FF0E09FE0699FE00DF11D11249BE4F2
:1005F000899FE00DF11D1124EE0FFF1FE455FF4F01
:1006000085919491089581E090E008950E94EA0216
:10061000089581E008950E940903089581E00895F6
:100620000E94090308950E941003089508950E94EE
:1006300016030895A6E0B0E0E0E2F3E00C94C52BC9
:1006400049835A839E833091C30289819A813111F3
:100650001AC03E81332399F0222389F00E94B20808
:10066000182F682F89819A810E948E0869817A816A
:10067000812F0E94B50F2696E3E00C94E12B0E9497
:10068000A008182FF3CF0E94B20869817A81F1CFB8
:10069000FC01262F40815181628173818481958183
:1006A0000E941A030895CF93DF93D82FC92F61E0DA
:1006B0000E9448036D2F7C2F0E940B03DF91CF9186
:1006C0000895CF93DF93D82FC92F60E00E9448038D
:1006D0006D2F7C2F0E941703DF91CF91089581E049
:1006E00008950E946F030895CF93C82F0E9460075A
:1006F0008C2F0E9471032FEF84E39CE021508040F7
:100700009040E1F700C00000CF91089581E00E9481
:1007100074030E94CD24089580E00E9474030E9417
:10072000F12408950F931F93CF93DF938C0161E021
:100730000E944803EC01B8010E9413038823E1F1F1
:10074000B801CE010E94FC218823B1F1B801CE018D
:100750000E94B120882381F1B801CE010E94862039
:10076000882351F1B801CE010E94D91F882321F1BD
:10077000F8018581882381F0CA35FCE7DF0739F16C
:1007800078F4C130ECE7DE07F9F0C330FCE7DF07AF
:10079000C9F0C115DC4771F0C8010E940E030DC0FD
:1007A000CB35ECE7DE07B1F0CC35DC47A9F70E948A
:1007B000E60CF2CF0E94860380E0DF91CF911F917B
:1007C0000F9108950E94F80C0E948C03F5CF0E94AF
:1007D000F00CE2CF0E94F40CDFCF0E94CD230E94E8
:1007E000F91D0E94150481E00E94831E08950E9455
:1007F000190480E00E94831E0E94D223089581E0A4
:1008000008950895CF93DF93D82F0E94FF03C82F38
:10081000882319F08D2F0E9401048C2FDF91CF9136
:10082000089508950E940204089580E00E94120431
:1008300008950E9442220E9412040895CF930E94BC
:100840004222C82F8091BE028C1779F0C093BE025D
:100850000E945D246093BF027093C0028093C10226
:100860009093C2028C2F0E941204CF910895ADE0A4
:10087000B0E0EDE3F4E00C94C62B488759876A8713
:100880007B878C879D8791110E94F10B1F8286E0E8
:10089000FE013896DE01119601900D928A95E1F7DE
:1008A0008D8181110DC029813A814B815C816D81DF
:1008B0007E818F810E94370B2D96E2E00C94E22B13
:1008C000CE0101960E9453038111EDCFF5CFFC01BB
:1008D0008481813021F4808191810E94E40808950F
:1008E000CF93C82F882399F08CEF8C0F813A88F42E
:1008F0008C2F0E94D922882329F08C2F0E947E23DE
:100900000E94890C8C2F0E9467230E94890CCF9132
:10091000089580E28C0F883048F4C77081E001C0F0
:10092000880FCA95EAF70E94D20BEFCF8BE58C0FA8
:10093000833038F42C2F2452330BC9010E946C22CF
:10094000E6CFC85ACB3118F7EC2FF0E0EE0FFF1FBF
:10095000E55DFD4F808191810E949222D8CF88234E
:1009600039F19CEF980F913A28F40E947E230E945F
:10097000890C089590E2980F983050F4877091E0B8
:1009800001C0990F8A95EAF7892F0E94D80BEFCF03
:100990009BE5980F933028F480E090E00E946C2251
:1009A0000895885A8B3120F480E090E00E949222D2
:1009B00008951F93CF93DF93182FEB010E947004CB
:1009C000209739F4812F0E94AF04DF91CF911F91BE
:1009D00008958FE99FE00197F1F700C0000021978B
:1009E000EFCF60E070E0893311F460E570E00E94C1
:1009F000D9040895882321F00E94D20B0E94890C0B
:100A00000895882321F00E94D80B0E94890C089534
:100A1000A0E0B0E0EEE0F5E00C94C02B6C01D62F26
:100A2000C72FFC010581F680F2948FE0F8220E9426
:100A3000C70BE82E8823F9F0E02E0023E1F08C2F7D
:100A4000807F803461F080E28D0F8830A0F18C2FA0
:100A5000807E803221F4D23070F1FF2061F18091EC
:100A6000FF0482FF28C082E00E94B90C0E94C70BDD
:100A700091E0E82EE9268C2F82958F70883009F45A
:100A8000E7C0B0F58430C8F41C2F1F70823008F422
:100A900040C0C07FC03211F01295107FDD2309F4F1
:100AA00067C0D13009F497C0002309F4A3C0FF2028
:100AB00009F47AC041C0E12CDECF843009F4ABC028
:100AC000EE2089F00E94C30B80FD0DC0F601158257
:100AD0000E94BD0B0E94EB07C6010E942B070E94DB
:100AE000BD0B0E94FB07CDB7DEB7E8E00C94DC2B12
:100AF000893009F424C18A5F8F70823008F7D23FB1
:100B000009F02EC18C2F8F71011127C10E94EB07B4
:100B1000CEC0C03110F01295107F002399F0112340
:100B200059F080E28D0F883010F0D11107C0812F6D
:100B30000E94D20B0E94890C8D2F28C0812F0E9409
:100B4000E30BF8CF8D2F0E94AF04112309F4B8CF27
:100B500080E28D0F883010F0D11104C0812F0E94E7
:100B6000D80B03C0812F0E94E90B0E94890CA8CFEB
:100B70008091FF0482FD14C0002359F0112329F055
:100B8000812F0E94D20B0E94890C80E00E94700489
:100B900097CF80E00E94AF04112309F491CFDECFFC
:100BA000002369F0F11004C0812F0E94FA0488CF5D
:100BB000F1E0FF1285CF812F0E94090C81CFF11047
:100BC0007FCF812F0E940105812F0E94150C812F5C
:100BD0000E94F80B75CF002329F025E02F1508F4AB
:100BE0006FCFE2CF84E08F1508F46ACF812F0E9487
:100BF000010566CFFF20D1F3D93349F49FEFE7EE2B
:100C0000F3E09150E040F040E1F700C000008D2F8C
:100C10000E94AF0455CF8C2F8695869583708823CC
:100C200069F0813009F04CCF8D2F9C2F937001110A
:100C300002C080E090E00E94922242CF8D2F9C2F34
:100C40009370011102C080E090E00E946C2238CFC6
:100C50008C2F8370811139C0011129C04D2F42950D
:100C600046954770440F440F2D2F2F7030E0042E0F
:100C700002C0220F331F0A94E2F780E090E0D4FF15
:100C800009C08FE090E002C0880F991F4A95E2F7F3
:100C900080959095C695C695C370822B932BC230D4
:100CA00071F0C33079F0C13039F00E94BB070E9467
:100CB00042220E94120404CF0E94B207F8CF0E9481
:100CC000C407F5CF0E94AF07F2CF002361F1C0FF48
:100CD000EECF4D2F429546954770440F440F2D2F70
:100CE0002F7030E0042E02C0220F331F0A94E2F767
:100CF00080E090E0D4FF09C08FE090E002C0880F50
:100D0000991F4A95E2F780959095C695C695C37050
:100D1000822B932BC23069F0C33071F0C13031F0B7
:100D20000E942608C4CF823010F2D3CF0E941D0843
:100D3000BECF0E942F08BBCF0E94D307B8CFCF7081
:100D4000002339F08C2F0E94EB078D2F0E94FA04AC
:100D5000AECF8D2F0E9401058C2F0E94FB07A7CFDD
:100D6000D33F70F4D03FB9F0D13F89F1002309F4AB
:100D700049C0FF2009F443C08D2F0E94700497CF13
:100D8000D33FB9F0D43FF9F00111F3CFF11047C0D0
:100D90008C2F8F71E2CF002349F024E02F1508F447
:100DA00086CF8C2F8F710E940D0881CF85E0F816B9
:100DB000F6CF002329F08C2F8F710E94DF0777CFA9
:100DC0000E94DA0774CF8091FF0482FD05C08C2F4A
:100DD0008F71002311F29ACE002331F063E08C2F43
:100DE0008F710E949B0C63CF81E00E94B90C91E04F
:100DF0009F1508F05CCF82E00E94B90C58CF8C2F71
:100E00008F7184CEFF2021F2D93349F4EFEFF7EE52
:100E100023E0E150F0402040E1F700C000008D2FBA
:100E20000E94AF0444CF0F931F93CF93DF93EC0145
:100E3000688179818D810E94F1088C010E943808B7
:100E40000E94AE07B801CE010E940805DF91CF9144
:100E50001F910F910895CF93DF93EC018C8188232C
:100E600099F0CE010E949203811111C00E94C70B1C
:100E7000882351F08D81882339F08091FF0482FF0F
:100E800003C082E00E94B90CDF91CF910895CE019A
:100E90000E941307CE010E946103F6CF80E090E02C
:100EA0000E946C2280E090E00E9492220E94F10B4E
:100EB0000E94890C08950E9495230E944E07089570
:100EC0000E94E00B0E945B070895282F92959F7067
:100ED000963091F060F4925F9F70923030F481E030
:100EE000203F79F030F4283E30F080E008959A5F9A
:100EF000F3CF243FD1F7089581E0283EE0F3213F6E
:100F0000F9CF0895FC018481882339F08081918193
:100F10000E94E4080E946507089580E00895A6E015
:100F2000B0E0E5E9F7E00C94C62B2696E2E00C94DD
:100F3000E22BA7E0B0E0EFE9F7E00C94C62B279690
:100F4000E2E00C94E22B08950E94A30708950E940A
:100F5000A4079093EF028093EE02089508950E94F3
:100F6000A70708952091EE023091EF02822B932B78
:100F70000E94A70708952091EE023091EF0282238C
:100F800093230E94A70708952091EE023091EF026B
:100F9000822793270E94A70708950E94A307089518
:100FA0000E94CD0708950E94D0079093ED02809390
:100FB000EC02089580E090E00E94D307089521E0BC
:100FC00030E0A90102C0440F551F8A95E2F7CA011B
:100FD0000E94D307089521E030E002C0220F331FA2
:100FE0008A95E2F78091EC029091ED02822B932B8F
:100FF0000E94D307089521E030E002C0220F331F82
:101000008A95E2F7209530958091EC029091ED025F
:10101000822393230E94D307089521E030E002C089
:10102000220F331F8A95E2F78091EC029091ED0236
:10103000822793270E94D30708952091EC023091D4
:10104000ED02822B932B0E94D30708952091EC028E
:101050003091ED02822393230E94D30708952091BB
:10106000EC023091ED02822793270E94D307089566
:1010700008959B01677091E001C0990F6A95EAF7A6
:1010800063E0369527956A95E1F7220F331F220F0B
:10109000331FFA01E20FF31F40E050E0682F70E0C9
:1010A0008191DF0111979B01042E02C0369527958F
:1010B0000A94E2F7217021952827292328272C93C9
:1010C0004F5F5F4F4430510559F708959C01982FA9
:1010D000977083E0369527958A95E1F7220F331FA5
:1010E000220F331FFB01E20FF31F40E050E080E0CE
:1010F000219130E0092E02C0369527950A94E2F737
:1011000021703327042E01C0220F0A94EAF7822BA4
:101110004F5F5F4F4430510559F70895282F862FB0
:10112000953068F42F3058F4622F70E02FE0929FD2
:10113000600D711D112444EC52E00E94390808959D
:10114000292F953068F48F3058F490E064EC72E009
:101150003FE0239F800D911D11240E946608089591
:1011600080E00895A0E0B0E0E8EBF8E00C94BF2B3D
:101170008C01E090EC02F090ED028091EE029091F3
:10118000EF02E82AF92ACFE0D0E0CC24C394D12C96
:10119000C6010C2E02C0880F991F0A94E2F78E2117
:1011A0009F21892B49F4219798F7B12C8B2DCDB72E
:1011B000DEB7E9E00C94DB2BBC2EB8018C2F0E942B
:1011C000C10F019781F3F2CFCF93DF93D82FC92FAF
:1011D0000E94B2086D2F7C2F0E94C10FDF91CF912A
:1011E00008951F93CF93DF93162FD72F9091C302AB
:1011F000992341F0862F972F0E94E408DF91CF9129
:101200001F910895882381F0862F972F0E94B2089E
:10121000C82F682F812F9D2F0E948E08612F7D2F50
:101220008C2F0E94C10FEACF862F972F0E94A00813
:10123000C82FF4CF0F931F93CF93E091F002C7E034
:101240008091F1028E1304C0CF911F910F910895E8
:101250000E2F10E0CE9FF0011124EE50FD4F2081A3
:101260003181428153816481758186810E94990711
:10127000F8013196E770E4CF20912A0330912B03D7
:1012800040912C0350912D0360912E0370912F03F8
:10129000809130030E949907089580913003803136
:1012A00078F480912F03882359F0E091F002209187
:1012B000F10230912B0340912A0357E02E1301C015
:1012C00008956E2F70E05E9FF0011124DF01AE5093
:1012D000BD4F14968C911497882361F111968C91CF
:1012E0001197831327C08C91841324C015968C9179
:1012F000159781111FC012968D919C91A0912C037E
:10130000B0912D038A1B9B0B883C910598F480912A
:1013100030038F70806180933003E850FD4F8081EF
:101320008F70806180838AE293E00E942B070E9485
:101330001A090895FB013196E770C0CFE091F002E1
:101340009091F10227E0E91302C080E00895AE2FEA
:10135000B0E02E9FF0011124EE50FD4F3181361385
:1013600006C03081381303C03581341304C0FD0139
:101370003196E770E8CF81E008958F929F92AF9207
:10138000BF92DF92EF92FF920F931F93CF93DF9361
:10139000CDB7DEB72D970FB6F894DEBF0FBECDBF29
:1013A0008C0186E0F801DE01189601900D928A9575
:1013B000E1F7F801E080F580A280B38084819AE2B1
:1013C000892E93E0992E90912E0391111BC08823B2
:1013D00009F4FCC0FF2009F43DC1C8010E94820746
:1013E000882309F437C187E0F801D40101900D92F8
:1013F0008A95E1F7C4010E9467040E944D090E948A
:101400003C09E4C0D0902F0320912C0330912D0390
:10141000A501421B530BDD2009F4DBC0483C5105FC
:1014200008F0A6C0882309F4D1C090912B039180C5
:1014300080913003803108F06BC0991228C09091E0
:101440002A039E1124C0F1105DC08F7080618093CB
:1014500030030E943C098AE293E00E942B078091AE
:101460003003F8018683F12C8F2D2D960FB6F8945A
:10147000DEBF0FBECDBFDF91CF911F910F91FF90C7
:10148000EF90DF90BF90AF909F908F900895F110F4
:1014900039C040E0692D8E2D0E949E0940E0692DE3
:1014A0008E2D0E949E09F82E8111DDCF88859985A9
:1014B0000E94E408292F22952F70903450F49F70D9
:1014C000223080F0992399F0F8019681903178F4D8
:1014D000CBCF2A5F2F70223078F0C8010E942B07F3
:1014E000FD2CC2CF992319F0882309F4BDCF805E6B
:1014F000883008F4B9CFF1CF803F08F4B5CF815FD1
:101500008230F7CF80913003816080933003ABCF7E
:10151000991207C090912A039E1103C0FF2009F47D
:1015200079C0C8010E948207882309F493C0FF2074
:1015300009F490C080913003803288F020912A0312
:1015400030912B033A832983BC82AB8290912E0386
:101550009D831E828F83CE0101960E942B0787E018
:10156000F801AAE2B3E001900D928A95E1F745CF28
:10157000909130039031A0F4488559856A857B8528
:101580008C859D850E948F078AE293E00E942B073D
:1015900087E0F40111928A95E9F70E943C0963CF34
:1015A0008823A1F020912B0381812813BACF809149
:1015B0002A038E11B6CFF110B4CF9683C8010E94D2
:1015C0002B0787E0F40111928A95E9F7FF24F39441
:1015D0004BCF483C510508F041C08823B9F3FF20A8
:1015E000C9F190912B03818198132AC080912A031D
:1015F0008E1126C08091300380FD19C08031B8F073
:101600008683807F803F39F08681982F907F905F1E
:101610008F70892B8683C8010E942B0787E0F80111
:10162000AAE2B3E001900D928A95E1F7E8CE87E057
:10163000F801AAE2B3E001900D928A95E1F7C6CFD6
:10164000C8010E94820781118ACF80913003816096
:1016500080933003C8010E942B07B8CF4885598575
:101660006A857B858C859D850E948F0791CFAEE032
:10167000B0E0EDE3FBE00C94C52B288739874A875F
:101680005B876C877D878E87CE0108960E94BD0997
:101690008823B1F06C85662341F0288539854A8519
:1016A0005B857D858E850E94990717E08091F00209
:1016B0009091F10289133EC02E96E3E00C94E12B49
:1016C00087E0FE013896DE01119601900D928A9511
:1016D000E1F72091F1024091F0028C85882329F3F3
:1016E00030E0C90101968770992750E0841795076B
:1016F00099F097E0929FD001939FB00D1124AE50C6
:10170000BD4FFE01319601900D929A95E1F78093BD
:10171000F1020E941A09C9CF0E9460071092F102DB
:101720001092F00287E0EAE2F3E0DF011D928A9571
:10173000E9F7BBCF189FC00111248E509D4F0E9426
:10174000BD09882309F4B8CFE091F0021E9FF00193
:101750001124EE50FD4F20813181428153816481FB
:10176000758186810E9499078091F00290E0019630
:10177000877099278093F00299CF809159038695BD
:101780008695869508958091590387700895909164
:101790005903977081E0911101C080E00895809114
:1017A0008503089590918503982B90938503089560
:1017B000982F9095809185038923809385030895C0
:1017C00010928503089590918403982B909384033D
:1017D0000895982F909580918403892380938403A2
:1017E000089510928403089508950E94F40B0895BB
:1017F00090915A03292F2823222331F080958923A1
:1018000080935A030E94F50B089508950E94050CD9
:10181000089590915B03292F2823281729F0982BEE
:1018200090935B030E94060C089590915B03292F0F
:101830002823222331F08095892380935B030E9423
:10184000060C089580915B03882329F010925B03B6
:1018500080E00E94060C0895CF93DF93C09185032A
:1018600080918403C82BD0915B03DD2331F00E946B
:10187000B82281110E94220CCD2B8C2FDF91CF91A9
:101880000895CF93DF93C0911302D09114020E9468
:101890002C0C8883C0911302D091140248E050E0D0
:1018A00061E573E0CE010E94ED2B892B59F088E0B1
:1018B000FE01A1E5B3E001900D928A95E1F7CE011A
:1018C0000E945222DF91CF910895CF93DF93C09170
:1018D0001102D09112020E942C0C8983C091110236
:1018E000D091120240E250E061E373E0CE010E9429
:1018F000ED2B892B59F080E2FE01A1E3B3E00190CA
:101900000D928A95E1F7CE010E945D22DF91CF9181
:10191000089580912702882339F08091FE0487FF83
:1019200003C00E94650C08950E94410C089508951B
:101930000E94970C08959091FF0492FF11C098E0C7
:10194000899F90011124622B609359030E94EB0739
:10195000809159038695869586950E94980C0895E6
:101960000E94EB0708951092590380E00E94980CA2
:101970000895909159038095892380935903282FC6
:10198000277021110DC0891759F09091FF0492FF23
:1019900007C08695869586950E94FB070E94B30C2A
:1019A00008959091FF0492FB222720F9281769F0EF
:1019B00080FB92F99093FF048091FE049091FF04C4
:1019C0000E94190D82E00E94B90C08958091FF04D5
:1019D00082FB882780F991E089270E94D10C089525
:1019E00081E00E94D10C089580E00E94D10C0895FE
:1019F0006FEF7FEF80E090E00E94612C089580E01F
:101A000090E00E942D2C9C0181E0253E3E4F09F084
:101A100080E0089582E090E00E94252C089583E004
:101A200090E00E94252C089584E090E00E942D2CE7
:101A30000895BC0184E090E00E94612C0895AB0100
:101A4000BC018FE090E00E94552C0895AB01BC01D1
:101A500083E190E00E94552C089560E070E0CB0196
:101A60000E94260D089560E070E0CB010E941F0DDA
:101A70000E942D0D0895A8E0B0E0E1E4FDE00C9493
:101A8000C62B65EE7EEF80E090E00E94612C60E066
:101A900082E090E00E94432C81E090E09093EF027E
:101AA0008093EE0261E083E090E00E94432C60E0CE
:101AB00074E184E090E00E94612C60E086E090E0B8
:101AC0000E94432C60E087E090E00E94432C40E0BD
:101AD00050E0BA0188E090E00E94552C60E083E27B
:101AE00090E00E94432C60E08CE090E00E94432C48
:101AF00060E08DE090E00E94432C19821A821B82E4
:101B00001C821D821E821F82188648E050E067E119
:101B100070E0CE0101960E94332C40E050E0BA0103
:101B20008FE190E00E94552C0E94330D2896E2E050
:101B30000C94E22B0E943B0D0895682F8EE090E0FC
:101B40000E94432C0895A6E0B0E0E9EAFDE00C9481
:101B5000C42B0E9451248C018091860390918703AD
:101B60008017910779F019821A820E945124BC01D2
:101B700049815A8180E090E00E94370410938703E6
:101B8000009386032696E4E00C94E02B0E945D24EB
:101B900060939603709397038093980390939903AF
:101BA00060939203709393038093940390939503AF
:101BB0000895089508950E94D90D089508950E94EA
:101BC000DE0D089589EB90E10E9423120E94DA0D48
:101BD0000E94DB0D089581E008950E94EB0D0895A9
:101BE0000E94EB0D0895089508950E94F30D0E9440
:101BF000F40D08950E94FF0C811102C00E949A0DFD
:101C00000E940A0D80939A030E94140D9093FF0482
:101C10008093FE040E9483200E940F0D90E00E949A
:101C2000AF078091EC029091ED020E94D0070895D9
:101C30000E9448240E9476110E94FA0D0E9411040D
:101C40000E946A1E0E94DF0D0895A6E0B0E0EBE25C
:101C5000FEE00C94BA2B0E94ED0D81110AC00E9487
:101C6000A30D0E94F91D0E941E042696EEE00C941E
:101C7000D62B0E948C1128E8822E23E0922E64013C
:101C800010E0F601E190F1906F01812F0E94C310E6
:101C90001F5F153009F44BC0E816F90691F38091E7
:101CA0009A0381FD0E94CC100E94F00D782E10E066
:101CB000812F0E94C3107C01F401A190B1904F01CB
:101CC0008A159B0571F1A826B92600E0CC24C3949F
:101CD000D12CC5018C219D21892BD1F066246394E0
:101CE000C7018C219D21892B09F4612C772059F0A3
:101CF00009831A830E945124BC0149815A8181E0E1
:101D0000962D0E943704462D602F812F0E94641665
:101D10000F5FCC0CDD1C0F30E1F6F4013297F1823D
:101D2000E0821F5F153021F60E94C60D9ACFE8169B
:101D3000F90609F0B4CF93CF1F93CF93DF930E949E
:101D4000C60FEC01811522E5920708F053C08115FA
:101D500040E5940708F0DDC0803E9105F8F48D3C25
:101D6000910508F0AEC0883A910580F4853A910556
:101D700008F099C08130910521F00497813A9105CE
:101D800050F4CE01DF91CF911F910895885A9109A7
:101D90004B9708F48BC0C0E0D0E0F3CF811550E43E
:101DA0009507F8F4C11580E2D80708F0CBC0C83E0B
:101DB000D10538F3CE019A9581159F4160F78D2F9B
:101DC0000E946A10182FCE0199270E94C60F212F5A
:101DD00030E0322F2227E901CC27DF71C82BD92B25
:101DE000D0CF99270E94C60FCC27DF70C82BD92BE4
:101DF000D06AC7CF803842E59407C8F5803652E5EF
:101E0000950708F067C0C03482E5D807B0F08C2F82
:101E100086958695877020E2829FC0011124C37049
:101E200021E030E0A90102C0440F551FCA95E2F736
:101E3000EA01C82BD92BDC68A4CFC03252E5D50704
:101E400008F041C08C2F8695869520E2829FC001C4
:101E50001124C37021E030E0A90102C0440F551FD6
:101E6000CA95E2F7EA01C82BD92BDD688ACF803CFE
:101E700052E5950760F48F71C03AD24508F03FC033
:101E800090E0982F8827EC01C46FD06A7ACF805CED
:101E90009245809708F07FCFDC2FCC27CC27DF71CD
:101EA000C06FD06A6ECFA497D0646BCFC85AD0E011
:101EB000CC0FDD1FCF59DD4F0990D881C02DD464E0
:101EC00060CFD0655ECFCF71D0E0DC2FCC27C16F63
:101ED000D06A57CF86958695877020E2829FC00191
:101EE0001124C37021E030E0A90102C0440F551F46
:101EF000CA95E2F7EA01C82BD92BDA6842CF0E94D3
:101F00006A10C82FD0E0DC2FCC27CC27DF71D0623D
:101F100038CF8F710E946A1065E0D695C7956A9593
:101F2000E1F7CF70D0E0DC2FCC27282F30E084FF02
:101F300005C054E0220F331F5A95E1F7C22BD32B73
:101F4000D0691FCF8D2F8F710E946A10182FCE017C
:101F500099270E94C60F212F30E0322F22272227F7
:101F60003F71282B392BE901D2CF462F672F7530CF
:101F700028F44F3018F40E940603089580E090E0A2
:101F800008950E94B50F0E949C0E0895803E910511
:101F9000D1F1C8F48133910509F47FC048F4893246
:101FA000910509F46FC08A32910509F47DC0089546
:101FB00089339105E1F082389105C9F085339105A7
:101FC00009F45BC00895843E9105D1F148F4823E46
:101FD000910531F1833E910541F181EE90E0089544
:101FE000863E9105C1F1873E9105E1F1089520916A
:101FF000FE042370211165C02091FF0423FF14C04B
:1020000089E290E008952091FE0420FD43C03091C4
:10201000FF0430FF09C024FF4EC080E090E0089527
:102020002091FE0422FDF7CF08952091FE0422FDA9
:1020300045C03091FF0430FD44C024FFF5CFEDCF03
:102040002091FF0421FFF0CF8091FE0484FDE5CFB5
:1020500087EE90E008952091FE0423FFE5CF24FD54
:10206000DCCFF6CF2091FE0423FD2EC03091FF047B
:1020700031FFE3CF84EE90E008952091FE0425FF28
:10208000D3CFBECF2091FE0425FD21C02091FF04B7
:1020900023FFCACF89E390E008952091FE0426FF34
:1020A000C3CF8AE290E008952091FE0426FFBCCFC2
:1020B00081E390E0089583EE90E0089582EE90E051
:1020C000089580EE90E0089586EE90E0089585E30F
:1020D00090E0AACF9091FE0492FF10C041E0282F1B
:1020E0002471243009F040E031E0282F2871283095
:1020F00009F030E0431711F02CE0822793FF10C065
:1021000041E0282F2471243109F040E031E0282FEC
:102110002871283109F030E0431711F02CE08227B4
:102120003091FF0430FF10C051E0282F2171213081
:1021300009F050E041E0282F2871283009F040E0F4
:10214000541711F029E0822731FF10C041E0282FF9
:102150002171213109F040E031E0282F2871283128
:1021600009F030E0431711F029E0822794FD877EC3
:10217000089580E0089508950E94BB100895089581
:102180000E94BF100895E82FF0E0EE0FFF1FE65FFA
:10219000FA4F808191810895089580EA8A95F1F738
:1021A000089500C008950E94CD100895F894E82F76
:1021B000E295EF70F0E041A18F7021E030E0B901CD
:1021C00002C0660F771F8A95E2F7CB01962F909594
:1021D000942391A392A1892B82A3789408950F93BD
:1021E0001F93CF93DF93C6EAD2E089918F3F11F01E
:1021F0000E94D61082E0CB3AD807B9F7C7E9D2E0FF
:1022000006EA12E089918F3F11F00E94D6100C1758
:102210001D07C1F7DF91CF911F910F910895A0E0A5
:10222000B0E0E5E1F1E10C94BF2BEC01B62E062FF6
:1022300010E0C8018A559D4F7C01FC0180818F3FD1
:1022400009F44FC0F894E82FE295EF70F0E091A107
:102250008F7021E030E001C0220F8A95EAF7892FC4
:10226000822B81A382A12095282322A378940E9407
:10227000D110E7E9F2E041E050E0C12CD12C2191EE
:102280002F3F89F0A22FA295AF70A05EB0E08C9195
:1022900090E02F7002C0959587952A95E2F781709E
:1022A0009A01882311F020E030E0C22AD32A440F9B
:1022B000551F82E0E63AF80711F7F70180818F3F5A
:1022C00011F00E94D61061E0C114D10409F460E05D
:1022D0008B2D0E94D310000F111FC00FD11FD98268
:1022E000C882CDB7DEB7E9E00C94DB2B0E94EF107B
:1022F0008AE0EAE0F5E0DF01982F1D929A95E9F770
:10230000E0E0F5E0DF011D928A95E9F785E00E94A3
:10231000C9110E94BC100895AAE0B0E0E2E9F1E121
:102320000C94C32BFE0131968AE0DF011D928A9541
:10233000E9F710E0FE2E0F2F612F8F2D902F0E94B6
:102340000F111F5F1530C1F74AE050E06F2D702F5D
:1023500080E095E00E94ED2B21E0892B81F420E0C4
:1023600045E06AE075E080E095E00E94CA11182F10
:102370000E94C010812F2A96E5E00C94DF2B8AE0A2
:10238000EF2DF02FA0E0B5E001900D928A95E1F7D6
:10239000E7CF0895A0E0B0E0E0EDF1E10C94C02BB0
:1023A000D82EE92EF62ED72F042FC22F222379F014
:1023B00081E080939D030E94512490939C0380931D
:1023C0009B0380E0CDB7DEB7E8E00C94DC2BC09037
:1023D0009D03CC20B1F380919B0390919C030E94BC
:1023E0007A24059770F310E0000F111FA8016D2DDE
:1023F0007E2D8F2D9D2F0E94ED2B892B41F0A80162
:102400006D2D7E2D8F2D9D2F0E94FA2BCC2D10929D
:102410009D038C2FD7CF0E94250E08950E94EA239A
:102420000E943F260E94E20D0E9459260E94180E2B
:102430000E9466260E946B260E940B120E948E2626
:102440000E94F50DF7CF9093BD028093BC020895D2
:10245000A0E0B0E0EEE2F2E10C94BE2BE82F7111A7
:102460000DC0442321F0F0E0EC5FFC4F8491682F15
:10247000782FCDB7DEB7EAE00C94DA2B262F30E0C8
:10248000C72FD0E0F0E0442321F0EC5FFC4FE49153
:10249000F0E086E0829F7001839FF00C11240FEF23
:1024A00010E0C701B8010E94882BAB01220F331F37
:1024B00065E5649FC001659F900D1124281B390BB1
:1024C000C22ECC0CC20EC8018C1B9D0B8E9F90019E
:1024D0008F9F300D9E9F300D1124832FCC9EB00115
:1024E000CD9E700D1124672F77275801A61AB70AC1
:1024F000AE9ED001AF9EB00DBE9EB00D11247B2FBD
:102500005801AC18B1086501CC9E5001CD9EB00CAD
:10251000DC9EB00C1124AB2CBB240A191B090E9FA6
:10252000E0010F9FD00D1E9FD00D11246E2F433060
:102530005105C9F09CEFE91693E0F90650F44130DB
:10254000510509F496CF4230510589F07E2F6D2F49
:1025500090CF4430510571F046305105B9F3632FE7
:102560008B2F7E2F86CF6B2F732F8E2F82CF732FC3
:102570008D2F7FCF7D2F632FF8CF41E00E9428124F
:1025800008959C0180E090E0269F812D369F800D6C
:10259000911D112408959C018230910508F408953D
:1025A0009FEF213E8EE1380740F4C90145E0969542
:1025B00087954A95E1F798E0980F61E0E62FE90FDB
:1025C000FF27FF1FAF0155954795842F449FF001CA
:1025D000459FF00DF00D11242E173F0738F49FEFA3
:1025E000940F961758F78FEF860F08954F3FE9F332
:1025F00061E0640FF6CF40911B0250911C0225E070
:1026000038E0429FC001439F900D529F900D1124CE
:10261000875E994C90931C0280931B02890F08954A
:10262000982FE82F96FDE0958E2F8F7096FD8F5F87
:10263000E695E695E695E670F0E0E555FD4F2181DB
:10264000289F202D812D112422952F708295807F27
:10265000282B8081820F97FD8195805808951F93C4
:10266000182F822FE42FF0E0EE0FFF1FE55BFE4FE7
:10267000408124EE429F412D1124E12FF0E050E0F3
:102680009A01245E3F4F281B310937FF03C0319563
:102690002195310983E0220F331F8A95E1F7CF019D
:1026A000821B930B9C0197FF02C020E030E0219F2A
:1026B000212D1124822F1F910895622F0895E42F58
:1026C000F0E0EE0FFF1FE55BFE4F6081621B089597
:1026D000E42FF0E0EE0FFF1FE45BFE4F6081621B12
:1026E0000895322F50E0FA01EE0FFF1FE45BFE4F1A
:1026F0009081905297FD9195440F551FFA01E55B2B
:10270000FE4F2081231B330B290F311D97FD3A9576
:10271000620F0895EF920F931F9310E09801220F1C
:10272000331F200F311F359527956E2D620F1F9196
:102730000F91EF9008950F93CF93DF93D72FC82F6A
:10274000B90147FD419528E330E0241B310947FDDD
:102750003395229FA001239F500D500D1124669F99
:10276000C001679F900D900D1124840F951F0E944A
:10277000CB12982F990F692F680F600F7D2F8C2F28
:10278000DF91CF910F9108950F931F93522F10E077
:10279000F801EE0FFF1FE45BFE4FA081A052BB0BC0
:1027A0009D015203F001539FF00D1124000F111FE2
:1027B000D801A55BBE4F2C912057330B4203D001AB
:1027C000439FB00D11249F012A0F3B1F37FF02C00A
:1027D00021583F4F220F232F221F330B620F1F91CF
:1027E0000F9108950F931F93522F10E0F801EE0FF1
:1027F000FF1FE45BFE4FA081A052BB0B9D01520363
:10280000F001539FF00D1124000F111FD801A55B9B
:10281000BE4F2C912057330B4203D001439FB00D84
:1028200011249F012A0F3B1F37FF02C0215C3F4F3D
:1028300096E0359527959A95E1F7620F1F910F91D4
:1028400008950F931F93A42F10E0F801EE0FFF1FC0
:10285000E55BFE4F9081905797FD9195000F111FFA
:10286000F801E45BFE4F00810052110B2003A00130
:10287000219F500D112428E330E0291B310997FDD9
:1028800033951A2F1203F001139FF00D11244E0FF0
:102890005F1F9A01220F331F240F351F37FF02C01D
:1028A00021583F4F220F232F221F330B620F1F91FE
:1028B0000F9108950F931F93CF93DF93D62F072F78
:1028C000182FC42F822F0E941013982FEC2FF0E0A6
:1028D000EE0FFF1FE55BFE4F80818058980F97FD3C
:1028E0009195990F292F3CE0239F212D1124622FD0
:1028F0006D0F702F812FDF91CF911F910F91089550
:10290000E42FF0E0EE0FFF1FE55BFE4F9081921B7E
:1029100097FD9195292F38E1239F212D1124620FD6
:102920000895A4E0B0E0E7E9F4E10C94C62B20910F
:10293000180530E1230F08F42FEF60E1822F90E0BB
:102940000E94C112BC0188EB9BE00E94882BCB0146
:10295000A0E0B0E0BC01CD012496E2E00C94E22BB3
:1029600090919304982B909393040895FC019B01FC
:10297000009719F4832F80780895AC0197FF04C065
:1029800044275527481B590BB901640F751F37FDA4
:102990000FC0C901841B950BA5E0880F991FAA954C
:1029A000E1F70E949C2B80E2861BF7FD819508953C
:1029B000CB0165E0880F991F6A95E1F7BA01621BA8
:1029C000730B0E949C2B80E6EFCFFF920F931F9317
:1029D000CF93DF93D62FC72F182FBA01C901F12E3D
:1029E000F01A0E94B614982F990F990F082F091BFF
:1029F0000F0D019F012D11246D2F7C2F802FCDB73E
:102A0000DEB7E5E00C94DF2BEF920F931F93CF938B
:102A1000DF93D62FC72F182FBA01C9010E19010F46
:102A20000E94B614081B019F012D11246D2F7C2FCD
:102A3000802FDF91CF911F910F91EF9008950F9309
:102A4000CF93DF93D72FC82FBA01C9010E94B614C4
:102A5000682F600F7D2F8C2FDF91CF910F910895FC
:102A6000EF920F93CF93DF93D72FC82FBA01C901ED
:102A70000E190E94B614602F681B7D2F8C2FDF91DA
:102A8000CF910F91EF90089548E050E067E170E03A
:102A900084E195E00E94332C1092930408950E94E3
:102AA000BD120895A0E0B0E0E8E5F5E10C94B92B83
:102AB000882E762E062F10E02FE0829FC001112471
:102AC0009C0120503F4FF901E00FF11FC081CF3F23
:102AD000B1F1A12CB12C612CD0E09E01220F331F4B
:102AE000A901455B5E4F6A01E901C45BDE4F875671
:102AF0009B4F080F191F7501912C88E2582EF70182
:102B0000E050FF4F20812F3F59F086101DC07910F3
:102B10001BC0F801208130E2230F08F42FEF20833F
:102B200093947FEFE71AF70A8FE09812E8CF639447
:102B3000EFE0AE0EB11CFBE4AF16B104E1F6CDB789
:102B4000DEB7EFE00C94D52B30E0F6014081F901BF
:102B5000EE0FFF1FE55BFE4F8081481B550B888100
:102B6000220F331FF901E45BFE4F9081682F691B30
:102B7000770B9B01449FB001459F700D700D112490
:102B8000229FC001239F900D900D1124860F971F47
:102B90000E94CB12382F893218F6252D231B08F4FA
:102BA00020E0F701E756FB4F213108F020E13081AA
:102BB000320F08F43FEF3083B3CFE4E1F5E081E278
:102BC00080838091280290912902A0912A0281831A
:102BD0009283A3838FE784838FEF85830E944415BC
:102BE0000895E091B902F091BA0209950895E09133
:102BF000B502F091B602099508951F93CF93DF9324
:102C0000EC01FC01E153FE4F808168236623B1F0A3
:102C10000E94FB12182F0E94FB1220E8829FC00125
:102C200011247FE7790F612F809117050E944F15BE
:102C3000462F672F282FCE010E94F715DF91CF91E5
:102C40001F910895A0E0B0E0E8E2F6E10C94C12BFA
:102C5000EC01FC01E153FE4F80816823662349F1BA
:102C6000D09016050091170510911505E12EF12C55
:102C70000E94FB12482FC7018C549F4F68E671E0F9
:102C80000E949C2B8E199F0997FD03969595879519
:102C9000959587954370612F489F600D11247D2D78
:102CA000802F0E944F15462F672F282FCE010E949C
:102CB000F715CDB7DEB7E7E00C94DD2BE091B70256
:102CC000F091B802099508951F93CF93DF93C82F11
:102CD000D62F142F0E94EB0D882359F0112349F0B1
:102CE000809114058C7F8C3621F46D2F8C2F0E94DF
:102CF0005215DF91CF911F91089581E008959EE0D4
:102D0000899F802D1124980F933408F092E4089540
:102D1000A0E0B0E0EEE8F6E10C94B82B3C012B010A
:102D2000FC0180810E947F16C82F192F6091180521
:102D3000669580911C0590911D050E94C112F82E88
:102D4000D0E0CE01880F991F9C01255B3E4F6901A1
:102D5000C11748F081E0123408F080E0CDB7DEB74B
:102D6000E0E10C94D42BFE01E153FE4F8081F3018E
:102D700091818923882379F1F6018081282F2057BA
:102D8000330B59018181E82FE052FF0B4F01AA9CC0
:102D90009001AB9C300D300D1124EE9FC001EF9FD0
:102DA000900D900D1124820F931F0E94CB12082FBB
:102DB000609115057091160580911705EF2C94010F
:102DC000A501F20109950E944F15462F672F282F64
:102DD000CE010E94F715F2E0CF0ED11C2196B8CF9C
:102DE00064E075E10E94881608956AE873E10E9424
:102DF0008816089560E375E10E94881608958F9201
:102E00009F92BF92CF92DF92EF92FF920F931F9308
:102E1000CF93DF936C014B01FC0180810E947F16F0
:102E2000C82F192F60911805669580911C05909107
:102E30001D050E94C112B82ED0E0CE01880F991F47
:102E40009C01255B3E4F7901C11780F081E012346F
:102E500008F080E0DF91CF911F910F91FF90EF90EC
:102E6000DF90CF90BF909F908F900895FE01E15327
:102E7000FE4F8081F601918189238823C1F0F701FB
:102E800021812052330B40814057550B609115052D
:102E900070911605809117050B2DF40109950E947C
:102EA0004F15462F672F282FCE010E94F715F2E00D
:102EB000EF0EF11C2196C8CF65EE74E10E94FF165B
:102EC00008956BE973E10E94FF1608956FE175E1C3
:102ED0000E94FF160895A0E0B0E0E1E7F7E10C944E
:102EE000C02B7C016B01FC0180810E947F16C82FE2
:102EF000192F609118056695669521E0620F08F418
:102F00006FEF80911C0590911D050E94C112082F42
:102F1000D0E0C11748F081E0123408F080E0CDB76E
:102F2000DEB7E8E00C94DC2BFE01E153FE4F80811C
:102F3000F70191818923882391F0609115057091A3
:102F4000160580911705202F4C2FF60109950E9438
:102F50004F15462F672F282FCE010E94F715219677
:102F6000D8CF6FE273E10E946B1708956DE573E1AE
:102F70000E946B1708956FE573E10E946B17089527
:102F800068E673E10E946B17089561E773E10E94A0
:102F90006B1708956AE574E10E946B17089560E865
:102FA00074E10E946B170895A4E0B0E0EAEDF7E148
:102FB0000C94BE2B6C015B01FC0180810E947F168A
:102FC0008B83F92E609118056695669580911C0596
:102FD00090911D050E94C112182F80E4810F0E945C
:102FE000101380588983812F0E94101380588A8380
:102FF0009B81892F90E09C838B839B819F1548F058
:1030000081E0E1E4EF1508F480E02496EAE00C9416
:10301000DA2BEB81FC81E153FE4F8081F601918137
:1030200089238823A9F06091150570911605809178
:103030001705E12E0B812A814981F50109950E942E
:103040004F15462F672F282F8B819C810E94F715E3
:103050008B819C810196CFCF64EC73E10E94D417E1
:10306000089562EF73E10E94D417089561E274E15C
:103070000E94D4170895A0E0B0E0E1E4F8E10C94D8
:10308000C02B7C01FC0180810E947F16C82F192F64
:103090006091150570911605809117050E944F15D6
:1030A000062FD72EC82ED0E0C11748F081E0123489
:1030B00008F080E0CDB7DEB7E8E00C94DC2BFE0131
:1030C000E153FE4F8081F70191818923882331F0FC
:1030D0002C2D402F6D2DCE010E94F7152196E4CFA7
:1030E000A0E0B0E0E6E7F8E10C94BD2B7C01FC0128
:1030F00080810E947F16C82F192FD0911505A090AE
:103100001605B09017056D2F7A2D8B2D0E944F1547
:10311000062FD72EC82E809118056D2F680F7A2D97
:103120008B2D0E944F15B62EA72E982ED0E0C117DA
:1031300048F081E0123408F080E0CDB7DEB7EBE074
:103140000C94D92BFE01E153FE4F9081F701818150
:103150008923882359F0292D4B2D6A2D90FD03C01A
:103160002C2D402F6D2DCE010E94F7152196DFCF1B
:10317000A0E0B0E0EEEBF8E10C94BF2B6C01FC0199
:1031800080810E947F16F92EE0901605B0901705F9
:103190002091180500E4029F012D1124C82FD0E0D2
:1031A00010E0CF1550F081E091E49F1508F480E025
:1031B000CDB7DEB7E9E00C94DB2BFE01E153FE4F07
:1031C0008081F601918189238823E9F0FE01EE0FC9
:1031D000FF1FE55BFE4F2081209FC001219F900DC6
:1031E000112425E0959587952A95E1F760911505BD
:1031F000680F7E2D8B2D0E944F15462F672F282F8D
:10320000CE010E94F7152196CCCFA0E0B0E0EBE014
:10321000F9E10C94C02B7C01FC0180810E947F1697
:10322000C82F192F00911505D0911605D0901705BC
:103230006091180566956695669580911C0590913C
:103240001D050E94C1120E941013805887FD8195B0
:10325000880F282F3D2D239F212D1124822F602F91
:103260007D2F0E944F15062FD72EC82ED0E0C117F4
:1032700048F081E0123408F080E0CDB7DEB7E8E036
:103280000C94DC2BFE01E153FE4F8081F70191810C
:103290008923882331F02C2D402F6D2DCE010E94E3
:1032A000F7152196E4CFCF92DF92FF920F931F93F1
:1032B000CF93DF938C01FC0180810E947F16F92E51
:1032C000F801928191112DC06091180520E1620FE3
:1032D00008F46FEF80911C0590911D050E94C112AA
:1032E0006AE070E00E94882B892B71F40E94FB1227
:1032F000F2E48F9F90011124F8016181832F932FB5
:10330000990F990B0E94221681E0F1E4FF1508F451
:1033100080E0DF91CF911F910F91FF90DF90CF90D0
:103320000895C82FD0E0CF2CD12CCC15DD0564F743
:10333000F8016181CE010E9422162196F6CFCF922C
:10334000DF92FF920F931F93CF93DF938C01FC01C9
:1033500080810E947F16F92EF801928191112DC073
:103360006091180520E1620F08F46FEF80911C0551
:1033700090911D050E94C11265E070E00E94882BAB
:10338000892B71F40E94FB12F2E48F9F90011124AB
:10339000F8016181832F932F990F990B0E94FD15DE
:1033A00081E0F1E4FF1508F480E0DF91CF911F91F7
:1033B0000F91FF90DF90CF900895C82FD0E0CF2CD1
:1033C000D12CCC15DD0564F7F8016181CE010E9496
:1033D000FD152196F6CFA0E0B0E0E1EFF9E10C9405
:1033E000C02B8C01FC0180810E947F16C82FF92E12
:1033F000D0901605E0901705D0911505609118053D
:1034000066956695669580911C0590911D050E94B4
:10341000C1120E94101320E8280F27FD2195220FCA
:103420003CE0239F212D11246D2F620F7D2D8E2DC9
:103430000E94BD12E62ED72EC82ED0E0CF1550F038
:1034400081E091E49F1508F480E0CDB7DEB7E8E0B5
:103450000C94DC2BFE01E153FE4F8081F801918139
:103460008923882331F02C2D4E2D6D2DCE010E9405
:10347000F7152196E3CFA0E0B0E0E1E4FAE10C9487
:10348000B82BEC0188810E947F16582E092F8A8163
:10349000882361F040E060E080E00E945E16E9E988
:1034A000F4E08BE4DF011D928A95E9F78881882397
:1034B00099F1C12CD12C612C9AEA492E76018FE02A
:1034C000782EF701E050FF4F5F01E081E51558F0DD
:1034D000E01748F4F0E0E153FE4F808199818923A1
:1034E000811133C063947A94BFEFEB1AFB0A711019
:1034F000E8CFECE3CE16D10431F0FFE0CF0ED11CC3
:103500002DE02615D8F681E0023408F080E0CDB732
:10351000DEB7E0E10C94D42B8091E5049091E604B1
:103520000E947A249C0181E02931310508F480E071
:103530008093E4042931310508F4BBCF0E94512463
:103540009093E6048093E504B4CFC70187569B4F60
:103550004C01DC011C91612F25E5621B08F460E041
:10356000842D861B682F70911605242D210F08F4D9
:103570002FEF30911705822F880F820F8E5F282F33
:10358000239F212D1124822F0E944F15462F672F34
:10359000282FD5018C9190E00E94F7158091E404CA
:1035A000882309F49FCF21E0121B08F410E0D40116
:1035B0001C9398CFA8E0B0E0E0EEFAE10C94B62BB3
:1035C000482E80911902841126C020911405237081
:1035D00030E040911A0250E081E02417350709F4E9
:1035E00080E08170809318028091190590911702F4
:1035F000981739F08093170240E060E080E00E9465
:103600005E162BE1241508F483C1E42DF0E0E759A0
:10361000F34D0C94B02B81E0E4CF80911802882305
:1036200009F4D2C240E060E080E00E945E16809122
:1036300016028F5F8093160282E0809315028091BC
:103640001802882309F4C5C2E1C186E192E00E9414
:103650003B18909116029F5F909316028111D6C17C
:1036600082E080931502809118028111CFC144201D
:10367000E9CF86E192E00E947018EBCF86E192E0FC
:103680000E94B818E6CF86E192E00E940519E1CFCA
:1036900086E192E00E94B117DCCF86E192E00E94C1
:1036A0005C17D7CF86E192E00E94F016D2CF86E178
:1036B00092E00E94B617CDCF86E192E00E94BB1740
:1036C000C8CF86E192E00E94C017C3CF86E192E0A6
:1036D0000E94C517BECF86E192E00E94F516B9CFD1
:1036E00086E192E00E946117B4CF86E192E00E94E9
:1036F0006617AFCF86E192E00E94FA16AACF86E164
:1037000092E00E942C18A5CF86E192E00E94311829
:10371000A0CF86E192E00E9436189BCF86E192E02E
:103720000E94531996CF86E192E00E949F1991CF93
:1037300086E192E00E94EB198CCF86E192E00E9434
:10374000CA1787CF86E192E00E94CF1782CF80917F
:1037500016020E947F16092F40911C0550911D05ED
:1037600060911E0570911F0580918F0490919004C7
:10377000A0919104B091920484179507A607B7070A
:1037800008F049C00E94FB1292E4899FA001112415
:10379000E52FFF27E7FDFA95FA83E983E153FE4F12
:1037A00080819091170289238823A9F10E94FB123E
:1037B00081FF37C010E070E080E0612F0E944F155C
:1037C000462F672F282F89819A810E94F715209113
:1037D000180530E1230F08F42FEF60E1822F90E00D
:1037E0000E94C112BC0184EF91E00E94882B80915D
:1037F0001C0590911D05A0911E05B0911F05860F17
:10380000971FA11DB11D80938F0490939004A093E6
:103810009104B093920481E0023408F41ACF80E05E
:1038200018CF0E94FB12182F0E94FB12F0E88F9F06
:10383000C00111247FE7790F80911705BECF8091D9
:10384000180200918B0410918C0420918D0430910A
:103850008E0440911C0550911D0560911E057091CC
:103860001F05401751076207730708F451C0811103
:1038700058C0809116020E947F16F92E282F30E042
:103880003A8329838901000F111F020F131F0B5365
:103890001C4F39813F1508F482C041E44F1508F0F0
:1038A000B0C08F2D90E0AC01440F551F480F591F39
:1038B0004350510968EC73E085EC93E00E94032CBF
:1038C0000E94FB1281FF86C0109288041092890426
:1038D00010928A040E94911469837A838B839C835B
:1038E00080911C0590911D05A0911E05B0911F05AA
:1038F00029813A814B815C81820F931FA41FB51FE0
:1039000080938B0490938C04A0938D04B0938E04C9
:10391000809116028F5F8093160282E080931502D9
:1039200075C040E060E080E00E945E1605EC13E0A8
:103930001A8219820E94FB1281FF10C0F8011082C6
:103940001182128229813A812F5F3F4F3A83298366
:103950000D5F1F4F2234310569F78BCF0E94FB1298
:10396000D82E0E94FB12F0E88F9FC00111247FE740
:10397000790FE980FA80EE0CFF1C29813A81E20E72
:10398000F31EA7014B535C4F7A016D2D80911705F3
:103990000E94BD12F701608371838283D3CFE981D6
:1039A000FA81E153FE4F8081909117028923882389
:1039B00041F0F80122814081618189819A810E94D0
:1039C000F7150D5F1F4F29813A812F5F3F4F3A83D3
:1039D00029835FCF0E94FB1289830E94FB1250E86B
:1039E000859FC00111247FE7790F698180911705B8
:1039F0000E94BD12609388047093890480938A04A6
:103A000069CF809116028F5F809316022896E2E1BB
:103A10000C94D22B80911802882329F040E060E0BA
:103A200080E00E945E16809116020E947F169E839F
:103A300040911C0550911D0560911E0570911F0558
:103A40008091C1039091C203A091C303B091C403BC
:103A500084179507A607B70708F0A9C06091150558
:103A600070911605809117050E944F15762E672ECE
:103A7000282E4EE953E058874F8300E011E068019B
:103A8000015F1F4F46015801EF80F884312CF70188
:103A900081917F01882309F48EC0522C79826D8236
:103AA000F40181914F0190E0FC01E153FE4F208130
:103AB000309117022323222329F0252D4D8169817E
:103AC0000E94F715F50182915F0190E0FC01E1533E
:103AD000FE4F2081309117022323222329F0252D28
:103AE0004D8169810E94F715F701808131978083AC
:103AF0003394F6E03F12CBCFEF81F8858681B22C6C
:103B00007301811103C0B12CF12CE12CF6018681E7
:103B100090E0FC01E153FE4F2081309117022323F6
:103B2000222329F02B2D4E2D6F2D0E94F715F60123
:103B3000808590E0FC01E153FE4F20813091170217
:103B40002323222329F02B2D4E2D6F2D0E94F715B4
:103B50000E94FB12837091E0811190E0EF81F88563
:103B600096833796F887EF83F1E00B341F0709F04F
:103B700086CF0E94911469837A838B839C83809182
:103B80001C0590911D05A0911E05B0911F0529816E
:103B90003A814B815C81820F931FA41FB51F8093D4
:103BA000C1039093C203A093C303B093C40381E005
:103BB0003E81313432CE512C19821D8271CF86E183
:103BC00092E00E943B1A45CD809116028F5F809350
:103BD000160283E0A3CE81E008950E94EB1D0895B4
:103BE000FC01808181500E947F16692F0E94ED1D8B
:103BF0000895A4E0B0E0EFEFFDE10C94C62B0E9425
:103C00005D2460939404709395048093960490933C
:103C100097042091980421111FC020911405322F80
:103C200033703983332319F0269526952983209103
:103C30001502223051F190F4211116C01092160293
:103C400060931C0570931D0580931E0590931F05BE
:103C500081E08093150204C01982E9CF233009F175
:103C60002496E2E00C94E22B89810E94DA1A898181
:103C70008823B1F380911502823011F40E94D6029C
:103C800086E192E00E94F01DEBCF9981909319029A
:103C900080911405837080931A020E94F11583E0CD
:103CA000D8CF8091930481110E94441580911C0506
:103CB00090911D05A0911E05B0911F05BC01CD017D
:103CC0000E948924603171058105910548F21092A6
:103CD0001502C6CFE091B302F091B402099581E0DC
:103CE0008093930448E050E067E170E084E195E060
:103CF0000E94152C1092930480911405843010F4C6
:103D00000E94DD150895CF93C82F882391F08091EC
:103D1000980481110EC00E94DA1A10921902809143
:103D20001405837080931A020E94F11583E080933A
:103D30001502C0939804CF910895E4E1F5E09081D5
:103D400021E092279083109215020E94B0140895EA
:103D500081E00E949D1E0895982F862F20911405C2
:103D60002370222389F0992381F09C3180F49F7382
:103D7000990F990F209114052370922B909314059D
:103D8000109215020E94B014089591E0F1CF9BE1CA
:103D9000EFCF61E00E94AC1E0895682F809114055A
:103DA000869586958F5F8C3108F081E00E94AC1E6D
:103DB000089581E00E94CD1E0895682F909114050A
:103DC000969596958FEF890F913009F48BE10E94BB
:103DD000AC1E089581E00E94DD1E0895982F822F69
:103DE000209114052370222359F0909315056093B8
:103DF0001605473908F046E9409317050E94B014AC
:103E00000895282FE4E1F5E09181892F90E0438126
:103E1000628108960E94EE1E089581E00E94011FB3
:103E20000895282FE4E1F5E0818143816281885083
:103E3000990B0E94EE1E089581E00E94111F0895C3
:103E4000282FE4E1F5E0628138E0630F08F46FEFBA
:103E50008181438190E00E94EE1E089581E00E94DE
:103E6000201F0895282FE4E1F5E0628138E0631B0C
:103E700008F460E08181438190E00E94EE1E089585
:103E800081E00E94321F0895282FE4E1F5E043818C
:103E900038E0430F08F44FEF8181628190E00E9487
:103EA000EE1E089581E00E94441F0895282FE4E14A
:103EB000F5E0438138E0431B08F440E081816281F2
:103EC00090E00E94EE1E089581E00E94561F089522
:103ED000E4E1F5E024813AE0230F08F42FEF248396
:103EE0000E94B014089581E00E94681F0895E4E1E3
:103EF000F5E024813AE0231B08F420E024830E94AB
:103F0000B014089581E00E94771F0895CF93DF9346
:103F1000DC01FC01EE0FFF1FEF01CA0FDB1FC05ECB
:103F2000DA4F8981861306C08881841303C08A8191
:103F3000821751F081E08093E704EA0FFB1FE05EF7
:103F4000FA4F618340832283DF91CF910895FF92DE
:103F50000F931F93CF93DF93182F062FF42EC0E0FB
:103F6000D0E02F2D402F612FCE010E94861F219679
:103F7000C234D105B1F7CDB7DEB7E5E00C94DF2B45
:103F80008091E704882341F062E470E080E295E0EC
:103F90000E9438201092E70408950E943620109263
:103FA000E7040895FA01882311F009950895FB01AB
:103FB000FCCF1F93CF93DF93EC01FB01158111110F
:103FC00053C00E94CF0B8272FE01E052F847E531E8
:103FD000F10508F049C0EB57F34D0C94B02B0E944B
:103FE000A81E812FDF91CF911F9108954AEE5EE1C7
:103FF00069ED7EE10E94D21FF4CF49ED5EE16AEEE9
:104000007EE1F8CF4CE15FE16DE07FE1F3CF4DE081
:104010005FE16CE17FE1EECF40E45FE16EE27FE1E2
:10402000E9CF4EE25FE160E47FE1E4CF44E65FE1A7
:1040300062E57FE1DFCF42E55FE164E67FE1DACF71
:1040400042E85FE163E77FE1D5CF43E75FE162E804
:104050007FE1D0CF81E00E94C91EC3CF84E0FBCFB7
:1040600089E0F9CF8EE0F7CF11E0BBCF6E9A0895CB
:104070009C01AB016EB16F7B7EB17064EFB7F894B9
:10408000CA01880F991F840F951F820F931F8217F3
:10409000930741F4EFBF8FE594E00197F1F700C07B
:1040A00000000895D9014D919D0158E07EB90000AE
:1040B00000C047FF6EB9440F000000C000C000C040
:1040C0006EB900C05A9591F7E2CF0E94F80C08959E
:1040D00080E00E94C310817008950E948C112FEF20
:1040E00086E791E0215080409040E1F700C0000059
:1040F0000E948C110E946820882321F00E94652074
:104100000E94CD2408950E946D200895CF93DF93DF
:10411000EB0186319C4719F50E94CF0B9D819923B5
:10412000A1F08A7A91E0811101C090E09093E804B7
:10413000882349F085E30E9467230E94890C80E070
:10414000DF91CF91089589E2F6CF8091E80488232A
:1041500021F085E30E947E23F0CF89E2FBCF81E04E
:10416000EFCFCF93DF93EC01FB018581882309F426
:10417000D2C09E0130572332310508F0B2C00E94F0
:10418000140D9093FF048093FE04FE01E150F0476C
:10419000E232F10520F4E656F34D0C94B02B8091F9
:1041A000FE0481608093FE0493C08091FF048860C8
:1041B0008093FF048DC08091FE048260F3CF8091D4
:1041C000FE048460EFCF8091FE048860EBCF809185
:1041D000FF048160EDCF8091FF048260E9CF809180
:1041E000FE048061DFCF8091FE048062DBCF80918E
:1041F000FE048064D7CF0E9460078091FE0480682F
:10420000D1CF8091FE048C60CDCF8091FF0483607C
:10421000CFCF8091FE048E7FC5CF8091FF04877F32
:10422000C7CF8091FE048D7FBDCF8091FE048B7F30
:10423000B9CF8091FE04877FB5CF8091FF048E7F38
:10424000B7CF8091FF048D7FB3CF8091FE048F7E26
:10425000A9CF8091FE048F7DA5CF8091FE048F7B36
:10426000A1CF0E9460078091FE048F779BCF809141
:10427000FE04837F97CF8091FF048C7F99CF80913C
:10428000FE0482FB992790F921E0922790FB82F9A6
:1042900090FB83F987CF8091FF04982F90959170C0
:1042A0008E7F892B90FB81F983CF9091FE04892F1B
:1042B0008F7B96FF806476CF0E9460079091FE040A
:1042C000892F97FB87F980586DCF81E00E949D0D63
:1042D0008091FE049091FF040E94190D0E946007D6
:1042E00080E0DF91CF91089580E0F0CF9091FE04BF
:1042F000892F8F7E94FF806155CF9091FE04892F86
:104300008E7F90FF81604ECF9091FF04892F877F31
:1043100093FF88604DCF81E0E4CF0F931F93CF933D
:10432000DF93C42FD22FFC0185818823C9F04093ED
:10433000EB040E9451249093EA048093E90480E204
:104340008C0F883040F4C77081E001C0880FCA9597
:10435000EAF70E94FA04DF91CF911F910F9108951F
:104360001091EB0414133CC08091E9049091EA048D
:104370000E947A24883C910598F5C0E2CD0F1D1764
:1043800041F180E2810F883040F4177081E001C074
:10439000880F1A95EAF70E940105C83020F0802F97
:1043A0000E94F104D8CF91E08D2F877001C0990F42
:1043B0008A95EAF7892F0E94FA04802F0E94F1045F
:1043C000D77081E001C0880FDA95EAF70E940105F5
:1043D000C2CF802F0E94F104C83008F0BCCFF0CFCC
:1043E00080E28C0F883008F0B6CFC77081E001C042
:1043F000880FCA95EAF7EACF0F93FC01CB01E85189
:10440000FC47E730F10590F5E454F34D0C94B02BE4
:1044100006E221EE41EE6AE17CE70E948D2180E018
:104420000F91089507E225EE45EE6BE17CE7F5CFAD
:1044300006E221EE40EE68E17CE7EFCF07E225EEF1
:1044400044EE69E17CE7E9CF06E221EE42EE6CE161
:104450007CE7E3CF07E225EE46EE6DE17CE7DDCFBA
:1044600008E221E045EE6EE17CE7D7CFFB018581D4
:1044700081111092EB0481E0D3CF9093F1048093EB
:10448000F0040895E091F004F091F104309729F0E0
:104490000190F081E02D0995089580E008950E9433
:1044A00042220895E091F004F091F104309721F058
:1044B0000280F381E02D09950895DC01E091F0047C
:1044C000F091F104309739F086E08C930480F58107
:1044D000E02DCD0109950895A3E0B0E0E2E7F2E216
:1044E0000C94C62B9C018091EE049091EF048217EE
:1044F0009307A1F03093EF042093EE04E091F004D1
:10450000F091F104309751F083E089833B832A8353
:104510000084F185E02DCE01019609952396E2E015
:104520000C94E22BA3E0B0E0E8E9F2E20C94C62B95
:104530009C018091EC049091ED0482179307A1F007
:104540003093ED042093EC04E091F004F091F10439
:10455000309751F084E089833B832A830084F1857E
:10456000E02DCE01019609952396E2E00C94E22B12
:1045700020911302309114022E5F3F4F8091270249
:104580008823A9F08091FE0487FF11C020911102B9
:10459000309112022E5F3F4F9DE180E0F901408192
:1045A0002F5F3F4F41118F5F9150C0F7089595E005
:1045B000F4CF882321F190912702992311F1909152
:1045C000FE0497FF1EC0982F969596959695803F6E
:1045D000B0F4E0911102F0911202E90FF11D228175
:1045E00030E0877041E050E0BA0102C0660F771FEB
:1045F0008A95E2F72623372381E0232B91F480E08C
:1046000008952091130230911402F9013296285F27
:104610003F4F9191981721F0E217F307D1F7EFCFB1
:1046200081E008959C01FC0132968FEF90E041916A
:10463000461751F08F3F19F4411101C0892F9F5F38
:104640009630A9F78F3F09F40895280F311D87FD93
:104650003A95F901628308959C01FC013296285F26
:104660003F4F8191861303C0DF0111971C92E2171F
:10467000F307B9F70895FC01862F869586958695F0
:10468000603F60F4E80FF11D677021E030E001C089
:10469000220F6A95EAF78281822B82830895FC01BA
:1046A000862F869586958695603F80F4E80FF11DEC
:1046B000677081E090E09C0102C0220F331F6A9571
:1046C000E2F7B90160958281682362830895682FBB
:1046D00080912702882359F08091FE0487FF07C04C
:1046E00080911102909112020E943B2308958091C3
:1046F0001302909114020E9412230895682F809152
:104700002702882359F08091FE0487FF07C080911B
:104710001102909112020E944F230895809113027A
:10472000909114020E942C230895809127028823DF
:1047300079F08091FE0487FF0BC0E0911102F091A7
:10474000120232968EE1DF011D928A95E9F70895F3
:10475000E0911302F0911402329686E0F4CF0895AE
:104760000E94AF2308958F5F8093F2040E94B023CC
:10477000089583E08093F2040E94B02308950E947C
:10478000B323089581E08093F2040E94B02308953A
:104790000E94C2230895089508950E94CC2308958D
:1047A000089508950E94CB230895CF930E94D023AB
:1047B0000E948C110E94D123C0E08C2F0E94C31054
:1047C000892B31F4CF5FC530C1F780E0CF910895D8
:1047D00081E0FCCF85B7806885BF85B7806885BFDD
:1047E00008951F921FB61F9211248F939F93AF932A
:1047F000BF938091F304811113C08091E6059091DD
:10480000E705A091E805B091E9054196A11DB11D0C
:104810008093E6059093E705A093E805B093E9053A
:10482000BF91AF919F918F911F901FBE1F901895C0
:104830008091EE05843031F10E94ED031092F30473
:1048400088E190E020E40FB6F894A895809360008A
:104850000FBE2093600083B7817F846083BF83B7DE
:10486000816083BF7894889583B78E7F83BF0FB6AE
:10487000F894A89580916000886180936000109200
:1048800060000FBE08950E9460070E94F70308951C
:1048900082E084BD93E095BD9AEF97BD80936E0052
:1048A00008952FB7F8948091E6059091E705A091BF
:1048B000E805B091E9052FBF0895A4E0B0E0E3E674
:1048C000F4E20C94C62B8FB7F8942091E605309152
:1048D000E7054091E8055091E90529833A834B8328
:1048E0005C838FBF69817A818B819C812496E2E011
:1048F0000C94E22B9C014FB7F8948091E6059091BF
:10490000E705A091E805B091E9054FBF821B930B25
:104910000895A4E0B0E0EFE8F4E20C94C42B462F35
:10492000572FBC012FB7F8948091E6059091E705C9
:10493000A091E805B091E9052FBF8C019D01041BF2
:10494000150B260B370BC901B8012496E4E00C9433
:10495000E02B78941F921FB61F9211248F939F9380
:10496000AF93BF938091E6059091E705A091E8058C
:10497000B091E9050196A11DB11D8093E6059093C4
:10498000E705A093E805B093E905BF91AF919F912A
:104990008F911F901FBE1F90189581E08093E000BB
:1049A00080E28093D8001092C9008FE19EE40197C5
:1049B000F1F700C0000087E090EBDC018093F70581
:1049C0009093F805A093F905B093FA0588E19CE06F
:1049D0000FB6F894A895809360000FBE9093600086
:1049E000FFCF88E19CE00FB6F894A8958093600013
:1049F0000FBE90936000FFCF8091FC04089508954E
:104A0000282FCB01BA013091EE053430E1F42F703C
:104A10002093E9002FEF3091E80035FD07C035ED18
:104A20003A95F1F7000021502111F5CF2091E800CF
:104A300025FF09C040E050E00E9406278091E80071
:104A40008E778093E8000895BC0143E050E082E057
:104A50000E9400250895BC0140E250E082E00E94DF
:104A600000250895CF93DF93D82FC92F48E050E059
:104A7000682F792F81E00E94002588E0ED2FFC2F20
:104A8000A4EFB4E001900D928A95E1F7DF91CF9108
:104A900008958091ED05811109C00E948E280E9421
:104AA000EB288091E20084608093E20008951092E8
:104AB000ED0508950E94C22308956091EA0581E002
:104AC000611101C080E00E94B92308959091EE0524
:104AD00081E0943009F080E06091EA050E94BF23F4
:104AE000089542E061EC81E00E940A2842E261EC14
:104AF00082E00E940A289091EE0581E0943009F04E
:104B000080E06091EA050E94B32308958091F0054A
:104B1000893089F148F4823009F4A0C0833009F467
:104B20005AC0813041F008958A3009F487C08B3033
:104B300009F46CC008958091EF05813A09F04AC0EC
:104B40008091E800877F8093E8008091F305909141
:104B5000F405892B61F060E080E090E070E00E9455
:104B600055278091E8008B778093E800089568E0EE
:104B700084EF94E0F3CF8091EF05813259F5809175
:104B8000F3059091F405029728F58091E800877F5E
:104B90008093E8008091E80082FF18C09091F300B4
:104BA0008091F200029731F48091F100813011F090
:104BB000863021F48091F1008093FC048091E8001C
:104BC0008B778093E8000E943E2804C08091EE0518
:104BD0008111E0CF08958091EF05813AD9F7809156
:104BE000F3059091F405892BA9F78091E800877F60
:104BF0008093E8008091E80080FFFCCF809127023D
:104C00008093F1008091E8008E77DBCF8091EF05F3
:104C1000813201F78091F3059091F405892BD1F64B
:104C20008091E800877F8093E8000E943E28809171
:104C3000F105809327020E94600708958091EF0597
:104C4000813241F68091E800877F8093E8000E94DE
:104C50003E288091F2058093FD0408958091EF0530
:104C6000813A09F0B7CF8091E800877F8093E80010
:104C70008091E80080FFFCCF8091FD04C1CF84B714
:104C8000877F84BF0FB6F894A895809160008861F3
:104C900080936000109260000FBE80E890E00FB635
:104CA000F89480936100909361000FBE0E94C82326
:104CB00008950E948E280E94EB28E2EEF0E08081A9
:104CC0008460808378940E946E2B08958DE192E039
:104CD0000E943D2208958091EE05853031F4809147
:104CE000EE05853019F00E94432408950E9418248F
:104CF0000E94D523882399F38091EC05882379F3CA
:104D00000E94F0260E9460072FEF83E294EF21506B
:104D100080409040E1F700C00000E1CF08959A0183
:104D20004091F5055091F6050E9497260895AC0133
:104D3000CB01D901252F332723303105E1F058F479
:104D400021303105C9F122303105D9F180E090E000
:104D500020E030E01EC02132310521F12232310540
:104D6000A9F7892BC1F16130710581F78DE690E0DB
:104D700027E834E00EC0CA019927413069F082303B
:104D8000910569F0E6E3F4E0892B01F7849190E066
:104D90009F012D933C930895E4E2F4E0F7CFE4E023
:104DA000F4E0F4CF892B91F06130710579F689E058
:104DB00090E025E634E0EDCF82E190E025E734E0B5
:104DC000E8CF8BE390E02AE334E0E3CF89E090E0A2
:104DD0002CE434E0DECF84E490E024EF34E0D9CF5B
:104DE00080E189BD82E189BD09B400FEFDCF8091DB
:104DF000D8008F7D8093D8008091E00082608093FE
:104E0000E0008091E00081FDFCCF0895AF92BF9259
:104E1000CF92DF92FF920F931F93CF93DF936C019A
:104E2000EB018A010E945D28F82E811123C0011533
:104E3000110539F0F80180819181C81BD90BC80E8A
:104E4000D91EA12CB12C2097A9F08091E80085FDF6
:104E500022C08091E8008E778093E800011511054B
:104E6000A1F0F801808191818A0D9B1D918380833F
:104E700085E0F82E8F2DDF91CF911F910F91FF903C
:104E8000DF90CF90BF90AF9008950E945D28882357
:104E9000E1F2F82EEFCFF60181916F018093F100DE
:104EA0002197FFEFAF1ABF0ACECFFC019B01809183
:104EB000F5059091F6058617970718F0672B61F0B6
:104EC000C90140E0009771F441110CC08091E800E5
:104ED00082FF35C080E008958091E8008E7780934E
:104EE000E800EECF2091EE052223A9F12530A9F1AB
:104EF0002091E80023FD2DC02091E80022FDE6CF9F
:104F00002091E80020FFDECF3091F3002091F200E5
:104F1000009719F02830310558F041E0283031056C
:104F200009F040E02091E8002E772093E800CACFF6
:104F300041914093F10001972F5F3F4FE9CF80915E
:104F4000EE05882341F0853041F08091E80083FF31
:104F5000BDCF81E0089582E0089583E00895FC01CB
:104F60009B018091F5059091F6058617970718F03B
:104F7000672B61F0C90140E0009771F441110CC04A
:104F80008091E80082FF36C080E008958091E800BB
:104F90008E778093E800EECF2091EE052223B1F1C9
:104FA0002530B1F12091E80023FD2EC02091E800CA
:104FB00022FDE6CF2091E80020FFDECF3091F30004
:104FC0002091F200009719F02830310558F041E0A7
:104FD0002830310509F040E02091E8002E77209339
:104FE000E800CACF44914093F100319601972F5FBA
:104FF0003F4FE8CF8091EE05882341F0853041F0A6
:105000008091E80083FFBCCF81E0089582E008959D
:1050100083E00895982F973028F08F708093E900EF
:1050200081E008959093E900242F762F50E098179F
:1050300031F07091EC002091ED005091F00021FDD5
:1050400002C09F5FE8CF3091EB003E7F3093EB00D2
:105050003091ED003D7F3093ED003091EB003160F9
:105060003093EB007093EC002093ED005093F00030
:105070002091EE0027FDE5CF80E008958091EF05B7
:1050800087FF13C08091E80082FF06C08091E8008E
:105090008B778093E80004C08091EE058111F2CFF8
:1050A00008958091EE058823D9F38091E80080FF70
:1050B000F8CF8091E8008E77ECCF2091E40030911A
:1050C000E50095E6A9018091EC008170882331F01C
:1050D0008091E80080FF06C080E008952091E800FC
:1050E00022FD1BC08091EE05882391F0853091F060
:1050F0008091EB0085FD10C02091E4003091E50027
:105100004217530701F391509111DCCF84E00895C9
:1051100082E0089583E0089581E008950E94FD28CB
:105120000E940529E0EEF0E0808181608083E8ED57
:10513000F0E080818F77808319BCA7EDB0E08C917F
:105140008E7F8C9380818F7E80831092ED050895F1
:105150000F931F93CF93DF930E94FD280E94052990
:10516000C8EDD0E088818F778883888180688883C4
:1051700088818F7D888319BC1092EE051092EA0514
:105180001092EC051092EB0500EE10E0F801808122
:105190008B7F808388818160888342E060E080E04B
:1051A0000E940A28E1EEF0E080818E7F8083E2EEAB
:1051B000F0E0808181608083808188608083F80155
:1051C00080818E7F8083888180618883DF91CF9109
:1051D0001F910F910895E8EDF0E080818F7E80832C
:1051E000E7EDF0E080818160808384E082BF81E030
:1051F0008093ED050E94A8280895E8EDF0E08081F5
:105200008E7F80831092E20008951092DA0010924F
:10521000E10008951F920F920FB60F9211242F9361
:105220003F934F935F936F937F938F939F93AF932E
:10523000BF93EF93FF938091E10082FF0BC08091B9
:10524000E20082FF07C08091E1008B7F8093E10044
:105250000E946D2B8091DA0080FF19C08091D800E8
:1052600080FF15C08091DA008E7F8093DA008091F4
:10527000D90080FF94C080E189BD82E189BD09B475
:1052800000FEFDCF81E08093EE050E9449258091CC
:10529000E10080FF19C08091E20080FF15C080917D
:1052A000E2008E7F8093E2008091E2008061809333
:1052B000E2008091D80080628093D80019BC85E01C
:1052C0008093EE050E945D258091E10084FF29C056
:1052D0008091E20084FF25C080E189BD82E189BD23
:1052E00009B400FEFDCF8091D8008F7D8093D80057
:1052F0008091E1008F7E8093E1008091E2008F7EBB
:105300008093E2008091E20081608093E2008091CE
:10531000EA05882309F449C084E08093EE050E94E1
:1053200066258091E10083FF29C08091E20083FF20
:1053300025C08091E100877F8093E10082E0809327
:10534000EE051092EA058091E1008E7F8093E100E6
:105350008091E2008E7F8093E2008091E200806184
:105360008093E20042E060E080E00E940A288091A1
:10537000F00088608093F0000E945A25FF91EF9121
:10538000BF91AF919F918F917F916F915F914F915D
:105390003F912F910F900FBE0F901F90189519BC41
:1053A0001092EE050E94572572CF8091E30087FF8F
:1053B00002C083E0B2CF81E0B0CF1F920F920FB650
:1053C0000F921124FF920F931F932F933F934F93AC
:1053D0005F936F937F938F939F93AF93BF93CF937D
:1053E000DF93EF93FF9309EE10E0F8018081C09105
:1053F000EC00C795CC27C7958F70FC2EF82A108239
:10540000C0EFD0E08881877F888378940E94262A25
:10541000F8011082888188608883CF2DCF70C08387
:10542000FF91EF91DF91CF91BF91AF919F918F91BC
:105430007F916F915F914F913F912F911F910F91AC
:10544000FF900F900FBE0F901F901895AAE2B0E04A
:10545000ECE2FAE20C94C52B8FEE95E0FC0101968C
:105460002091F100208325E0873F9207B9F70E9441
:1054700086258091E80083FF38C08091EF059091E8
:10548000F0059A3090F5E92FF0E0ED53F34D0C94D0
:10549000B02B803889F0823841F58091F3058F7008
:1054A000873018F58093E9008091EB0085FB882711
:1054B00080F91092E90006C08091EB059091EC050F
:1054C000911182609091E800977F9093E80080931B
:1054D000F1001092F1008091E8008E7723C08111D5
:1054E00016C08091F105813011F18091E80083FFB1
:1054F0000AC08091E800877F8093E8008091EB00EC
:1055000080628093EB00AA96E3E00C94E12B82305A
:1055100061F78091F105882389F01092E90080916C
:10552000E800877F8093E8000E943E28DECF81E07C
:10553000933009F080E08093EC05EFCF8091F30584
:105540008F702FEF280F263080F68093E90020918E
:10555000EB0020FFE2CF933031F48091EB008062CA
:105560008093EB00DACF9091EB0090619093EB0089
:1055700021E030E0A90102C0440F551F8A95E2F7EF
:105580004093EA001092EA008091EB008860E8CF37
:105590008111ABCF1091F1051F778091E3008078E6
:1055A000812B8093E3008091E800877F8093E8005F
:1055B0000E943E288091E80080FFFCCF8091E300AC
:1055C00080688093E30083E0111101C082E0809342
:1055D000EE058BCF8058823008F087CF8091F1059F
:1055E0009091F2058C3D53E0950799F583E08A830D
:1055F0008AE289834FB7F894DE01139620E03EE0FB
:1056000051E2E32FF0E050935700849120FF03C054
:1056100082958F703F5F8F708A30C8F0895C90E010
:105620008D939D932F5F243161F74FBF8091E800E8
:10563000877F8093E8006AE270E0CE0101960E94C5
:1056400055278091E8008B778093E8004ECF805DEE
:10565000E6CF6091F3057091F405AE014F5F5F4FA7
:105660000E948F26BC01892B09F43FCF8091E8006E
:10567000877F8093E80089819A810E94AF27E1CFDC
:10568000803809F032CF8091E800877F8093E8006E
:105690008091EA058093F1001ECF811126CF909171
:1056A000F105923008F021CF8091E800877F809348
:1056B000E8009093EA050E943E288091EA0588233D
:1056C00031F084E08093EE050E9471250ECF809129
:1056D000E30087FDF6CF81E0F5CF0895CF93809169
:1056E000EE05882399F08091E900C091EC00C79500
:1056F000CC27C7958F70C82B1092E9008091E800E5
:1057000083FD0E94262ACF70C093E900CF910895AF
:10571000AA1BBB1B51E107C0AA1FBB1FA617B707D7
:1057200010F0A61BB70B881F991F5A95A9F78095F3
:105730009095BC01CD01089597FB072E16F40094B7
:1057400007D077FD09D00E94882B07FC05D03EF4D6
:10575000909581959F4F0895709561957F4F08951D
:10576000EE0FFF1F0590F491E02D09942F923F92C8
:105770004F925F926F927F928F929F92AF92BF9261
:10578000CF92DF92EF92FF920F931F93CF93DF930D
:10579000CDB7DEB7CA1BDB0B0FB6F894DEBF0FBE6A
:1057A000CDBF09942A88398848885F846E847D84B7
:1057B0008C849B84AA84B984C884DF80EE80FD80B9
:1057C0000C811B81AA81B981CE0FD11D0FB6F8942F
:1057D000DEBF0FBECDBFED010895FB01DC0104C0AB
:1057E0008D910190801921F441505040C8F7881BD9
:1057F000990B0895FB01DC0102C001900D9241500C
:105800005040D8F708956817790768F4FB01DC0168
:10581000E40FF51FA40FB51F02C002900E92415075
:105820005040D8F708950C94FA2BDC01CB01FC0111
:10583000F999FECF06C0F2BDE1BDF89A319600B4E9
:105840000D9241505040B8F70895F999FECF92BD9E
:1058500081BDF89A992780B50895A8E1B0E042E0AB
:1058600050E00C94172CDC01A40FB51F41505040A0
:1058700048F0CB01840F951F2E910E94442C41507B
:105880005040D0F70895262FF999FECF92BD81BDE3
:10589000F89A019700B4021639F01FBA20BD0FB66E
:1058A000F894FA9AF99A0FBE08950396272F0E944A
:1058B000442C0E94432C252F0E94442C242F0C940E
:1058C000442C0196272F0E94442C0C94432CF894CE
:1058D000FFCF0D1B251B391B3E1B431B481B4D1BBC
:1058E000521B571B5C1B611B661B6B1B701B751BC4
:1058F0007A1B7F1B841B891B8E1B931B981B9D1B74
:10590000A21BA71B1F1C0A1DDF1DEF1FF61FFD1F7B
:10591000022007200C20112016201B2020202520EB
:105920002A202E2030203220F11FF11FF11FF11FFD
:10593000F11FF11F09217D211121DB20DF2015211D
:10594000E32019212521EF207621F3202921F720BA
:105950002D215521FB2031215C21012137213F21BF
:10596000E7201D21EB20212105213B214B21652131
:105970007421D5200D21842118221E2208221222F2
:1059800024222A223022492A6F2A752A6F2A752A50
:0A599000C82AEA2A752A402B4D2B85
:10599A00000102030405060708090A0B0C0D0F1E75
:1059AA001D1C1B1A191817161514131211101F2073
:1059BA002122232425262728292A2BFF0E39383786
:1059CA00363534333231302F2E2D2CFFFF3A3BFF40
:1059DA00FF3CFFFF3DFF3EFF3F404100000F001E1E
:1059EA00002D003C004B005A0069007800870096A1
:1059FA0000A500B400C300D200E000E010CE10BC45
:105A0A0010AD109E108F1080107110621053104448
:105A1A0010351026101710041006201A20292038D5
:105A2A0020472056206520742083209220A120B090
:105A3A0020C920DC30CD30BB30A9309A308B307C85
:105A4A00306D305E304F3040303130223009301501
:105A5A0040274060409840AB40C340D240E04004F9
:105A6A0004040404040404040404040404040404EC
:105A7A0004040404040404040404040404040404DC
:105A8A0004040404040404040404040104040404CF
:105A9A0004040404040404040404040404040101C2
:105AAA00015C037C030300FF00FFFF3905FC24327D
:105ABA00252B25FF2424250100FF96E200E900EAB0
:105ACA0000B500B600B700CD008301CC008A019270
